8=FIX.4.2|9=73|35=A|34=11|49=BANZAI|52=20160107-03:29:46.613|56=FIXIMULATOR|98=0|108=30|10=059|
8=FIX.4.2|9=73|35=A|34=10|49=FIXIMULATOR|52=20160107-03:29:46.640|56=BANZAI|98=0|108=30|10=058|
8=FIX.4.2|9=156|35=D|34=12|49=BANZAI|52=20160107-03:29:55.978|56=FIXIMULATOR|1=testAccount|11=1452137395966|21=1|38=12|40=1|54=1|55=JD|59=0|60=20160107-03:29:55.975|167=CS|10=157|
8=FIX.4.2|9=61|35=0|34=11|49=FIXIMULATOR|52=20160107-03:30:17.413|56=BANZAI|10=002|
8=FIX.4.2|9=73|35=A|34=13|49=BANZAI|52=20160107-03:31:41.993|56=FIXIMULATOR|98=0|108=30|10=060|
8=FIX.4.2|9=73|35=A|34=12|49=FIXIMULATOR|52=20160107-03:31:42.020|56=BANZAI|98=0|108=30|10=041|
8=FIX.4.2|9=156|35=D|34=14|49=BANZAI|52=20160107-03:31:54.773|56=FIXIMULATOR|1=testAccount|11=1452137514761|21=1|38=12|40=1|54=1|55=JD|59=0|60=20160107-03:31:54.770|167=CS|10=115|
8=FIX.4.2|9=61|35=0|34=13|49=FIXIMULATOR|52=20160107-03:32:12.926|56=BANZAI|10=010|
8=FIX.4.2|9=61|35=0|34=15|49=BANZAI|52=20160107-03:32:24.981|56=FIXIMULATOR|10=016|
8=FIX.4.2|9=61|35=0|34=14|49=FIXIMULATOR|52=20160107-03:32:42.926|56=BANZAI|10=014|
8=FIX.4.2|9=61|35=0|34=16|49=BANZAI|52=20160107-03:32:55.979|56=FIXIMULATOR|10=028|
8=FIX.4.2|9=173|35=8|34=15|49=FIXIMULATOR|52=20160107-03:33:12.068|56=BANZAI|6=0|11=1452137514761|14=0|17=E1452137592059|20=0|31=0|32=0|37=O1452137514793|38=12|39=8|54=1|55=JD|150=8|151=12|10=220|
8=FIX.4.2|9=61|35=0|34=17|49=BANZAI|52=20160107-03:33:26.978|56=FIXIMULATOR|10=027|
8=FIX.4.2|9=61|35=0|34=16|49=FIXIMULATOR|52=20160107-03:33:42.925|56=BANZAI|10=016|
8=FIX.4.2|9=61|35=0|34=18|49=BANZAI|52=20160107-03:33:57.977|56=FIXIMULATOR|10=031|
8=FIX.4.2|9=61|35=0|34=17|49=FIXIMULATOR|52=20160107-03:34:13.927|56=BANZAI|10=018|
8=FIX.4.2|9=61|35=0|34=19|49=BANZAI|52=20160107-03:34:28.972|56=FIXIMULATOR|10=026|
8=FIX.4.2|9=61|35=0|34=18|49=FIXIMULATOR|52=20160107-03:34:44.926|56=BANZAI|10=022|
8=FIX.4.2|9=61|35=0|34=20|49=BANZAI|52=20160107-03:34:58.975|56=FIXIMULATOR|10=024|
8=FIX.4.2|9=61|35=0|34=19|49=FIXIMULATOR|52=20160107-03:35:15.925|56=BANZAI|10=021|
8=FIX.4.2|9=61|35=0|34=21|49=BANZAI|52=20160107-03:35:29.973|56=FIXIMULATOR|10=022|
8=FIX.4.2|9=61|35=0|34=20|49=FIXIMULATOR|52=20160107-03:35:45.925|56=BANZAI|10=016|
8=FIX.4.2|9=61|35=0|34=22|49=BANZAI|52=20160107-03:36:00.974|56=FIXIMULATOR|10=014|
8=FIX.4.2|9=61|35=0|34=21|49=FIXIMULATOR|52=20160107-03:36:15.926|56=BANZAI|10=016|
8=FIX.4.2|9=61|35=0|34=23|49=BANZAI|52=20160107-03:36:31.972|56=FIXIMULATOR|10=017|
8=FIX.4.2|9=61|35=0|34=22|49=FIXIMULATOR|52=20160107-03:36:45.926|56=BANZAI|10=020|
8=FIX.4.2|9=61|35=0|34=24|49=BANZAI|52=20160107-03:37:02.971|56=FIXIMULATOR|10=016|
8=FIX.4.2|9=61|35=0|34=23|49=FIXIMULATOR|52=20160107-03:37:15.927|56=BANZAI|10=020|
8=FIX.4.2|9=61|35=0|34=25|49=BANZAI|52=20160107-03:37:33.969|56=FIXIMULATOR|10=028|
8=FIX.4.2|9=61|35=0|34=24|49=FIXIMULATOR|52=20160107-03:37:46.927|56=BANZAI|10=025|
8=FIX.4.2|9=61|35=0|34=26|49=BANZAI|52=20160107-03:38:03.969|56=FIXIMULATOR|10=027|
8=FIX.4.2|9=61|35=0|34=25|49=FIXIMULATOR|52=20160107-03:38:17.926|56=BANZAI|10=024|
8=FIX.4.2|9=61|35=0|34=27|49=BANZAI|52=20160107-03:38:34.968|56=FIXIMULATOR|10=031|
8=FIX.4.2|9=61|35=0|34=26|49=FIXIMULATOR|52=20160107-03:38:48.925|56=BANZAI|10=028|
8=FIX.4.2|9=61|35=0|34=28|49=BANZAI|52=20160107-03:39:05.967|56=FIXIMULATOR|10=030|
8=FIX.4.2|9=61|35=0|34=27|49=FIXIMULATOR|52=20160107-03:39:18.926|56=BANZAI|10=028|
8=FIX.4.2|9=61|35=0|34=29|49=BANZAI|52=20160107-03:39:36.966|56=FIXIMULATOR|10=034|
8=FIX.4.2|9=61|35=0|34=28|49=FIXIMULATOR|52=20160107-03:39:48.926|56=BANZAI|10=032|
8=FIX.4.2|9=61|35=0|34=30|49=BANZAI|52=20160107-03:40:07.965|56=FIXIMULATOR|10=015|
8=FIX.4.2|9=73|35=A|34=31|49=BANZAI|52=20160107-06:57:50.052|56=FIXIMULATOR|98=0|108=30|10=057|
8=FIX.4.2|9=73|35=A|34=29|49=FIXIMULATOR|52=20160107-06:57:50.087|56=BANZAI|98=0|108=30|10=072|
8=FIX.4.2|9=61|35=0|34=30|49=FIXIMULATOR|52=20160107-06:58:20.303|56=BANZAI|10=008|
8=FIX.4.2|9=61|35=0|34=32|49=BANZAI|52=20160107-06:58:20.307|56=FIXIMULATOR|10=014|
8=FIX.4.2|9=61|35=0|34=33|49=BANZAI|52=20160107-06:58:51.028|56=FIXIMULATOR|10=019|
8=FIX.4.2|9=61|35=0|34=31|49=FIXIMULATOR|52=20160107-06:58:51.037|56=BANZAI|10=017|
8=FIX.4.2|9=156|35=D|34=34|49=BANZAI|52=20160107-06:58:58.406|56=FIXIMULATOR|1=testAccount|11=1452149938385|21=1|38=12|40=1|54=1|55=JD|59=0|60=20160107-06:58:58.403|167=CS|10=150|
8=FIX.4.2|9=61|35=0|34=32|49=FIXIMULATOR|52=20160107-06:59:21.300|56=BANZAI|10=009|
8=FIX.4.2|9=61|35=0|34=35|49=BANZAI|52=20160107-06:59:29.028|56=FIXIMULATOR|10=027|
8=FIX.4.2|9=61|35=0|34=33|49=FIXIMULATOR|52=20160107-06:59:52.300|56=BANZAI|10=014|
8=FIX.4.2|9=61|35=0|34=36|49=BANZAI|52=20160107-07:00:00.026|56=FIXIMULATOR|10=002|
8=FIX.4.2|9=61|35=0|34=34|49=FIXIMULATOR|52=20160107-07:00:22.301|56=BANZAI|10=000|
8=FIX.4.2|9=61|35=0|34=37|49=BANZAI|52=20160107-07:00:30.026|56=FIXIMULATOR|10=006|
8=FIX.4.2|9=61|35=0|34=35|49=FIXIMULATOR|52=20160107-07:00:53.301|56=BANZAI|10=005|
8=FIX.4.2|9=61|35=0|34=38|49=BANZAI|52=20160107-07:01:01.024|56=FIXIMULATOR|10=004|
8=FIX.4.2|9=61|35=0|34=36|49=FIXIMULATOR|52=20160107-07:01:24.301|56=BANZAI|10=005|
8=FIX.4.2|9=61|35=0|34=39|49=BANZAI|52=20160107-07:01:32.023|56=FIXIMULATOR|10=008|
8=FIX.4.2|9=61|35=0|34=37|49=FIXIMULATOR|52=20160107-07:01:54.301|56=BANZAI|10=009|
8=FIX.4.2|9=61|35=0|34=40|49=BANZAI|52=20160107-07:02:03.019|56=FIXIMULATOR|10=004|
8=FIX.4.2|9=61|35=0|34=38|49=FIXIMULATOR|52=20160107-07:02:25.299|56=BANZAI|10=025|
8=FIX.4.2|9=61|35=0|34=41|49=BANZAI|52=20160107-07:02:33.021|56=FIXIMULATOR|10=001|
8=FIX.4.2|9=61|35=0|34=39|49=FIXIMULATOR|52=20160107-07:02:55.300|56=BANZAI|10=012|
8=FIX.4.2|9=61|35=0|34=42|49=BANZAI|52=20160107-07:03:04.021|56=FIXIMULATOR|10=001|
8=FIX.4.2|9=61|35=0|34=40|49=FIXIMULATOR|52=20160107-07:03:25.302|56=BANZAI|10=004|
8=FIX.4.2|9=61|35=0|34=43|49=BANZAI|52=20160107-07:03:35.018|56=FIXIMULATOR|10=012|
8=FIX.4.2|9=61|35=0|34=41|49=FIXIMULATOR|52=20160107-07:03:56.301|56=BANZAI|10=008|
8=FIX.4.2|9=61|35=0|34=44|49=BANZAI|52=20160107-07:04:06.018|56=FIXIMULATOR|10=012|
8=FIX.4.2|9=61|35=0|34=42|49=FIXIMULATOR|52=20160107-07:04:27.302|56=BANZAI|10=009|
8=FIX.4.2|9=61|35=0|34=45|49=BANZAI|52=20160107-07:04:37.017|56=FIXIMULATOR|10=016|
8=FIX.4.2|9=61|35=0|34=43|49=FIXIMULATOR|52=20160107-07:04:58.299|56=BANZAI|10=029|
8=FIX.4.2|9=61|35=0|34=46|49=BANZAI|52=20160107-07:05:08.014|56=FIXIMULATOR|10=013|
8=FIX.4.2|9=61|35=0|34=44|49=FIXIMULATOR|52=20160107-07:05:28.300|56=BANZAI|10=011|
8=FIX.4.2|9=61|35=0|34=47|49=BANZAI|52=20160107-07:05:38.016|56=FIXIMULATOR|10=019|
8=FIX.4.2|9=61|35=0|34=45|49=FIXIMULATOR|52=20160107-07:05:58.301|56=BANZAI|10=016|
8=FIX.4.2|9=61|35=0|34=48|49=BANZAI|52=20160107-07:06:09.012|56=FIXIMULATOR|10=015|
8=FIX.4.2|9=61|35=0|34=46|49=FIXIMULATOR|52=20160107-07:06:29.300|56=BANZAI|10=015|
8=FIX.4.2|9=73|35=A|34=49|49=BANZAI|52=20160107-07:14:27.824|56=FIXIMULATOR|98=0|108=30|10=071|
8=FIX.4.2|9=73|35=A|34=47|49=FIXIMULATOR|52=20160107-07:14:27.851|56=BANZAI|98=0|108=30|10=069|
8=FIX.4.2|9=156|35=D|34=50|49=BANZAI|52=20160107-07:14:49.572|56=FIXIMULATOR|1=testAccount|11=1452150889560|21=1|38=12|40=1|54=1|55=JD|59=0|60=20160107-07:14:49.569|167=CS|10=143|
8=FIX.4.2|9=61|35=0|34=48|49=FIXIMULATOR|52=20160107-07:14:57.892|56=BANZAI|10=033|
8=FIX.4.2|9=61|35=0|34=51|49=BANZAI|52=20160107-07:15:19.809|56=FIXIMULATOR|10=024|
8=FIX.4.2|9=73|35=A|34=52|49=BANZAI|52=20160107-07:31:51.118|56=FIXIMULATOR|98=0|108=30|10=057|
8=FIX.4.2|9=72|35=A|34=1|49=FIXIMULATOR|52=20160107-07:31:51.147|56=BANZAI|98=0|108=30|10=004|
8=FIX.4.2|9=69|35=2|34=2|49=FIXIMULATOR|52=20160107-07:31:51.156|56=BANZAI|7=1|16=0|10=094|
8=FIX.4.2|9=111|35=5|34=53|49=BANZAI|52=20160107-07:31:51.160|56=FIXIMULATOR|58=MsgSeqNum too low, expecting 49 but received 1|10=013|
8=FIX.4.2|9=60|35=5|34=3|49=FIXIMULATOR|52=20160107-07:31:51.165|56=BANZAI|10=222|
8=FIX.4.2|9=73|35=A|34=54|49=BANZAI|52=20160107-07:31:56.105|56=FIXIMULATOR|98=0|108=30|10=060|
8=FIX.4.2|9=72|35=A|34=4|49=FIXIMULATOR|52=20160107-07:31:56.115|56=BANZAI|98=0|108=30|10=007|
8=FIX.4.2|9=69|35=2|34=5|49=FIXIMULATOR|52=20160107-07:31:56.119|56=BANZAI|7=2|16=0|10=102|
8=FIX.4.2|9=111|35=5|34=55|49=BANZAI|52=20160107-07:31:56.118|56=FIXIMULATOR|58=MsgSeqNum too low, expecting 49 but received 4|10=026|
8=FIX.4.2|9=73|35=A|34=56|49=BANZAI|52=20160107-07:32:01.107|56=FIXIMULATOR|98=0|108=30|10=055|
8=FIX.4.2|9=72|35=A|34=6|49=FIXIMULATOR|52=20160107-07:32:01.114|56=BANZAI|98=0|108=30|10=255|
8=FIX.4.2|9=111|35=5|34=57|49=BANZAI|52=20160107-07:32:01.116|56=FIXIMULATOR|58=MsgSeqNum too low, expecting 49 but received 6|10=019|
8=FIX.4.2|9=69|35=2|34=7|49=FIXIMULATOR|52=20160107-07:32:01.117|56=BANZAI|7=2|16=0|10=093|
8=FIX.4.2|9=73|35=A|34=58|49=BANZAI|52=20160107-07:32:06.106|56=FIXIMULATOR|98=0|108=30|10=061|
8=FIX.4.2|9=72|35=A|34=8|49=FIXIMULATOR|52=20160107-07:32:06.113|56=BANZAI|98=0|108=30|10=005|
8=FIX.4.2|9=111|35=5|34=59|49=BANZAI|52=20160107-07:32:06.116|56=FIXIMULATOR|58=MsgSeqNum too low, expecting 49 but received 8|10=028|
8=FIX.4.2|9=69|35=2|34=9|49=FIXIMULATOR|52=20160107-07:32:06.117|56=BANZAI|7=2|16=0|10=100|
8=FIX.4.2|9=73|35=A|34=60|49=BANZAI|52=20160107-07:32:11.105|56=FIXIMULATOR|98=0|108=30|10=049|
8=FIX.4.2|9=73|35=A|34=10|49=FIXIMULATOR|52=20160107-07:32:11.114|56=BANZAI|98=0|108=30|10=044|
8=FIX.4.2|9=112|35=5|34=61|49=BANZAI|52=20160107-07:32:11.116|56=FIXIMULATOR|58=MsgSeqNum too low, expecting 49 but received 10|10=059|
8=FIX.4.2|9=70|35=2|34=11|49=FIXIMULATOR|52=20160107-07:32:11.118|56=BANZAI|7=2|16=0|10=130|
8=FIX.4.2|9=73|35=A|34=62|49=BANZAI|52=20160107-07:32:16.107|56=FIXIMULATOR|98=0|108=30|10=058|
8=FIX.4.2|9=73|35=A|34=12|49=FIXIMULATOR|52=20160107-07:32:16.116|56=BANZAI|98=0|108=30|10=053|
8=FIX.4.2|9=112|35=5|34=63|49=BANZAI|52=20160107-07:32:16.118|56=FIXIMULATOR|58=MsgSeqNum too low, expecting 49 but received 12|10=070|
8=FIX.4.2|9=70|35=2|34=13|49=FIXIMULATOR|52=20160107-07:32:16.119|56=BANZAI|7=2|16=0|10=138|
8=FIX.4.2|9=73|35=A|34=64|49=BANZAI|52=20160107-07:32:21.103|56=FIXIMULATOR|98=0|108=30|10=052|
8=FIX.4.2|9=73|35=A|34=14|49=FIXIMULATOR|52=20160107-07:32:21.111|56=BANZAI|98=0|108=30|10=046|
8=FIX.4.2|9=70|35=2|34=15|49=FIXIMULATOR|52=20160107-07:32:21.114|56=BANZAI|7=2|16=0|10=131|
8=FIX.4.2|9=112|35=5|34=65|49=BANZAI|52=20160107-07:32:21.114|56=FIXIMULATOR|58=MsgSeqNum too low, expecting 49 but received 14|10=066|
8=FIX.4.2|9=61|35=5|34=16|49=FIXIMULATOR|52=20160107-07:32:21.117|56=BANZAI|10=014|
8=FIX.4.2|9=73|35=A|34=66|49=BANZAI|52=20160107-07:32:26.103|56=FIXIMULATOR|98=0|108=30|10=059|
8=FIX.4.2|9=73|35=A|34=17|49=FIXIMULATOR|52=20160107-07:32:26.112|56=BANZAI|98=0|108=30|10=055|
8=FIX.4.2|9=112|35=5|34=67|49=BANZAI|52=20160107-07:32:26.115|56=FIXIMULATOR|58=MsgSeqNum too low, expecting 49 but received 17|10=077|
8=FIX.4.2|9=70|35=2|34=18|49=FIXIMULATOR|52=20160107-07:32:26.116|56=BANZAI|7=3|16=0|10=142|
8=FIX.4.2|9=73|35=A|34=68|49=BANZAI|52=20160107-07:32:31.105|56=FIXIMULATOR|98=0|108=30|10=059|
8=FIX.4.2|9=73|35=A|34=19|49=FIXIMULATOR|52=20160107-07:32:31.113|56=BANZAI|98=0|108=30|10=054|
8=FIX.4.2|9=70|35=2|34=20|49=FIXIMULATOR|52=20160107-07:32:31.117|56=BANZAI|7=3|16=0|10=132|
8=FIX.4.2|9=112|35=5|34=69|49=BANZAI|52=20160107-07:32:31.116|56=FIXIMULATOR|58=MsgSeqNum too low, expecting 49 but received 19|10=078|
8=FIX.4.2|9=73|35=A|34=70|49=BANZAI|52=20160107-07:32:36.103|56=FIXIMULATOR|98=0|108=30|10=055|
8=FIX.4.2|9=73|35=A|34=21|49=FIXIMULATOR|52=20160107-07:32:36.109|56=BANZAI|98=0|108=30|10=057|
8=FIX.4.2|9=112|35=5|34=71|49=BANZAI|52=20160107-07:32:36.112|56=FIXIMULATOR|58=MsgSeqNum too low, expecting 49 but received 21|10=065|
8=FIX.4.2|9=70|35=2|34=22|49=FIXIMULATOR|52=20160107-07:32:36.112|56=BANZAI|7=3|16=0|10=134|
8=FIX.4.2|9=61|35=5|34=23|49=FIXIMULATOR|52=20160107-07:32:36.116|56=BANZAI|10=017|
8=FIX.4.2|9=73|35=A|34=72|49=BANZAI|52=20160107-07:32:41.103|56=FIXIMULATOR|98=0|108=30|10=053|
8=FIX.4.2|9=73|35=A|34=24|49=FIXIMULATOR|52=20160107-07:32:41.112|56=BANZAI|98=0|108=30|10=050|
8=FIX.4.2|9=112|35=5|34=73|49=BANZAI|52=20160107-07:32:41.114|56=FIXIMULATOR|58=MsgSeqNum too low, expecting 49 but received 24|10=068|
8=FIX.4.2|9=70|35=2|34=25|49=FIXIMULATOR|52=20160107-07:32:41.115|56=BANZAI|7=4|16=0|10=137|
8=FIX.4.2|9=61|35=5|34=26|49=FIXIMULATOR|52=20160107-07:32:41.119|56=BANZAI|10=019|
8=FIX.4.2|9=73|35=A|34=74|49=BANZAI|52=20160107-07:32:46.104|56=FIXIMULATOR|98=0|108=30|10=061|
8=FIX.4.2|9=73|35=A|34=27|49=FIXIMULATOR|52=20160107-07:32:46.110|56=BANZAI|98=0|108=30|10=056|
8=FIX.4.2|9=70|35=2|34=28|49=FIXIMULATOR|52=20160107-07:32:46.113|56=BANZAI|7=5|16=0|10=144|
8=FIX.4.2|9=112|35=5|34=75|49=BANZAI|52=20160107-07:32:46.113|56=FIXIMULATOR|58=MsgSeqNum too low, expecting 49 but received 27|10=077|
8=FIX.4.2|9=61|35=5|34=29|49=FIXIMULATOR|52=20160107-07:32:46.117|56=BANZAI|10=025|
8=FIX.4.2|9=73|35=A|34=76|49=BANZAI|52=20160107-07:32:51.103|56=FIXIMULATOR|98=0|108=30|10=058|
8=FIX.4.2|9=73|35=A|34=30|49=FIXIMULATOR|52=20160107-07:32:51.109|56=BANZAI|98=0|108=30|10=054|
8=FIX.4.2|9=112|35=5|34=77|49=BANZAI|52=20160107-07:32:51.111|56=FIXIMULATOR|58=MsgSeqNum too low, expecting 49 but received 30|10=067|
8=FIX.4.2|9=70|35=2|34=31|49=FIXIMULATOR|52=20160107-07:32:51.112|56=BANZAI|7=6|16=0|10=134|
8=FIX.4.2|9=73|35=A|34=78|49=BANZAI|52=20160107-07:32:56.104|56=FIXIMULATOR|98=0|108=30|10=066|
8=FIX.4.2|9=73|35=A|34=32|49=FIXIMULATOR|52=20160107-07:32:56.110|56=BANZAI|98=0|108=30|10=053|
8=FIX.4.2|9=70|35=2|34=33|49=FIXIMULATOR|52=20160107-07:32:56.113|56=BANZAI|7=6|16=0|10=142|
8=FIX.4.2|9=112|35=5|34=79|49=BANZAI|52=20160107-07:32:56.113|56=FIXIMULATOR|58=MsgSeqNum too low, expecting 49 but received 32|10=078|
8=FIX.4.2|9=61|35=5|34=34|49=FIXIMULATOR|52=20160107-07:32:56.116|56=BANZAI|10=021|
8=FIX.4.2|9=73|35=A|34=80|49=BANZAI|52=20160107-07:33:01.105|56=FIXIMULATOR|98=0|108=30|10=051|
8=FIX.4.2|9=73|35=A|34=35|49=FIXIMULATOR|52=20160107-07:33:01.113|56=BANZAI|98=0|108=30|10=050|
8=FIX.4.2|9=112|35=5|34=81|49=BANZAI|52=20160107-07:33:01.116|56=FIXIMULATOR|58=MsgSeqNum too low, expecting 49 but received 35|10=068|
8=FIX.4.2|9=70|35=2|34=36|49=FIXIMULATOR|52=20160107-07:33:01.117|56=BANZAI|7=7|16=0|10=141|
8=FIX.4.2|9=61|35=5|34=37|49=FIXIMULATOR|52=20160107-07:33:01.120|56=BANZAI|10=010|
8=FIX.4.2|9=72|35=A|34=1|49=BANZAI|52=20160107-11:43:02.305|56=FIXIMULATOR|98=0|108=30|10=250|
8=FIX.4.2|9=72|35=A|34=1|49=FIXIMULATOR|52=20160107-11:43:02.338|56=BANZAI|98=0|108=30|10=000|
8=FIX.4.2|9=60|35=0|34=2|49=BANZAI|52=20160107-11:43:33.283|56=FIXIMULATOR|10=215|
8=FIX.4.2|9=60|35=0|34=2|49=FIXIMULATOR|52=20160107-11:43:33.287|56=BANZAI|10=219|
8=FIX.4.2|9=60|35=0|34=3|49=FIXIMULATOR|52=20160107-11:44:03.328|56=BANZAI|10=214|
8=FIX.4.2|9=60|35=0|34=3|49=BANZAI|52=20160107-11:44:03.333|56=FIXIMULATOR|10=210|
8=FIX.4.2|9=60|35=0|34=4|49=BANZAI|52=20160107-11:44:34.279|56=FIXIMULATOR|10=224|
8=FIX.4.2|9=60|35=0|34=4|49=FIXIMULATOR|52=20160107-11:44:34.283|56=BANZAI|10=219|
8=FIX.4.2|9=60|35=0|34=5|49=BANZAI|52=20160107-11:45:04.281|56=FIXIMULATOR|10=216|
8=FIX.4.2|9=60|35=0|34=5|49=FIXIMULATOR|52=20160107-11:45:04.285|56=BANZAI|10=220|
8=FIX.4.2|9=60|35=0|34=6|49=FIXIMULATOR|52=20160107-11:45:34.325|56=BANZAI|10=219|
8=FIX.4.2|9=60|35=0|34=6|49=BANZAI|52=20160107-11:45:34.329|56=FIXIMULATOR|10=223|
8=FIX.4.2|9=72|35=A|34=7|49=BANZAI|52=20160107-11:45:55.350|56=FIXIMULATOR|98=0|108=30|10=010|
8=FIX.4.2|9=72|35=A|34=7|49=FIXIMULATOR|52=20160107-11:45:55.357|56=BANZAI|98=0|108=30|10=017|
8=FIX.4.2|9=72|35=A|34=1|49=BANZAI|52=20160108-03:25:19.797|56=FIXIMULATOR|98=0|108=30|10=019|
8=FIX.4.2|9=72|35=A|34=1|49=FIXIMULATOR|52=20160108-03:25:19.828|56=BANZAI|98=0|108=30|10=014|
8=FIX.4.2|9=141|35=D|34=2|49=BANZAI|52=20160108-03:25:35.717|56=FIXIMULATOR|11=1452223535704|21=1|38=12|40=1|54=1|55=JD|59=0|60=20160108-03:25:35.713|167=CS|10=059|
8=FIX.4.2|9=60|35=0|34=2|49=FIXIMULATOR|52=20160108-03:25:50.712|56=BANZAI|10=213|
8=FIX.4.2|9=172|35=8|34=3|49=FIXIMULATOR|52=20160108-03:25:54.552|56=BANZAI|6=0|11=1452223535704|14=0|17=E1452223554541|20=0|31=0|32=0|37=O1452223535748|38=12|39=0|54=1|55=JD|150=0|151=12|10=143|
8=FIX.4.2|9=60|35=0|34=3|49=BANZAI|52=20160108-03:26:05.787|56=FIXIMULATOR|10=227|
8=FIX.4.2|9=174|35=8|34=4|49=FIXIMULATOR|52=20160108-03:26:17.041|56=BANZAI|6=12|11=1452223535704|14=2|17=E1452223564861|20=0|31=12|32=2|37=O1452223535748|38=12|39=1|54=1|55=JD|150=1|151=10|10=251|
8=FIX.4.2|9=175|35=8|34=5|49=FIXIMULATOR|52=20160108-03:26:24.540|56=BANZAI|6=12.5|11=1452223535704|14=4|17=E1452223579564|20=0|31=13|32=2|37=O1452223535748|38=12|39=1|54=1|55=JD|150=1|151=8|10=066|
8=FIX.4.2|9=60|35=0|34=4|49=BANZAI|52=20160108-03:26:36.784|56=FIXIMULATOR|10=229|
8=FIX.4.2|9=60|35=0|34=6|49=FIXIMULATOR|52=20160108-03:26:54.713|56=BANZAI|10=223|
8=FIX.4.2|9=60|35=0|34=5|49=BANZAI|52=20160108-03:27:07.784|56=FIXIMULATOR|10=229|
8=FIX.4.2|9=60|35=0|34=7|49=FIXIMULATOR|52=20160108-03:27:24.714|56=BANZAI|10=223|
8=FIX.4.2|9=60|35=0|34=6|49=BANZAI|52=20160108-03:27:38.783|56=FIXIMULATOR|10=233|
8=FIX.4.2|9=60|35=0|34=8|49=FIXIMULATOR|52=20160108-03:27:54.714|56=BANZAI|10=227|
8=FIX.4.2|9=60|35=0|34=7|49=BANZAI|52=20160108-03:28:09.779|56=FIXIMULATOR|10=238|
8=FIX.4.2|9=60|35=0|34=9|49=FIXIMULATOR|52=20160108-03:28:25.712|56=BANZAI|10=225|
8=FIX.4.2|9=60|35=0|34=8|49=BANZAI|52=20160108-03:28:39.781|56=FIXIMULATOR|10=235|
8=FIX.4.2|9=61|35=0|34=10|49=FIXIMULATOR|52=20160108-03:28:56.711|56=BANZAI|10=013|
8=FIX.4.2|9=60|35=0|34=9|49=BANZAI|52=20160108-03:29:10.780|56=FIXIMULATOR|10=225|
8=FIX.4.2|9=61|35=0|34=11|49=FIXIMULATOR|52=20160108-03:29:27.709|56=BANZAI|10=020|
8=FIX.4.2|9=61|35=0|34=10|49=BANZAI|52=20160108-03:29:41.780|56=FIXIMULATOR|10=014|
8=FIX.4.2|9=61|35=0|34=12|49=FIXIMULATOR|52=20160108-03:29:57.711|56=BANZAI|10=017|
8=FIX.4.2|9=61|35=0|34=11|49=BANZAI|52=20160108-03:30:12.774|56=FIXIMULATOR|10=008|
8=FIX.4.2|9=61|35=0|34=13|49=FIXIMULATOR|52=20160108-03:30:28.714|56=BANZAI|10=011|
8=FIX.4.2|9=61|35=0|34=12|49=BANZAI|52=20160108-03:30:42.776|56=FIXIMULATOR|10=014|
8=FIX.4.2|9=61|35=0|34=14|49=FIXIMULATOR|52=20160108-03:30:59.710|56=BANZAI|10=012|
8=FIX.4.2|9=61|35=0|34=13|49=BANZAI|52=20160108-03:31:13.775|56=FIXIMULATOR|10=013|
8=FIX.4.2|9=61|35=0|34=15|49=FIXIMULATOR|52=20160108-03:31:29.711|56=BANZAI|10=012|
8=FIX.4.2|9=72|35=A|34=1|49=BANZAI|52=20160119-01:48:20.689|56=FIXIMULATOR|98=0|108=30|10=016|
8=FIX.4.2|9=72|35=A|34=1|49=FIXIMULATOR|52=20160119-01:48:20.725|56=BANZAI|98=0|108=30|10=007|
8=FIX.4.2|9=60|35=0|34=2|49=FIXIMULATOR|52=20160119-01:48:51.349|56=BANZAI|10=225|
8=FIX.4.2|9=60|35=0|34=2|49=BANZAI|52=20160119-01:48:51.355|56=FIXIMULATOR|10=222|
8=FIX.4.2|9=60|35=0|34=3|49=BANZAI|52=20160119-01:49:21.672|56=FIXIMULATOR|10=223|
8=FIX.4.2|9=60|35=0|34=3|49=FIXIMULATOR|52=20160119-01:49:21.677|56=BANZAI|10=228|
8=FIX.4.2|9=60|35=0|34=4|49=BANZAI|52=20160119-01:49:51.672|56=FIXIMULATOR|10=227|
8=FIX.4.2|9=60|35=0|34=4|49=FIXIMULATOR|52=20160119-01:49:51.680|56=BANZAI|10=226|
8=FIX.4.2|9=72|35=A|34=5|49=BANZAI|52=20160119-01:50:08.539|56=FIXIMULATOR|98=0|108=30|10=013|
8=FIX.4.2|9=72|35=A|34=5|49=FIXIMULATOR|52=20160119-01:50:08.552|56=BANZAI|98=0|108=30|10=008|
8=FIX.4.2|9=60|35=0|34=6|49=FIXIMULATOR|52=20160119-01:50:39.344|56=BANZAI|10=223|
8=FIX.4.2|9=60|35=0|34=6|49=BANZAI|52=20160119-01:50:39.352|56=FIXIMULATOR|10=222|
8=FIX.4.2|9=60|35=0|34=7|49=FIXIMULATOR|52=20160119-01:51:09.344|56=BANZAI|10=222|
8=FIX.4.2|9=60|35=0|34=7|49=BANZAI|52=20160119-01:51:09.528|56=FIXIMULATOR|10=226|
8=FIX.4.2|9=60|35=0|34=8|49=FIXIMULATOR|52=20160119-01:51:40.341|56=BANZAI|10=215|
8=FIX.4.2|9=60|35=0|34=8|49=BANZAI|52=20160119-01:51:40.351|56=FIXIMULATOR|10=216|
8=FIX.4.2|9=72|35=A|34=9|49=BANZAI|52=20160119-01:52:09.425|56=FIXIMULATOR|98=0|108=30|10=014|
8=FIX.4.2|9=72|35=A|34=9|49=FIXIMULATOR|52=20160119-01:52:09.437|56=BANZAI|98=0|108=30|10=017|
8=FIX.4.2|9=61|35=0|34=10|49=FIXIMULATOR|52=20160119-01:52:40.340|56=BANZAI|10=001|
8=FIX.4.2|9=61|35=0|34=10|49=BANZAI|52=20160119-01:52:40.349|56=FIXIMULATOR|10=010|
8=FIX.4.2|9=61|35=0|34=11|49=FIXIMULATOR|52=20160119-01:53:10.340|56=BANZAI|10=000|
8=FIX.4.2|9=61|35=0|34=11|49=BANZAI|52=20160119-01:53:10.412|56=FIXIMULATOR|10=000|
8=FIX.4.2|9=61|35=0|34=12|49=FIXIMULATOR|52=20160119-01:53:41.339|56=BANZAI|10=013|
8=FIX.4.2|9=61|35=0|34=12|49=BANZAI|52=20160119-01:53:41.347|56=FIXIMULATOR|10=012|
8=FIX.4.2|9=61|35=0|34=13|49=BANZAI|52=20160119-01:54:11.413|56=FIXIMULATOR|10=005|
8=FIX.4.2|9=61|35=0|34=13|49=FIXIMULATOR|52=20160119-01:54:11.418|56=BANZAI|10=010|
8=FIX.4.2|9=61|35=0|34=14|49=FIXIMULATOR|52=20160119-01:54:42.336|56=BANZAI|10=014|
8=FIX.4.2|9=61|35=0|34=14|49=BANZAI|52=20160119-01:54:42.343|56=FIXIMULATOR|10=012|
8=FIX.4.2|9=61|35=0|34=15|49=FIXIMULATOR|52=20160119-01:55:12.336|56=BANZAI|10=013|
8=FIX.4.2|9=61|35=0|34=15|49=BANZAI|52=20160119-01:55:12.343|56=FIXIMULATOR|10=011|
8=FIX.4.2|9=73|35=A|34=16|49=BANZAI|52=20160119-01:55:36.589|56=FIXIMULATOR|98=0|108=30|10=075|
8=FIX.4.2|9=73|35=A|34=16|49=FIXIMULATOR|52=20160119-01:55:36.603|56=BANZAI|98=0|108=30|10=062|
8=FIX.4.2|9=167|35=D|34=17|49=BANZAI|52=20160119-01:55:53.655|56=FIXIMULATOR|1=TIGR|11=1453168553644|21=1|38=12|40=1|54=1|55=JD|59=0|60=20160119-01:55:53.654|100=ARCA|109=TIGR|167=CS|10=041|
8=FIX.4.2|9=61|35=0|34=17|49=FIXIMULATOR|52=20160119-01:56:07.332|56=BANZAI|10=016|
8=FIX.4.2|9=61|35=0|34=18|49=BANZAI|52=20160119-01:56:24.581|56=FIXIMULATOR|10=022|
8=FIX.4.2|9=61|35=0|34=18|49=FIXIMULATOR|52=20160119-01:56:37.334|56=BANZAI|10=022|
8=FIX.4.2|9=173|35=8|34=19|49=FIXIMULATOR|52=20160119-01:56:53.294|56=BANZAI|6=0|11=1453168553644|14=0|17=E1453168613285|20=0|31=0|32=0|37=O1453168553685|38=12|39=0|54=1|55=JD|150=0|151=12|10=236|
8=FIX.4.2|9=61|35=0|34=19|49=BANZAI|52=20160119-01:56:55.577|56=FIXIMULATOR|10=032|
8=FIX.4.2|9=175|35=8|34=20|49=FIXIMULATOR|52=20160119-01:57:04.346|56=BANZAI|6=12|11=1453168553644|14=1|17=E1453168617145|20=0|31=12|32=1|37=O1453168553685|38=12|39=1|54=1|55=JD|150=1|151=11|10=073|
8=FIX.4.2|9=174|35=8|34=21|49=FIXIMULATOR|52=20160119-01:57:14.262|56=BANZAI|6=12|11=1453168553644|14=3|17=E1453168629166|20=0|31=12|32=2|37=O1453168553685|38=12|39=1|54=1|55=JD|150=1|151=9|10=039|
8=FIX.4.2|9=61|35=0|34=20|49=BANZAI|52=20160119-01:57:25.577|56=FIXIMULATOR|10=022|
8=FIX.4.2|9=61|35=0|34=22|49=FIXIMULATOR|52=20160119-01:57:44.330|56=BANZAI|10=012|
8=FIX.4.2|9=61|35=0|34=21|49=BANZAI|52=20160119-01:57:55.578|56=FIXIMULATOR|10=027|
8=FIX.4.2|9=61|35=0|34=23|49=FIXIMULATOR|52=20160119-01:58:15.331|56=BANZAI|10=013|
8=FIX.4.2|9=174|35=8|34=24|49=FIXIMULATOR|52=20160119-01:58:21.757|56=BANZAI|6=12|11=1453168553644|14=4|17=E1453168696882|20=0|31=12|32=1|37=O1453168553685|38=12|39=1|54=1|55=JD|150=1|151=8|10=058|
8=FIX.4.2|9=61|35=0|34=22|49=BANZAI|52=20160119-01:58:26.572|56=FIXIMULATOR|10=021|
8=FIX.4.2|9=174|35=8|34=25|49=FIXIMULATOR|52=20160119-01:58:28.414|56=BANZAI|6=12|11=1453168553644|14=5|17=E1453168703562|20=0|31=12|32=1|37=O1453168553685|38=12|39=1|54=1|55=JD|150=1|151=7|10=040|
8=FIX.4.2|9=174|35=8|34=26|49=FIXIMULATOR|52=20160119-01:58:38.378|56=BANZAI|6=12|11=1453168553644|14=6|17=E1453168713572|20=0|31=12|32=1|37=O1453168553685|38=12|39=1|54=1|55=JD|150=1|151=6|10=053|
8=FIX.4.2|9=174|35=8|34=27|49=FIXIMULATOR|52=20160119-01:58:44.750|56=BANZAI|6=12|11=1453168553644|14=7|17=E1453168720726|20=0|31=12|32=1|37=O1453168553685|38=12|39=1|54=1|55=JD|150=1|151=5|10=044|
8=FIX.4.2|9=61|35=0|34=23|49=BANZAI|52=20160119-01:58:56.576|56=FIXIMULATOR|10=029|
8=FIX.4.2|9=61|35=0|34=28|49=FIXIMULATOR|52=20160119-01:59:15.328|56=BANZAI|10=025|
8=FIX.4.2|9=73|35=A|34=24|49=BANZAI|52=20160119-01:59:30.998|56=FIXIMULATOR|98=0|108=30|10=076|
8=FIX.4.2|9=73|35=A|34=29|49=FIXIMULATOR|52=20160119-01:59:31.010|56=BANZAI|98=0|108=30|10=057|
8=FIX.4.2|9=61|35=0|34=30|49=FIXIMULATOR|52=20160119-02:00:01.324|56=BANZAI|10=252|
8=FIX.4.2|9=61|35=0|34=25|49=BANZAI|52=20160119-02:00:01.334|56=FIXIMULATOR|10=001|
8=FIX.4.2|9=73|35=A|34=26|49=BANZAI|52=20160119-02:01:01.714|56=FIXIMULATOR|98=0|108=30|10=050|
8=FIX.4.2|9=73|35=A|34=31|49=FIXIMULATOR|52=20160119-02:01:01.741|56=BANZAI|98=0|108=30|10=046|
8=FIX.4.2|9=167|35=D|34=27|49=BANZAI|52=20160119-02:01:31.892|56=FIXIMULATOR|1=TIGR|11=1453168891882|21=1|38=12|40=1|54=1|55=JD|59=0|60=20160119-02:01:31.891|100=ARCA|109=TIGR|167=CS|10=033|
8=FIX.4.2|9=61|35=0|34=32|49=FIXIMULATOR|52=20160119-02:01:31.913|56=BANZAI|10=006|
8=FIX.4.2|9=173|35=8|34=33|49=FIXIMULATOR|52=20160119-02:01:42.361|56=BANZAI|6=0|11=1453168891882|14=0|17=E1453168902356|20=0|31=0|32=0|37=O1453168891913|38=12|39=0|54=1|55=JD|150=0|151=12|10=224|
8=FIX.4.2|9=175|35=8|34=34|49=FIXIMULATOR|52=20160119-02:01:51.825|56=BANZAI|6=12|11=1453168891882|14=1|17=E1453168904597|20=0|31=12|32=1|37=O1453168891913|38=12|39=1|54=1|55=JD|150=1|151=11|10=090|
8=FIX.4.2|9=61|35=0|34=28|49=BANZAI|52=20160119-02:02:02.705|56=FIXIMULATOR|10=009|
8=FIX.4.2|9=61|35=0|34=35|49=FIXIMULATOR|52=20160119-02:02:22.517|56=BANZAI|10=010|
8=FIX.4.2|9=73|35=A|34=29|49=BANZAI|52=20160119-02:02:52.249|56=FIXIMULATOR|98=0|108=30|10=063|
8=FIX.4.2|9=73|35=A|34=36|49=FIXIMULATOR|52=20160119-02:02:52.267|56=BANZAI|98=0|108=30|10=061|
8=FIX.4.2|9=175|35=8|34=37|49=FIXIMULATOR|52=20160119-02:03:07.511|56=BANZAI|6=12|11=1453168891882|14=2|17=E1453168982321|20=0|31=12|32=1|37=O1453168891913|38=12|39=1|54=1|55=JD|150=1|151=10|10=079|
8=FIX.4.2|9=61|35=0|34=30|49=BANZAI|52=20160119-02:03:23.235|56=FIXIMULATOR|10=004|
8=FIX.4.2|9=61|35=0|34=38|49=FIXIMULATOR|52=20160119-02:03:37.515|56=BANZAI|10=018|
8=FIX.4.2|9=61|35=0|34=31|49=BANZAI|52=20160119-02:03:54.232|56=FIXIMULATOR|10=006|
8=FIX.4.2|9=61|35=0|34=39|49=FIXIMULATOR|52=20160119-02:04:08.513|56=BANZAI|10=016|
8=FIX.4.2|9=61|35=0|34=32|49=BANZAI|52=20160119-02:04:25.229|56=FIXIMULATOR|10=012|
8=FIX.4.2|9=61|35=0|34=40|49=FIXIMULATOR|52=20160119-02:04:39.513|56=BANZAI|10=012|
8=FIX.4.2|9=61|35=0|34=33|49=BANZAI|52=20160119-02:04:55.230|56=FIXIMULATOR|10=008|
8=FIX.4.2|9=61|35=0|34=41|49=FIXIMULATOR|52=20160119-02:05:10.512|56=BANZAI|10=002|
8=FIX.4.2|9=61|35=0|34=34|49=BANZAI|52=20160119-02:05:25.230|56=FIXIMULATOR|10=007|
8=FIX.4.2|9=61|35=0|34=42|49=FIXIMULATOR|52=20160119-02:05:41.511|56=BANZAI|10=006|
8=FIX.4.2|9=72|35=A|34=1|49=BANZAI|52=20160216-08:39:36.326|56=FIXIMULATOR|98=0|108=30|10=016|
8=FIX.4.2|9=72|35=A|34=1|49=FIXIMULATOR|52=20160216-08:39:36.365|56=BANZAI|98=0|108=30|10=019|
8=FIX.4.2|9=60|35=0|34=2|49=FIXIMULATOR|52=20160216-08:40:06.579|56=BANZAI|10=227|
8=FIX.4.2|9=60|35=0|34=2|49=BANZAI|52=20160216-08:40:06.585|56=FIXIMULATOR|10=224|
8=FIX.4.2|9=60|35=0|34=3|49=FIXIMULATOR|52=20160216-08:40:36.581|56=BANZAI|10=224|
8=FIX.4.2|9=60|35=0|34=3|49=BANZAI|52=20160216-08:40:36.587|56=FIXIMULATOR|10=230|
8=FIX.4.2|9=60|35=0|34=4|49=BANZAI|52=20160216-08:41:07.306|56=FIXIMULATOR|10=219|
8=FIX.4.2|9=60|35=0|34=4|49=FIXIMULATOR|52=20160216-08:41:07.309|56=BANZAI|10=222|
8=FIX.4.2|9=72|35=A|34=5|49=BANZAI|52=20160216-08:41:45.634|56=FIXIMULATOR|98=0|108=30|10=015|
8=FIX.4.2|9=72|35=A|34=5|49=FIXIMULATOR|52=20160216-08:41:45.647|56=BANZAI|98=0|108=30|10=019|
8=FIX.4.2|9=60|35=0|34=6|49=BANZAI|52=20160216-08:42:15.627|56=FIXIMULATOR|10=227|
8=FIX.4.2|9=60|35=0|34=6|49=FIXIMULATOR|52=20160216-08:42:16.582|56=BANZAI|10=228|
8=FIX.4.2|9=60|35=0|34=7|49=BANZAI|52=20160216-08:42:45.627|56=FIXIMULATOR|10=231|
8=FIX.4.2|9=60|35=0|34=7|49=FIXIMULATOR|52=20160216-08:42:47.580|56=BANZAI|10=231|
8=FIX.4.2|9=60|35=0|34=8|49=BANZAI|52=20160216-08:43:15.627|56=FIXIMULATOR|10=230|
8=FIX.4.2|9=60|35=0|34=8|49=FIXIMULATOR|52=20160216-08:43:17.582|56=BANZAI|10=232|
8=FIX.4.2|9=60|35=0|34=9|49=BANZAI|52=20160216-08:43:45.626|56=FIXIMULATOR|10=233|
8=FIX.4.2|9=60|35=0|34=9|49=FIXIMULATOR|52=20160216-08:43:48.581|56=BANZAI|10=236|
8=FIX.4.2|9=61|35=0|34=10|49=BANZAI|52=20160216-08:44:15.624|56=FIXIMULATOR|10=014|
8=FIX.4.2|9=61|35=0|34=10|49=FIXIMULATOR|52=20160216-08:44:19.581|56=BANZAI|10=020|
8=FIX.4.2|9=73|35=A|34=12|49=BANZAI|52=20160216-08:44:32.809|56=FIXIMULATOR|98=0|108=30|10=065|
8=FIX.4.2|9=73|35=A|34=11|49=FIXIMULATOR|52=20160216-08:44:32.822|56=BANZAI|98=0|108=30|10=059|
8=FIX.4.2|9=71|35=2|34=12|49=FIXIMULATOR|52=20160216-08:44:32.826|56=BANZAI|7=11|16=0|10=194|
8=FIX.4.2|9=195|35=D|34=11|43=Y|49=BANZAI|52=20160216-08:44:32.831|56=FIXIMULATOR|122=20160216-08:44:31.835|1=TIGR|11=1455612271804|21=1|38=10|40=1|54=1|55=NTES|60=20160216-08:44:31.829|100=ARCA|109=TIGR|167=CS|10=238|
8=FIX.4.2|9=104|35=4|34=12|43=Y|49=BANZAI|52=20160216-08:44:32.832|56=FIXIMULATOR|122=20160216-08:44:32.832|36=13|123=Y|10=126|
8=FIX.4.2|9=61|35=0|34=13|49=FIXIMULATOR|52=20160216-08:45:03.581|56=BANZAI|10=017|
8=FIX.4.2|9=61|35=0|34=13|49=BANZAI|52=20160216-08:45:03.588|56=FIXIMULATOR|10=024|
8=FIX.4.2|9=61|35=0|34=14|49=BANZAI|52=20160216-08:45:33.805|56=FIXIMULATOR|10=020|
8=FIX.4.2|9=61|35=0|34=14|49=FIXIMULATOR|52=20160216-08:45:33.809|56=BANZAI|10=024|
8=FIX.4.2|9=61|35=0|34=15|49=BANZAI|52=20160216-08:46:03.804|56=FIXIMULATOR|10=018|
8=FIX.4.2|9=61|35=0|34=15|49=FIXIMULATOR|52=20160216-08:46:04.581|56=BANZAI|10=021|
8=FIX.4.2|9=61|35=0|34=16|49=BANZAI|52=20160216-08:46:33.801|56=FIXIMULATOR|10=019|
8=FIX.4.2|9=61|35=0|34=16|49=FIXIMULATOR|52=20160216-08:46:35.581|56=BANZAI|10=026|
8=FIX.4.2|9=61|35=0|34=17|49=BANZAI|52=20160216-08:47:03.801|56=FIXIMULATOR|10=018|
8=FIX.4.2|9=61|35=0|34=17|49=FIXIMULATOR|52=20160216-08:47:06.582|56=BANZAI|10=027|
8=FIX.4.2|9=61|35=0|34=18|49=BANZAI|52=20160216-08:47:33.800|56=FIXIMULATOR|10=021|
8=FIX.4.2|9=61|35=0|34=18|49=FIXIMULATOR|52=20160216-08:47:36.582|56=BANZAI|10=031|
8=FIX.4.2|9=61|35=0|34=19|49=BANZAI|52=20160216-08:48:03.797|56=FIXIMULATOR|10=035|
8=FIX.4.2|9=61|35=0|34=19|49=FIXIMULATOR|52=20160216-08:48:07.580|56=BANZAI|10=029|
8=FIX.4.2|9=61|35=0|34=20|49=BANZAI|52=20160216-08:48:33.797|56=FIXIMULATOR|10=030|
8=FIX.4.2|9=61|35=0|34=20|49=FIXIMULATOR|52=20160216-08:48:37.580|56=BANZAI|10=024|
8=FIX.4.2|9=61|35=0|34=21|49=BANZAI|52=20160216-08:49:03.797|56=FIXIMULATOR|10=029|
8=FIX.4.2|9=61|35=0|34=21|49=FIXIMULATOR|52=20160216-08:49:07.582|56=BANZAI|10=025|
8=FIX.4.2|9=61|35=0|34=22|49=BANZAI|52=20160216-08:49:33.794|56=FIXIMULATOR|10=030|
8=FIX.4.2|9=61|35=0|34=22|49=FIXIMULATOR|52=20160216-08:49:38.581|56=BANZAI|10=029|
8=FIX.4.2|9=73|35=A|34=24|49=BANZAI|52=20160216-08:49:58.252|56=FIXIMULATOR|98=0|108=30|10=073|
8=FIX.4.2|9=73|35=A|34=23|49=FIXIMULATOR|52=20160216-08:49:58.265|56=BANZAI|98=0|108=30|10=076|
8=FIX.4.2|9=71|35=2|34=24|49=FIXIMULATOR|52=20160216-08:49:58.268|56=BANZAI|7=23|16=0|10=213|
8=FIX.4.2|9=195|35=D|34=23|43=Y|49=BANZAI|52=20160216-08:49:58.275|56=FIXIMULATOR|122=20160216-08:49:57.277|1=TIGR|11=1455612597245|21=1|38=10|40=1|54=1|55=NTES|60=20160216-08:49:57.272|100=ARCA|109=TIGR|167=CS|10=028|
8=FIX.4.2|9=104|35=4|34=24|43=Y|49=BANZAI|52=20160216-08:49:58.276|56=FIXIMULATOR|122=20160216-08:49:58.276|36=25|123=Y|10=162|
8=FIX.4.2|9=175|35=8|34=25|49=FIXIMULATOR|52=20160216-08:50:05.241|56=BANZAI|6=0|11=1455612597245|14=0|17=E1455612605233|20=0|31=0|32=0|37=O1455612598282|38=10|39=0|54=1|55=NTES|150=0|151=10|10=124|
8=FIX.4.2|9=61|35=0|34=25|49=BANZAI|52=20160216-08:50:29.248|56=FIXIMULATOR|10=024|
8=FIX.4.2|9=178|35=8|34=26|49=FIXIMULATOR|52=20160216-08:50:31.470|56=BANZAI|6=12|11=1455612597245|14=12|17=E1455612624833|20=0|31=12|32=12|37=O1455612598282|38=10|39=2|54=1|55=NTES|150=2|151=0|10=041|
8=FIX.4.2|9=61|35=0|34=26|49=BANZAI|52=20160216-08:50:59.246|56=FIXIMULATOR|10=026|
8=FIX.4.2|9=61|35=0|34=27|49=FIXIMULATOR|52=20160216-08:51:01.582|56=BANZAI|10=018|
8=FIX.4.2|9=61|35=0|34=27|49=BANZAI|52=20160216-08:51:29.244|56=FIXIMULATOR|10=023|
8=FIX.4.2|9=61|35=0|34=28|49=FIXIMULATOR|52=20160216-08:51:32.581|56=BANZAI|10=022|
8=FIX.4.2|9=61|35=0|34=28|49=BANZAI|52=20160216-08:51:59.243|56=FIXIMULATOR|10=026|
8=FIX.4.2|9=61|35=0|34=29|49=FIXIMULATOR|52=20160216-08:52:02.581|56=BANZAI|10=021|
8=FIX.4.2|9=61|35=0|34=29|49=BANZAI|52=20160216-08:52:29.239|56=FIXIMULATOR|10=030|
8=FIX.4.2|9=61|35=0|34=30|49=FIXIMULATOR|52=20160216-08:52:32.581|56=BANZAI|10=016|
8=FIX.4.2|9=61|35=0|34=30|49=BANZAI|52=20160216-08:52:59.242|56=FIXIMULATOR|10=019|
8=FIX.4.2|9=61|35=0|34=31|49=FIXIMULATOR|52=20160216-08:53:02.581|56=BANZAI|10=015|
8=FIX.4.2|9=61|35=0|34=31|49=BANZAI|52=20160216-08:53:29.241|56=FIXIMULATOR|10=017|
8=FIX.4.2|9=61|35=0|34=32|49=FIXIMULATOR|52=20160216-08:53:33.581|56=BANZAI|10=020|
8=FIX.4.2|9=61|35=0|34=32|49=BANZAI|52=20160216-08:53:59.235|56=FIXIMULATOR|10=024|
8=FIX.4.2|9=61|35=0|34=33|49=FIXIMULATOR|52=20160216-08:54:04.579|56=BANZAI|10=027|
8=FIX.4.2|9=61|35=0|34=33|49=BANZAI|52=20160216-08:54:29.237|56=FIXIMULATOR|10=025|
8=FIX.4.2|9=61|35=0|34=34|49=FIXIMULATOR|52=20160216-08:54:34.578|56=BANZAI|10=030|
8=FIX.4.2|9=61|35=0|34=34|49=BANZAI|52=20160216-08:54:59.235|56=FIXIMULATOR|10=027|
8=FIX.4.2|9=61|35=0|34=35|49=FIXIMULATOR|52=20160216-08:55:04.581|56=BANZAI|10=023|
8=FIX.4.2|9=61|35=0|34=35|49=BANZAI|52=20160216-08:55:29.237|56=FIXIMULATOR|10=028|
8=FIX.4.2|9=61|35=0|34=36|49=FIXIMULATOR|52=20160216-08:55:34.582|56=BANZAI|10=028|
8=FIX.4.2|9=61|35=0|34=36|49=BANZAI|52=20160216-08:55:59.234|56=FIXIMULATOR|10=029|
8=FIX.4.2|9=61|35=0|34=37|49=FIXIMULATOR|52=20160216-08:56:05.581|56=BANZAI|10=027|
8=FIX.4.2|9=61|35=0|34=37|49=BANZAI|52=20160216-08:56:29.232|56=FIXIMULATOR|10=026|
8=FIX.4.2|9=61|35=0|34=38|49=FIXIMULATOR|52=20160216-08:56:36.579|56=BANZAI|10=039|
8=FIX.4.2|9=61|35=0|34=38|49=BANZAI|52=20160216-08:56:59.230|56=FIXIMULATOR|10=028|
8=FIX.4.2|9=61|35=0|34=39|49=FIXIMULATOR|52=20160216-08:57:06.582|56=BANZAI|10=032|
8=FIX.4.2|9=61|35=0|34=39|49=BANZAI|52=20160216-08:57:29.232|56=FIXIMULATOR|10=029|
8=FIX.4.2|9=61|35=0|34=40|49=FIXIMULATOR|52=20160216-08:57:37.578|56=BANZAI|10=033|
8=FIX.4.2|9=61|35=0|34=40|49=BANZAI|52=20160216-08:57:59.230|56=FIXIMULATOR|10=022|
8=FIX.4.2|9=61|35=0|34=41|49=FIXIMULATOR|52=20160216-08:58:07.581|56=BANZAI|10=026|
8=FIX.4.2|9=61|35=0|34=41|49=BANZAI|52=20160216-08:58:29.228|56=FIXIMULATOR|10=028|
8=FIX.4.2|9=61|35=0|34=42|49=FIXIMULATOR|52=20160216-08:58:37.582|56=BANZAI|10=031|
8=FIX.4.2|9=61|35=0|34=42|49=BANZAI|52=20160216-08:58:59.227|56=FIXIMULATOR|10=031|
8=FIX.4.2|9=61|35=0|34=43|49=FIXIMULATOR|52=20160216-08:59:07.582|56=BANZAI|10=030|
8=FIX.4.2|9=61|35=0|34=43|49=BANZAI|52=20160216-08:59:29.225|56=FIXIMULATOR|10=028|
8=FIX.4.2|9=61|35=0|34=44|49=FIXIMULATOR|52=20160216-08:59:38.580|56=BANZAI|10=033|
8=FIX.4.2|9=61|35=0|34=44|49=BANZAI|52=20160216-08:59:59.224|56=FIXIMULATOR|10=031|
8=FIX.4.2|9=61|35=0|34=45|49=FIXIMULATOR|52=20160216-09:00:09.582|56=BANZAI|10=021|
8=FIX.4.2|9=61|35=0|34=45|49=BANZAI|52=20160216-09:00:29.221|56=FIXIMULATOR|10=013|
8=FIX.4.2|9=61|35=0|34=46|49=FIXIMULATOR|52=20160216-09:00:40.582|56=BANZAI|10=017|
8=FIX.4.2|9=61|35=0|34=46|49=BANZAI|52=20160216-09:00:59.222|56=FIXIMULATOR|10=018|
8=FIX.4.2|9=61|35=0|34=47|49=FIXIMULATOR|52=20160216-09:01:11.579|56=BANZAI|10=023|
8=FIX.4.2|9=61|35=0|34=47|49=BANZAI|52=20160216-09:01:29.223|56=FIXIMULATOR|10=018|
8=FIX.4.2|9=61|35=0|34=48|49=FIXIMULATOR|52=20160216-09:01:41.579|56=BANZAI|10=027|
8=FIX.4.2|9=61|35=0|34=48|49=BANZAI|52=20160216-09:01:59.220|56=FIXIMULATOR|10=019|
8=FIX.4.2|9=61|35=0|34=49|49=FIXIMULATOR|52=20160216-09:02:12.580|56=BANZAI|10=019|
8=FIX.4.2|9=61|35=0|34=49|49=BANZAI|52=20160216-09:02:29.217|56=FIXIMULATOR|10=024|
8=FIX.4.2|9=61|35=0|34=50|49=FIXIMULATOR|52=20160216-09:02:42.580|56=BANZAI|10=014|
8=FIX.4.2|9=61|35=0|34=50|49=BANZAI|52=20160216-09:02:59.218|56=FIXIMULATOR|10=020|
8=FIX.4.2|9=61|35=0|34=51|49=FIXIMULATOR|52=20160216-09:03:12.581|56=BANZAI|10=014|
8=FIX.4.2|9=61|35=0|34=51|49=BANZAI|52=20160216-09:03:29.218|56=FIXIMULATOR|10=019|
8=FIX.4.2|9=61|35=0|34=52|49=FIXIMULATOR|52=20160216-09:03:42.581|56=BANZAI|10=018|
8=FIX.4.2|9=61|35=0|34=52|49=BANZAI|52=20160216-09:03:59.217|56=FIXIMULATOR|10=022|
8=FIX.4.2|9=61|35=0|34=53|49=FIXIMULATOR|52=20160216-09:04:13.581|56=BANZAI|10=018|
8=FIX.4.2|9=61|35=0|34=53|49=BANZAI|52=20160216-09:04:29.216|56=FIXIMULATOR|10=020|
8=FIX.4.2|9=61|35=0|34=54|49=FIXIMULATOR|52=20160216-09:04:44.578|56=BANZAI|10=029|
8=FIX.4.2|9=61|35=0|34=54|49=BANZAI|52=20160216-09:04:59.214|56=FIXIMULATOR|10=022|
8=FIX.4.2|9=61|35=0|34=55|49=FIXIMULATOR|52=20160216-09:05:14.580|56=BANZAI|10=021|
8=FIX.4.2|9=61|35=0|34=55|49=BANZAI|52=20160216-09:05:29.215|56=FIXIMULATOR|10=022|
8=FIX.4.2|9=61|35=0|34=56|49=FIXIMULATOR|52=20160216-09:05:44.582|56=BANZAI|10=027|
8=FIX.4.2|9=61|35=0|34=56|49=BANZAI|52=20160216-09:05:59.212|56=FIXIMULATOR|10=023|
8=FIX.4.2|9=61|35=0|34=57|49=FIXIMULATOR|52=20160216-09:06:14.582|56=BANZAI|10=026|
8=FIX.4.2|9=61|35=0|34=57|49=BANZAI|52=20160216-09:06:29.214|56=FIXIMULATOR|10=024|
8=FIX.4.2|9=61|35=0|34=58|49=FIXIMULATOR|52=20160216-09:06:45.577|56=BANZAI|10=035|
8=FIX.4.2|9=61|35=0|34=58|49=BANZAI|52=20160216-09:06:59.211|56=FIXIMULATOR|10=025|
8=FIX.4.2|9=61|35=0|34=59|49=FIXIMULATOR|52=20160216-09:07:15.581|56=BANZAI|10=029|
8=FIX.4.2|9=61|35=0|34=59|49=BANZAI|52=20160216-09:07:29.210|56=FIXIMULATOR|10=023|
8=FIX.4.2|9=61|35=0|34=60|49=FIXIMULATOR|52=20160216-09:07:46.580|56=BANZAI|10=024|
8=FIX.4.2|9=61|35=0|34=60|49=BANZAI|52=20160216-09:07:59.211|56=FIXIMULATOR|10=019|
8=FIX.4.2|9=61|35=0|34=61|49=FIXIMULATOR|52=20160216-09:08:16.580|56=BANZAI|10=023|
8=FIX.4.2|9=61|35=0|34=61|49=BANZAI|52=20160216-09:08:29.211|56=FIXIMULATOR|10=018|
8=FIX.4.2|9=61|35=0|34=62|49=FIXIMULATOR|52=20160216-09:08:46.581|56=BANZAI|10=028|
8=FIX.4.2|9=61|35=0|34=62|49=BANZAI|52=20160216-09:08:59.211|56=FIXIMULATOR|10=022|
8=FIX.4.2|9=61|35=0|34=63|49=FIXIMULATOR|52=20160216-09:09:16.581|56=BANZAI|10=027|
8=FIX.4.2|9=61|35=0|34=63|49=BANZAI|52=20160216-09:09:29.207|56=FIXIMULATOR|10=026|
8=FIX.4.2|9=61|35=0|34=64|49=FIXIMULATOR|52=20160216-09:09:47.579|56=BANZAI|10=039|
8=FIX.4.2|9=61|35=0|34=64|49=BANZAI|52=20160216-09:09:59.208|56=FIXIMULATOR|10=031|
8=FIX.4.2|9=61|35=0|34=65|49=FIXIMULATOR|52=20160216-09:10:17.581|56=BANZAI|10=022|
8=FIX.4.2|9=61|35=0|34=65|49=BANZAI|52=20160216-09:10:29.207|56=FIXIMULATOR|10=020|
8=FIX.4.2|9=61|35=0|34=66|49=FIXIMULATOR|52=20160216-09:10:48.578|56=BANZAI|10=033|
8=FIX.4.2|9=61|35=0|34=66|49=BANZAI|52=20160216-09:10:59.210|56=FIXIMULATOR|10=018|
8=FIX.4.2|9=61|35=0|34=67|49=FIXIMULATOR|52=20160216-09:11:18.581|56=BANZAI|10=026|
8=FIX.4.2|9=61|35=0|34=67|49=BANZAI|52=20160216-09:11:29.206|56=FIXIMULATOR|10=022|
8=FIX.4.2|9=61|35=0|34=68|49=FIXIMULATOR|52=20160216-09:11:49.580|56=BANZAI|10=030|
8=FIX.4.2|9=61|35=0|34=68|49=BANZAI|52=20160216-09:11:59.204|56=FIXIMULATOR|10=024|
8=FIX.4.2|9=61|35=0|34=69|49=FIXIMULATOR|52=20160216-09:12:19.581|56=BANZAI|10=030|
8=FIX.4.2|9=61|35=0|34=69|49=BANZAI|52=20160216-09:12:29.207|56=FIXIMULATOR|10=026|
8=FIX.4.2|9=61|35=0|34=70|49=FIXIMULATOR|52=20160216-09:12:49.582|56=BANZAI|10=026|
8=FIX.4.2|9=61|35=0|34=70|49=BANZAI|52=20160216-09:12:59.205|56=FIXIMULATOR|10=019|
8=FIX.4.2|9=61|35=0|34=71|49=FIXIMULATOR|52=20160216-09:13:20.581|56=BANZAI|10=016|
8=FIX.4.2|9=61|35=0|34=71|49=BANZAI|52=20160216-09:13:29.205|56=FIXIMULATOR|10=018|
8=FIX.4.2|9=61|35=0|34=72|49=FIXIMULATOR|52=20160216-09:13:50.581|56=BANZAI|10=020|
8=FIX.4.2|9=61|35=0|34=72|49=BANZAI|52=20160216-09:13:59.203|56=FIXIMULATOR|10=020|
8=FIX.4.2|9=61|35=0|34=73|49=FIXIMULATOR|52=20160216-09:14:21.577|56=BANZAI|10=025|
8=FIX.4.2|9=61|35=0|34=73|49=BANZAI|52=20160216-09:14:29.205|56=FIXIMULATOR|10=021|
8=FIX.4.2|9=61|35=0|34=74|49=FIXIMULATOR|52=20160216-09:14:51.581|56=BANZAI|10=024|
8=FIX.4.2|9=61|35=0|34=74|49=BANZAI|52=20160216-09:14:59.203|56=FIXIMULATOR|10=023|
8=FIX.4.2|9=61|35=0|34=75|49=FIXIMULATOR|52=20160216-09:15:21.582|56=BANZAI|10=024|
8=FIX.4.2|9=61|35=0|34=75|49=BANZAI|52=20160216-09:15:29.204|56=FIXIMULATOR|10=023|
8=FIX.4.2|9=61|35=0|34=76|49=FIXIMULATOR|52=20160216-09:15:52.580|56=BANZAI|10=027|
8=FIX.4.2|9=61|35=0|34=76|49=BANZAI|52=20160216-09:15:59.200|56=FIXIMULATOR|10=023|
8=FIX.4.2|9=61|35=0|34=77|49=FIXIMULATOR|52=20160216-09:16:22.581|56=BANZAI|10=027|
8=FIX.4.2|9=61|35=0|34=77|49=BANZAI|52=20160216-09:16:29.201|56=FIXIMULATOR|10=023|
8=FIX.4.2|9=61|35=0|34=78|49=FIXIMULATOR|52=20160216-09:16:53.579|56=BANZAI|10=039|
8=FIX.4.2|9=61|35=0|34=78|49=BANZAI|52=20160216-09:16:59.197|56=FIXIMULATOR|10=041|
8=FIX.4.2|9=61|35=0|34=79|49=FIXIMULATOR|52=20160216-09:17:23.579|56=BANZAI|10=038|
8=FIX.4.2|9=61|35=0|34=79|49=BANZAI|52=20160216-09:17:29.198|56=FIXIMULATOR|10=041|
8=FIX.4.2|9=61|35=0|34=80|49=FIXIMULATOR|52=20160216-09:17:53.580|56=BANZAI|10=025|
8=FIX.4.2|9=61|35=0|34=80|49=BANZAI|52=20160216-09:17:59.197|56=FIXIMULATOR|10=035|
8=FIX.4.2|9=61|35=0|34=81|49=FIXIMULATOR|52=20160216-09:18:23.581|56=BANZAI|10=025|
8=FIX.4.2|9=61|35=0|34=81|49=BANZAI|52=20160216-09:18:29.196|56=FIXIMULATOR|10=033|
8=FIX.4.2|9=61|35=0|34=82|49=FIXIMULATOR|52=20160216-09:18:54.581|56=BANZAI|10=030|
8=FIX.4.2|9=61|35=0|34=82|49=BANZAI|52=20160216-09:18:59.198|56=FIXIMULATOR|10=039|
8=FIX.4.2|9=61|35=0|34=83|49=FIXIMULATOR|52=20160216-09:19:25.579|56=BANZAI|10=037|
8=FIX.4.2|9=61|35=0|34=83|49=BANZAI|52=20160216-09:19:29.195|56=FIXIMULATOR|10=035|
8=FIX.4.2|9=61|35=0|34=84|49=FIXIMULATOR|52=20160216-09:19:55.580|56=BANZAI|10=033|
8=FIX.4.2|9=61|35=0|34=84|49=BANZAI|52=20160216-09:19:59.194|56=FIXIMULATOR|10=038|
8=FIX.4.2|9=61|35=0|34=85|49=FIXIMULATOR|52=20160216-09:20:25.581|56=BANZAI|10=024|
8=FIX.4.2|9=61|35=0|34=85|49=BANZAI|52=20160216-09:20:29.196|56=FIXIMULATOR|10=030|
8=FIX.4.2|9=61|35=0|34=86|49=FIXIMULATOR|52=20160216-09:20:56.582|56=BANZAI|10=030|
8=FIX.4.2|9=61|35=0|34=86|49=BANZAI|52=20160216-09:20:59.193|56=FIXIMULATOR|10=031|
8=FIX.4.2|9=61|35=0|34=87|49=FIXIMULATOR|52=20160216-09:21:27.582|56=BANZAI|10=030|
8=FIX.4.2|9=61|35=0|34=87|49=BANZAI|52=20160216-09:21:29.196|56=FIXIMULATOR|10=033|
8=FIX.4.2|9=61|35=0|34=88|49=FIXIMULATOR|52=20160216-09:21:58.577|56=BANZAI|10=039|
8=FIX.4.2|9=61|35=0|34=88|49=BANZAI|52=20160216-09:21:59.191|56=FIXIMULATOR|10=032|
8=FIX.4.2|9=61|35=0|34=89|49=FIXIMULATOR|52=20160216-09:22:28.580|56=BANZAI|10=032|
8=FIX.4.2|9=61|35=0|34=89|49=BANZAI|52=20160216-09:22:29.192|56=FIXIMULATOR|10=032|
8=FIX.4.2|9=61|35=0|34=90|49=FIXIMULATOR|52=20160216-09:22:58.581|56=BANZAI|10=028|
8=FIX.4.2|9=61|35=0|34=90|49=BANZAI|52=20160216-09:22:59.189|56=FIXIMULATOR|10=033|
8=FIX.4.2|9=61|35=0|34=91|49=BANZAI|52=20160216-09:23:29.192|56=FIXIMULATOR|10=026|
8=FIX.4.2|9=61|35=0|34=91|49=FIXIMULATOR|52=20160216-09:23:29.195|56=BANZAI|10=029|
8=FIX.4.2|9=61|35=0|34=92|49=BANZAI|52=20160216-09:23:59.190|56=FIXIMULATOR|10=028|
8=FIX.4.2|9=61|35=0|34=92|49=FIXIMULATOR|52=20160216-09:23:59.578|56=BANZAI|10=038|
8=FIX.4.2|9=61|35=0|34=93|49=BANZAI|52=20160216-09:24:29.189|56=FIXIMULATOR|10=035|
8=FIX.4.2|9=61|35=0|34=93|49=FIXIMULATOR|52=20160216-09:24:29.580|56=BANZAI|10=030|
8=FIX.4.2|9=61|35=0|34=94|49=BANZAI|52=20160216-09:24:59.187|56=FIXIMULATOR|10=037|
8=FIX.4.2|9=61|35=0|34=94|49=FIXIMULATOR|52=20160216-09:24:59.581|56=BANZAI|10=035|
8=FIX.4.2|9=61|35=0|34=95|49=BANZAI|52=20160216-09:25:29.189|56=FIXIMULATOR|10=038|
8=FIX.4.2|9=61|35=0|34=95|49=FIXIMULATOR|52=20160216-09:25:30.579|56=BANZAI|10=033|
8=FIX.4.2|9=61|35=0|34=96|49=BANZAI|52=20160216-09:25:59.186|56=FIXIMULATOR|10=039|
8=FIX.4.2|9=61|35=0|34=96|49=FIXIMULATOR|52=20160216-09:26:00.580|56=BANZAI|10=024|
8=FIX.4.2|9=61|35=0|34=97|49=BANZAI|52=20160216-09:26:29.188|56=FIXIMULATOR|10=040|
8=FIX.4.2|9=61|35=0|34=97|49=FIXIMULATOR|52=20160216-09:26:30.582|56=BANZAI|10=030|
8=FIX.4.2|9=61|35=0|34=98|49=BANZAI|52=20160216-09:26:59.187|56=FIXIMULATOR|10=043|
8=FIX.4.2|9=61|35=0|34=98|49=FIXIMULATOR|52=20160216-09:27:01.578|56=BANZAI|10=035|
8=FIX.4.2|9=61|35=0|34=99|49=BANZAI|52=20160216-09:27:29.184|56=FIXIMULATOR|10=039|
8=FIX.4.2|9=61|35=0|34=99|49=FIXIMULATOR|52=20160216-09:27:31.579|56=BANZAI|10=040|
8=FIX.4.2|9=62|35=0|34=100|49=BANZAI|52=20160216-09:27:59.183|56=FIXIMULATOR|10=073|
8=FIX.4.2|9=62|35=0|34=100|49=FIXIMULATOR|52=20160216-09:28:01.581|56=BANZAI|10=063|
8=FIX.4.2|9=62|35=0|34=101|49=BANZAI|52=20160216-09:28:29.184|56=FIXIMULATOR|10=073|
8=FIX.4.2|9=62|35=0|34=101|49=FIXIMULATOR|52=20160216-09:28:31.581|56=BANZAI|10=067|
8=FIX.4.2|9=62|35=0|34=102|49=BANZAI|52=20160216-09:28:59.182|56=FIXIMULATOR|10=075|
8=FIX.4.2|9=62|35=0|34=102|49=FIXIMULATOR|52=20160216-09:29:02.577|56=BANZAI|10=072|
8=FIX.4.2|9=62|35=0|34=103|49=BANZAI|52=20160216-09:29:29.183|56=FIXIMULATOR|10=075|
8=FIX.4.2|9=62|35=0|34=103|49=FIXIMULATOR|52=20160216-09:29:32.579|56=BANZAI|10=078|
8=FIX.4.2|9=62|35=0|34=104|49=BANZAI|52=20160216-09:29:59.180|56=FIXIMULATOR|10=076|
8=FIX.4.2|9=62|35=0|34=104|49=FIXIMULATOR|52=20160216-09:30:02.582|56=BANZAI|10=062|
8=FIX.4.2|9=62|35=0|34=105|49=BANZAI|52=20160216-09:30:29.181|56=FIXIMULATOR|10=067|
8=FIX.4.2|9=62|35=0|34=105|49=FIXIMULATOR|52=20160216-09:30:33.580|56=BANZAI|10=065|
8=FIX.4.2|9=62|35=0|34=106|49=BANZAI|52=20160216-09:30:59.178|56=FIXIMULATOR|10=077|
8=FIX.4.2|9=62|35=0|34=106|49=FIXIMULATOR|52=20160216-09:31:04.580|56=BANZAI|10=065|
8=FIX.4.2|9=62|35=0|34=107|49=BANZAI|52=20160216-09:31:29.178|56=FIXIMULATOR|10=076|
8=FIX.4.2|9=62|35=0|34=107|49=FIXIMULATOR|52=20160216-09:31:35.581|56=BANZAI|10=071|
8=FIX.4.2|9=62|35=0|34=108|49=BANZAI|52=20160216-09:31:59.178|56=FIXIMULATOR|10=080|
8=FIX.4.2|9=62|35=0|34=108|49=FIXIMULATOR|52=20160216-09:32:06.579|56=BANZAI|10=078|
8=FIX.4.2|9=62|35=0|34=109|49=BANZAI|52=20160216-09:32:29.174|56=FIXIMULATOR|10=075|
8=FIX.4.2|9=62|35=0|34=109|49=FIXIMULATOR|52=20160216-09:32:36.581|56=BANZAI|10=075|
8=FIX.4.2|9=62|35=0|34=110|49=BANZAI|52=20160216-09:32:59.174|56=FIXIMULATOR|10=070|
8=FIX.4.2|9=62|35=0|34=110|49=FIXIMULATOR|52=20160216-09:33:07.578|56=BANZAI|10=072|
8=FIX.4.2|9=62|35=0|34=111|49=BANZAI|52=20160216-09:33:29.174|56=FIXIMULATOR|10=069|
8=FIX.4.2|9=62|35=0|34=111|49=FIXIMULATOR|52=20160216-09:33:37.579|56=BANZAI|10=077|
8=FIX.4.2|9=62|35=0|34=112|49=BANZAI|52=20160216-09:33:59.171|56=FIXIMULATOR|10=070|
8=FIX.4.2|9=62|35=0|34=112|49=FIXIMULATOR|52=20160216-09:34:08.578|56=BANZAI|10=076|
8=FIX.4.2|9=62|35=0|34=113|49=BANZAI|52=20160216-09:34:29.174|56=FIXIMULATOR|10=072|
8=FIX.4.2|9=62|35=0|34=113|49=FIXIMULATOR|52=20160216-09:34:38.580|56=BANZAI|10=073|
8=FIX.4.2|9=74|35=A|34=115|49=BANZAI|52=20160216-09:34:59.178|56=FIXIMULATOR|98=0|108=30|10=126|
8=FIX.4.2|9=74|35=A|34=114|49=FIXIMULATOR|52=20160216-09:34:59.191|56=BANZAI|98=0|108=30|10=120|
8=FIX.4.2|9=73|35=2|34=115|49=FIXIMULATOR|52=20160216-09:34:59.193|56=BANZAI|7=114|16=0|10=050|
8=FIX.4.2|9=196|35=D|34=114|43=Y|49=BANZAI|52=20160216-09:34:59.200|56=FIXIMULATOR|122=20160216-09:34:58.202|1=TIGR|11=1455615298171|21=1|38=10|40=1|54=1|55=NTES|60=20160216-09:34:58.197|100=ARCA|109=TIGR|167=CS|10=047|
8=FIX.4.2|9=106|35=4|34=115|43=Y|49=BANZAI|52=20160216-09:34:59.201|56=FIXIMULATOR|122=20160216-09:34:59.201|36=116|123=Y|10=230|
8=FIX.4.2|9=176|35=8|34=116|49=FIXIMULATOR|52=20160216-09:35:09.083|56=BANZAI|6=0|11=1455615298171|14=0|17=E1455615309086|20=0|31=0|32=0|37=O1455615299206|38=10|39=0|54=1|55=NTES|150=0|151=10|10=192|
8=FIX.4.2|9=62|35=0|34=116|49=BANZAI|52=20160216-09:35:30.174|56=FIXIMULATOR|10=068|
8=FIX.4.2|9=62|35=0|34=117|49=FIXIMULATOR|52=20160216-09:35:39.581|56=BANZAI|10=080|
8=FIX.4.2|9=62|35=0|34=117|49=BANZAI|52=20160216-09:36:00.172|56=FIXIMULATOR|10=065|
8=FIX.4.2|9=62|35=0|34=118|49=FIXIMULATOR|52=20160216-09:36:09.581|56=BANZAI|10=079|
8=FIX.4.2|9=62|35=0|34=118|49=BANZAI|52=20160216-09:36:30.173|56=FIXIMULATOR|10=070|
8=FIX.4.2|9=62|35=0|34=119|49=FIXIMULATOR|52=20160216-09:36:40.581|56=BANZAI|10=075|
8=FIX.4.2|9=62|35=0|34=119|49=BANZAI|52=20160216-09:37:00.169|56=FIXIMULATOR|10=074|
8=FIX.4.2|9=62|35=0|34=120|49=FIXIMULATOR|52=20160216-09:37:10.582|56=BANZAI|10=066|
8=FIX.4.2|9=62|35=0|34=120|49=BANZAI|52=20160216-09:37:30.170|56=FIXIMULATOR|10=061|
8=FIX.4.2|9=62|35=0|34=121|49=FIXIMULATOR|52=20160216-09:37:40.582|56=BANZAI|10=070|
8=FIX.4.2|9=62|35=0|34=121|49=BANZAI|52=20160216-09:38:00.170|56=FIXIMULATOR|10=060|
8=FIX.4.2|9=62|35=0|34=122|49=FIXIMULATOR|52=20160216-09:38:11.580|56=BANZAI|10=068|
8=FIX.4.2|9=62|35=0|34=122|49=BANZAI|52=20160216-09:38:30.169|56=FIXIMULATOR|10=072|
8=FIX.4.2|9=62|35=0|34=123|49=FIXIMULATOR|52=20160216-09:38:41.580|56=BANZAI|10=072|
8=FIX.4.2|9=62|35=0|34=123|49=BANZAI|52=20160216-09:39:00.166|56=FIXIMULATOR|10=068|
8=FIX.4.2|9=62|35=0|34=124|49=FIXIMULATOR|52=20160216-09:39:12.580|56=BANZAI|10=072|
8=FIX.4.2|9=62|35=0|34=124|49=BANZAI|52=20160216-09:39:30.166|56=FIXIMULATOR|10=072|
8=FIX.4.2|9=62|35=0|34=125|49=FIXIMULATOR|52=20160216-09:39:42.580|56=BANZAI|10=076|
8=FIX.4.2|9=62|35=0|34=125|49=BANZAI|52=20160216-09:40:00.162|56=FIXIMULATOR|10=058|
8=FIX.4.2|9=62|35=0|34=126|49=FIXIMULATOR|52=20160216-09:40:13.577|56=BANZAI|10=073|
8=FIX.4.2|9=62|35=0|34=126|49=BANZAI|52=20160216-09:40:30.163|56=FIXIMULATOR|10=063|
8=FIX.4.2|9=62|35=0|34=127|49=FIXIMULATOR|52=20160216-09:40:43.580|56=BANZAI|10=071|
8=FIX.4.2|9=62|35=0|34=127|49=BANZAI|52=20160216-09:41:00.165|56=FIXIMULATOR|10=064|
8=FIX.4.2|9=62|35=0|34=128|49=FIXIMULATOR|52=20160216-09:41:13.581|56=BANZAI|10=071|
8=FIX.4.2|9=62|35=0|34=128|49=BANZAI|52=20160216-09:41:30.162|56=FIXIMULATOR|10=065|
8=FIX.4.2|9=62|35=0|34=129|49=FIXIMULATOR|52=20160216-09:41:43.581|56=BANZAI|10=075|
8=FIX.4.2|9=74|35=A|34=130|49=BANZAI|52=20160216-09:42:08.374|56=FIXIMULATOR|98=0|108=30|10=114|
8=FIX.4.2|9=74|35=A|34=130|49=FIXIMULATOR|52=20160216-09:42:08.388|56=BANZAI|98=0|108=30|10=119|
8=FIX.4.2|9=73|35=2|34=131|49=FIXIMULATOR|52=20160216-09:42:08.391|56=BANZAI|7=129|16=0|10=047|
8=FIX.4.2|9=196|35=D|34=129|43=Y|49=BANZAI|52=20160216-09:42:08.398|56=FIXIMULATOR|122=20160216-09:42:07.398|1=TIGR|11=1455615727366|21=1|38=10|40=1|54=1|55=NTES|60=20160216-09:42:07.393|100=ARCA|109=TIGR|167=CS|10=067|
8=FIX.4.2|9=106|35=4|34=130|43=Y|49=BANZAI|52=20160216-09:42:08.399|56=FIXIMULATOR|122=20160216-09:42:08.399|36=131|123=Y|10=246|
8=FIX.4.2|9=176|35=8|34=132|49=FIXIMULATOR|52=20160216-09:42:16.053|56=BANZAI|6=0|11=1455615727366|14=0|17=E1455615736057|20=0|31=0|32=0|37=O1455615728408|38=10|39=0|54=1|55=NTES|150=0|151=10|10=189|
8=FIX.4.2|9=62|35=0|34=131|49=BANZAI|52=20160216-09:42:39.367|56=FIXIMULATOR|10=076|
8=FIX.4.2|9=62|35=0|34=133|49=FIXIMULATOR|52=20160216-09:42:46.580|56=BANZAI|10=073|
8=FIX.4.2|9=62|35=0|34=132|49=BANZAI|52=20160216-09:43:09.366|56=FIXIMULATOR|10=074|
8=FIX.4.2|9=62|35=0|34=134|49=FIXIMULATOR|52=20160216-09:43:16.580|56=BANZAI|10=072|
8=FIX.4.2|9=62|35=0|34=133|49=BANZAI|52=20160216-09:43:39.365|56=FIXIMULATOR|10=077|
8=FIX.4.2|9=62|35=0|34=135|49=FIXIMULATOR|52=20160216-09:43:47.579|56=BANZAI|10=085|
8=FIX.4.2|9=74|35=A|34=135|49=BANZAI|52=20160216-09:44:15.856|56=FIXIMULATOR|98=0|108=30|10=124|
8=FIX.4.2|9=74|35=A|34=136|49=FIXIMULATOR|52=20160216-09:44:15.867|56=BANZAI|98=0|108=30|10=127|
8=FIX.4.2|9=73|35=2|34=137|49=FIXIMULATOR|52=20160216-09:44:15.870|56=BANZAI|7=134|16=0|10=051|
8=FIX.4.2|9=196|35=D|34=134|43=Y|49=BANZAI|52=20160216-09:44:15.876|56=FIXIMULATOR|122=20160216-09:44:14.879|1=TIGR|11=1455615854848|21=1|38=10|40=1|54=1|55=NTES|60=20160216-09:44:14.874|100=ARCA|109=TIGR|167=CS|10=078|
8=FIX.4.2|9=106|35=4|34=135|43=Y|49=BANZAI|52=20160216-09:44:15.877|56=FIXIMULATOR|122=20160216-09:44:15.877|36=136|123=Y|10=002|
8=FIX.4.2|9=176|35=8|34=138|49=FIXIMULATOR|52=20160216-09:44:19.974|56=BANZAI|6=0|11=1455615854848|14=0|17=E1455615859978|20=0|31=0|32=0|37=O1455615855885|38=10|39=0|54=1|55=NTES|150=0|151=10|10=246|
8=FIX.4.2|9=62|35=0|34=136|49=BANZAI|52=20160216-09:44:46.849|56=FIXIMULATOR|10=086|
8=FIX.4.2|9=62|35=0|34=139|49=FIXIMULATOR|52=20160216-09:44:50.581|56=BANZAI|10=077|
8=FIX.4.2|9=62|35=0|34=137|49=BANZAI|52=20160216-09:45:16.848|56=FIXIMULATOR|10=084|
8=FIX.4.2|9=62|35=0|34=140|49=FIXIMULATOR|52=20160216-09:45:20.582|56=BANZAI|10=068|
8=FIX.4.2|9=62|35=0|34=138|49=BANZAI|52=20160216-09:45:46.849|56=FIXIMULATOR|10=089|
8=FIX.4.2|9=62|35=0|34=141|49=FIXIMULATOR|52=20160216-09:45:51.582|56=BANZAI|10=073|
8=FIX.4.2|9=74|35=A|34=140|49=BANZAI|52=20160216-09:46:07.980|56=FIXIMULATOR|98=0|108=30|10=121|
8=FIX.4.2|9=74|35=A|34=142|49=FIXIMULATOR|52=20160216-09:46:07.993|56=BANZAI|98=0|108=30|10=127|
8=FIX.4.2|9=73|35=2|34=143|49=FIXIMULATOR|52=20160216-09:46:07.995|56=BANZAI|7=139|16=0|10=064|
8=FIX.4.2|9=196|35=D|34=139|43=Y|49=BANZAI|52=20160216-09:46:08.002|56=FIXIMULATOR|122=20160216-09:46:07.003|1=TIGR|11=1455615966974|21=1|38=10|40=1|54=1|55=NTES|60=20160216-09:46:06.998|100=ARCA|109=TIGR|167=CS|10=065|
8=FIX.4.2|9=106|35=4|34=140|43=Y|49=BANZAI|52=20160216-09:46:08.003|56=FIXIMULATOR|122=20160216-09:46:08.003|36=141|123=Y|10=220|
8=FIX.4.2|9=176|35=8|34=144|49=FIXIMULATOR|52=20160216-09:46:10.280|56=BANZAI|6=0|11=1455615966974|14=0|17=E1455615970285|20=0|31=0|32=0|37=O1455615968012|38=10|39=0|54=1|55=NTES|150=0|151=10|10=202|
8=FIX.4.2|9=62|35=0|34=141|49=BANZAI|52=20160216-09:46:38.977|56=FIXIMULATOR|10=087|
8=FIX.4.2|9=62|35=0|34=145|49=FIXIMULATOR|52=20160216-09:46:40.578|56=BANZAI|10=081|
8=FIX.4.2|9=62|35=0|34=142|49=BANZAI|52=20160216-09:47:08.973|56=FIXIMULATOR|10=082|
8=FIX.4.2|9=62|35=0|34=146|49=FIXIMULATOR|52=20160216-09:47:10.579|56=BANZAI|10=081|
8=FIX.4.2|9=74|35=A|34=144|49=BANZAI|52=20160216-09:50:34.770|56=FIXIMULATOR|98=0|108=30|10=117|
8=FIX.4.2|9=74|35=A|34=147|49=FIXIMULATOR|52=20160216-09:50:34.782|56=BANZAI|98=0|108=30|10=123|
8=FIX.4.2|9=73|35=2|34=148|49=FIXIMULATOR|52=20160216-09:50:34.785|56=BANZAI|7=143|16=0|10=056|
8=FIX.4.2|9=196|35=D|34=143|43=Y|49=BANZAI|52=20160216-09:50:34.793|56=FIXIMULATOR|122=20160216-09:50:33.808|1=TIGR|11=1455616233778|21=1|38=10|40=1|54=1|55=NTES|60=20160216-09:50:33.803|100=ARCA|109=TIGR|167=CS|10=048|
8=FIX.4.2|9=106|35=4|34=144|43=Y|49=BANZAI|52=20160216-09:50:34.794|56=FIXIMULATOR|122=20160216-09:50:34.794|36=145|123=Y|10=250|
8=FIX.4.2|9=176|35=8|34=149|49=FIXIMULATOR|52=20160216-09:50:38.241|56=BANZAI|6=0|11=1455616233778|14=0|17=E1455616238248|20=0|31=0|32=0|37=O1455616234804|38=10|39=0|54=1|55=NTES|150=0|151=10|10=192|
8=FIX.4.2|9=62|35=0|34=145|49=BANZAI|52=20160216-09:51:05.768|56=FIXIMULATOR|10=079|
8=FIX.4.2|9=62|35=0|34=150|49=FIXIMULATOR|52=20160216-09:51:08.580|56=BANZAI|10=070|
8=FIX.4.2|9=62|35=0|34=146|49=BANZAI|52=20160216-09:51:35.767|56=FIXIMULATOR|10=082|
8=FIX.4.2|9=62|35=0|34=151|49=FIXIMULATOR|52=20160216-09:51:39.580|56=BANZAI|10=075|
8=FIX.4.2|9=62|35=0|34=147|49=BANZAI|52=20160216-09:52:05.765|56=FIXIMULATOR|10=079|
8=FIX.4.2|9=62|35=0|34=152|49=FIXIMULATOR|52=20160216-09:52:09.580|56=BANZAI|10=074|
8=FIX.4.2|9=62|35=0|34=148|49=BANZAI|52=20160216-09:52:35.765|56=FIXIMULATOR|10=083|
8=FIX.4.2|9=62|35=0|34=153|49=FIXIMULATOR|52=20160216-09:52:40.581|56=BANZAI|10=071|
8=FIX.4.2|9=62|35=0|34=149|49=BANZAI|52=20160216-09:53:05.764|56=FIXIMULATOR|10=081|
8=FIX.4.2|9=62|35=0|34=154|49=FIXIMULATOR|52=20160216-09:53:10.581|56=BANZAI|10=070|
8=FIX.4.2|9=62|35=0|34=150|49=BANZAI|52=20160216-09:53:35.763|56=FIXIMULATOR|10=075|
8=FIX.4.2|9=62|35=0|34=155|49=FIXIMULATOR|52=20160216-09:53:41.579|56=BANZAI|10=082|
8=FIX.4.2|9=62|35=0|34=151|49=BANZAI|52=20160216-09:54:05.763|56=FIXIMULATOR|10=074|
8=FIX.4.2|9=62|35=0|34=156|49=FIXIMULATOR|52=20160216-09:54:11.580|56=BANZAI|10=073|
8=FIX.4.2|9=80|35=5|34=152|49=BANZAI|52=20160216-09:54:26.758|56=FIXIMULATOR|58=user requested|10=179|
8=FIX.4.2|9=62|35=5|34=157|49=FIXIMULATOR|52=20160216-09:54:26.767|56=BANZAI|10=092|
8=FIX.4.2|9=74|35=A|34=156|49=BANZAI|52=20160216-09:54:33.873|56=FIXIMULATOR|98=0|108=30|10=127|
8=FIX.4.2|9=74|35=A|34=158|49=FIXIMULATOR|52=20160216-09:54:33.886|56=BANZAI|98=0|108=30|10=133|
8=FIX.4.2|9=73|35=2|34=159|49=FIXIMULATOR|52=20160216-09:54:33.890|56=BANZAI|7=153|16=0|10=059|
8=FIX.4.2|9=106|35=4|34=153|43=Y|49=BANZAI|52=20160216-09:54:33.899|56=FIXIMULATOR|122=20160216-09:54:33.899|36=154|123=Y|10=012|
8=FIX.4.2|9=196|35=D|34=154|43=Y|49=BANZAI|52=20160216-09:54:33.899|56=FIXIMULATOR|122=20160216-09:54:27.349|1=TIGR|11=1455616467344|21=1|38=10|40=1|54=1|55=NTES|60=20160216-09:54:27.348|100=ARCA|109=TIGR|167=CS|10=076|
8=FIX.4.2|9=196|35=D|34=155|43=Y|49=BANZAI|52=20160216-09:54:33.900|56=FIXIMULATOR|122=20160216-09:54:32.906|1=TIGR|11=1455616472872|21=1|38=10|40=1|54=1|55=NTES|60=20160216-09:54:32.900|100=ARCA|109=TIGR|167=CS|10=047|
8=FIX.4.2|9=106|35=4|34=156|43=Y|49=BANZAI|52=20160216-09:54:33.901|56=FIXIMULATOR|122=20160216-09:54:33.901|36=157|123=Y|10=242|
8=FIX.4.2|9=176|35=8|34=160|49=FIXIMULATOR|52=20160216-09:54:37.723|56=BANZAI|6=0|11=1455616472872|14=0|17=E1455616477731|20=0|31=0|32=0|37=O1455616473916|38=10|39=0|54=1|55=NTES|150=0|151=10|10=204|
8=FIX.4.2|9=74|35=A|34=158|49=BANZAI|52=20160216-09:56:39.783|56=FIXIMULATOR|98=0|108=30|10=137|
8=FIX.4.2|9=74|35=A|34=161|49=FIXIMULATOR|52=20160216-09:56:39.805|56=BANZAI|98=0|108=30|10=126|
8=FIX.4.2|9=73|35=2|34=162|49=FIXIMULATOR|52=20160216-09:56:39.807|56=BANZAI|7=157|16=0|10=063|
8=FIX.4.2|9=196|35=D|34=157|43=Y|49=BANZAI|52=20160216-09:56:39.818|56=FIXIMULATOR|122=20160216-09:56:38.814|1=TIGR|11=1455616598778|21=1|38=10|40=1|54=1|55=NTES|60=20160216-09:56:38.808|100=ARCA|109=TIGR|167=CS|10=100|
8=FIX.4.2|9=106|35=4|34=158|43=Y|49=BANZAI|52=20160216-09:56:39.819|56=FIXIMULATOR|122=20160216-09:56:39.819|36=159|123=Y|10=022|
8=FIX.4.2|9=176|35=8|34=163|49=FIXIMULATOR|52=20160216-09:56:46.832|56=BANZAI|6=0|11=1455616598778|14=0|17=E1455616606841|20=0|31=0|32=0|37=O1455616599832|38=10|39=0|54=1|55=NTES|150=0|151=10|10=226|
8=FIX.4.2|9=74|35=A|34=160|49=BANZAI|52=20160216-10:01:35.834|56=FIXIMULATOR|98=0|108=30|10=105|
8=FIX.4.2|9=74|35=A|34=164|49=FIXIMULATOR|52=20160216-10:01:35.846|56=BANZAI|98=0|108=30|10=112|
8=FIX.4.2|9=73|35=2|34=165|49=FIXIMULATOR|52=20160216-10:01:35.849|56=BANZAI|7=159|16=0|10=052|
8=FIX.4.2|9=196|35=D|34=159|43=Y|49=BANZAI|52=20160216-10:01:35.855|56=FIXIMULATOR|122=20160216-10:01:34.863|1=TIGR|11=1455616894829|21=1|38=10|40=1|54=1|55=NTES|60=20160216-10:01:34.857|100=ARCA|109=TIGR|167=CS|10=041|
8=FIX.4.2|9=106|35=4|34=160|43=Y|49=BANZAI|52=20160216-10:01:35.856|56=FIXIMULATOR|122=20160216-10:01:35.856|36=161|123=Y|10=222|
8=FIX.4.2|9=176|35=8|34=166|49=FIXIMULATOR|52=20160216-10:01:40.176|56=BANZAI|6=0|11=1455616894829|14=0|17=E1455616900186|20=0|31=0|32=0|37=O1455616895875|38=10|39=0|54=1|55=NTES|150=0|151=10|10=207|
8=FIX.4.2|9=62|35=0|34=161|49=BANZAI|52=20160216-10:02:06.832|56=FIXIMULATOR|10=058|
8=FIX.4.2|9=62|35=0|34=167|49=FIXIMULATOR|52=20160216-10:02:10.580|56=BANZAI|10=059|
8=FIX.4.2|9=74|35=A|34=163|49=BANZAI|52=20160216-10:02:37.784|56=FIXIMULATOR|98=0|108=30|10=115|
8=FIX.4.2|9=74|35=A|34=168|49=FIXIMULATOR|52=20160216-10:02:37.797|56=BANZAI|98=0|108=30|10=124|
8=FIX.4.2|9=73|35=2|34=169|49=FIXIMULATOR|52=20160216-10:02:37.800|56=BANZAI|7=162|16=0|10=040|
8=FIX.4.2|9=196|35=D|34=162|43=Y|49=BANZAI|52=20160216-10:02:37.808|56=FIXIMULATOR|122=20160216-10:02:36.806|1=TIGR|11=1455616956778|21=1|38=10|40=1|54=1|55=NTES|60=20160216-10:02:36.800|100=ARCA|109=TIGR|167=CS|10=029|
8=FIX.4.2|9=106|35=4|34=163|43=Y|49=BANZAI|52=20160216-10:02:37.810|56=FIXIMULATOR|122=20160216-10:02:37.810|36=164|123=Y|10=214|
8=FIX.4.2|9=176|35=8|34=170|49=FIXIMULATOR|52=20160216-10:02:43.200|56=BANZAI|6=0|11=1455616956778|14=0|17=E1455616963211|20=0|31=0|32=0|37=O1455616957824|38=10|39=0|54=1|55=NTES|150=0|151=10|10=187|
8=FIX.4.2|9=62|35=0|34=164|49=BANZAI|52=20160216-10:03:08.778|56=FIXIMULATOR|10=073|
8=FIX.4.2|9=62|35=0|34=171|49=FIXIMULATOR|52=20160216-10:03:13.580|56=BANZAI|10=058|
8=FIX.4.2|9=62|35=0|34=165|49=BANZAI|52=20160216-10:03:38.778|56=FIXIMULATOR|10=077|
8=FIX.4.2|9=62|35=0|34=172|49=FIXIMULATOR|52=20160216-10:03:43.582|56=BANZAI|10=064|
8=FIX.4.2|9=62|35=0|34=166|49=BANZAI|52=20160216-10:04:08.779|56=FIXIMULATOR|10=077|
8=FIX.4.2|9=62|35=0|34=173|49=FIXIMULATOR|52=20160216-10:04:14.582|56=BANZAI|10=064|
8=FIX.4.2|9=62|35=0|34=167|49=BANZAI|52=20160216-10:04:38.776|56=FIXIMULATOR|10=078|
8=FIX.4.2|9=62|35=0|34=174|49=FIXIMULATOR|52=20160216-10:04:45.579|56=BANZAI|10=075|
8=FIX.4.2|9=62|35=0|34=168|49=BANZAI|52=20160216-10:05:08.777|56=FIXIMULATOR|10=078|
8=FIX.4.2|9=62|35=0|34=175|49=FIXIMULATOR|52=20160216-10:05:15.581|56=BANZAI|10=067|
8=FIX.4.2|9=62|35=0|34=169|49=BANZAI|52=20160216-10:05:38.776|56=FIXIMULATOR|10=081|
8=FIX.4.2|9=62|35=0|34=176|49=FIXIMULATOR|52=20160216-10:05:46.580|56=BANZAI|10=071|
8=FIX.4.2|9=62|35=0|34=170|49=BANZAI|52=20160216-10:06:08.772|56=FIXIMULATOR|10=067|
8=FIX.4.2|9=62|35=0|34=177|49=FIXIMULATOR|52=20160216-10:06:16.580|56=BANZAI|10=070|
8=FIX.4.2|9=62|35=0|34=171|49=BANZAI|52=20160216-10:06:38.775|56=FIXIMULATOR|10=074|
8=FIX.4.2|9=62|35=0|34=178|49=FIXIMULATOR|52=20160216-10:06:46.581|56=BANZAI|10=075|
8=FIX.4.2|9=62|35=0|34=172|49=BANZAI|52=20160216-10:07:08.773|56=FIXIMULATOR|10=071|
8=FIX.4.2|9=62|35=0|34=179|49=FIXIMULATOR|52=20160216-10:07:16.582|56=BANZAI|10=075|
8=FIX.4.2|9=62|35=0|34=173|49=BANZAI|52=20160216-10:07:38.772|56=FIXIMULATOR|10=074|
8=FIX.4.2|9=62|35=0|34=180|49=FIXIMULATOR|52=20160216-10:07:47.582|56=BANZAI|10=071|
8=FIX.4.2|9=62|35=0|34=174|49=BANZAI|52=20160216-10:08:08.771|56=FIXIMULATOR|10=072|
8=FIX.4.2|9=62|35=0|34=181|49=FIXIMULATOR|52=20160216-10:08:18.577|56=BANZAI|10=075|
8=FIX.4.2|9=62|35=0|34=175|49=BANZAI|52=20160216-10:08:38.769|56=FIXIMULATOR|10=083|
8=FIX.4.2|9=62|35=0|34=182|49=FIXIMULATOR|52=20160216-10:08:48.580|56=BANZAI|10=073|
8=FIX.4.2|9=62|35=0|34=176|49=BANZAI|52=20160216-10:09:08.770|56=FIXIMULATOR|10=074|
8=FIX.4.2|9=62|35=0|34=183|49=FIXIMULATOR|52=20160216-10:09:19.580|56=BANZAI|10=073|
8=FIX.4.2|9=62|35=0|34=177|49=BANZAI|52=20160216-10:09:38.768|56=FIXIMULATOR|10=085|
8=FIX.4.2|9=62|35=0|34=184|49=FIXIMULATOR|52=20160216-10:09:49.581|56=BANZAI|10=078|
8=FIX.4.2|9=62|35=0|34=178|49=BANZAI|52=20160216-10:10:08.769|56=FIXIMULATOR|10=076|
8=FIX.4.2|9=62|35=0|34=185|49=FIXIMULATOR|52=20160216-10:10:20.581|56=BANZAI|10=060|
8=FIX.4.2|9=74|35=A|34=180|49=BANZAI|52=20160216-10:10:42.493|56=FIXIMULATOR|98=0|108=30|10=106|
8=FIX.4.2|9=74|35=A|34=186|49=FIXIMULATOR|52=20160216-10:10:42.505|56=BANZAI|98=0|108=30|10=106|
8=FIX.4.2|9=73|35=2|34=187|49=FIXIMULATOR|52=20160216-10:10:42.508|56=BANZAI|7=179|16=0|10=048|
8=FIX.4.2|9=196|35=D|34=179|43=Y|49=BANZAI|52=20160216-10:10:42.514|56=FIXIMULATOR|122=20160216-10:10:41.525|1=TIGR|11=1455617441490|21=1|38=10|40=1|54=1|55=NTES|60=20160216-10:10:41.519|100=ARCA|109=TIGR|167=CS|10=002|
8=FIX.4.2|9=106|35=4|34=180|43=Y|49=BANZAI|52=20160216-10:10:42.515|56=FIXIMULATOR|122=20160216-10:10:42.515|36=181|123=Y|10=206|
8=FIX.4.2|9=176|35=8|34=188|49=FIXIMULATOR|52=20160216-10:10:45.308|56=BANZAI|6=0|11=1455617441490|14=0|17=E1455617445319|20=0|31=0|32=0|37=O1455617442531|38=10|39=0|54=1|55=NTES|150=0|151=10|10=177|
8=FIX.4.2|9=62|35=0|34=181|49=BANZAI|52=20160216-10:11:13.492|56=FIXIMULATOR|10=060|
8=FIX.4.2|9=62|35=0|34=189|49=FIXIMULATOR|52=20160216-10:11:15.581|56=BANZAI|10=069|
8=FIX.4.2|9=74|35=A|34=183|49=BANZAI|52=20160216-10:11:45.649|56=FIXIMULATOR|98=0|108=30|10=116|
8=FIX.4.2|9=74|35=A|34=190|49=FIXIMULATOR|52=20160216-10:11:45.680|56=BANZAI|98=0|108=30|10=109|
8=FIX.4.2|9=73|35=2|34=191|49=FIXIMULATOR|52=20160216-10:11:45.688|56=BANZAI|7=182|16=0|10=050|
8=FIX.4.2|9=196|35=D|34=182|43=Y|49=BANZAI|52=20160216-10:11:45.696|56=FIXIMULATOR|122=20160216-10:11:44.673|1=TIGR|11=1455617504643|21=1|38=10|40=1|54=1|55=NTES|60=20160216-10:11:44.668|100=ARCA|109=TIGR|167=CS|10=028|
8=FIX.4.2|9=106|35=4|34=183|43=Y|49=BANZAI|52=20160216-10:11:45.697|56=FIXIMULATOR|122=20160216-10:11:45.697|36=184|123=Y|10=242|
8=FIX.4.2|9=176|35=8|34=192|49=FIXIMULATOR|52=20160216-10:11:47.711|56=BANZAI|6=0|11=1455617504643|14=0|17=E1455617507704|20=0|31=0|32=0|37=O1455617505727|38=10|39=0|54=1|55=NTES|150=0|151=10|10=177|
8=FIX.4.2|9=62|35=0|34=184|49=BANZAI|52=20160216-10:12:16.647|56=FIXIMULATOR|10=069|
8=FIX.4.2|9=62|35=0|34=193|49=FIXIMULATOR|52=20160216-10:12:17.753|56=BANZAI|10=068|
8=FIX.4.2|9=62|35=0|34=185|49=BANZAI|52=20160216-10:12:46.644|56=FIXIMULATOR|10=070|
8=FIX.4.2|9=74|35=A|34=187|49=BANZAI|52=20160216-10:12:58.271|56=FIXIMULATOR|98=0|108=30|10=116|
8=FIX.4.2|9=74|35=A|34=194|49=FIXIMULATOR|52=20160216-10:12:58.285|56=BANZAI|98=0|108=30|10=119|
8=FIX.4.2|9=73|35=2|34=195|49=FIXIMULATOR|52=20160216-10:12:58.288|56=BANZAI|7=186|16=0|10=059|
8=FIX.4.2|9=196|35=D|34=186|43=Y|49=BANZAI|52=20160216-10:12:58.295|56=FIXIMULATOR|122=20160216-10:12:57.295|1=TIGR|11=1455617577265|21=1|38=10|40=1|54=1|55=NTES|60=20160216-10:12:57.290|100=ARCA|109=TIGR|167=CS|10=043|
8=FIX.4.2|9=106|35=4|34=187|43=Y|49=BANZAI|52=20160216-10:12:58.296|56=FIXIMULATOR|122=20160216-10:12:58.295|36=188|123=Y|10=249|
8=FIX.4.2|9=176|35=8|34=196|49=FIXIMULATOR|52=20160216-10:13:05.064|56=BANZAI|6=0|11=1455617577265|14=0|17=E1455617585066|20=0|31=0|32=0|37=O1455617578302|38=10|39=0|54=1|55=NTES|150=0|151=10|10=194|
8=FIX.4.2|9=62|35=0|34=188|49=BANZAI|52=20160216-10:13:29.266|56=FIXIMULATOR|10=075|
8=FIX.4.2|9=62|35=0|34=197|49=FIXIMULATOR|52=20160216-10:13:35.758|56=BANZAI|10=078|
8=FIX.4.2|9=62|35=0|34=189|49=BANZAI|52=20160216-10:13:59.263|56=FIXIMULATOR|10=076|
8=FIX.4.2|9=74|35=A|34=191|49=BANZAI|52=20160216-10:14:14.938|56=FIXIMULATOR|98=0|108=30|10=115|
8=FIX.4.2|9=74|35=A|34=198|49=FIXIMULATOR|52=20160216-10:14:14.953|56=BANZAI|98=0|108=30|10=119|
8=FIX.4.2|9=73|35=2|34=199|49=FIXIMULATOR|52=20160216-10:14:14.955|56=BANZAI|7=190|16=0|10=053|
8=FIX.4.2|9=196|35=D|34=190|43=Y|49=BANZAI|52=20160216-10:14:14.962|56=FIXIMULATOR|122=20160216-10:14:13.974|1=TIGR|11=1455617653932|21=1|38=10|40=1|54=1|55=NTES|60=20160216-10:14:13.969|100=ARCA|109=TIGR|167=CS|10=034|
8=FIX.4.2|9=106|35=4|34=191|43=Y|49=BANZAI|52=20160216-10:14:14.963|56=FIXIMULATOR|122=20160216-10:14:14.963|36=192|123=Y|10=230|
8=FIX.4.2|9=176|35=8|34=200|49=FIXIMULATOR|52=20160216-10:14:17.871|56=BANZAI|6=0|11=1455617653932|14=0|17=E1455617657874|20=0|31=0|32=0|37=O1455617654970|38=10|39=0|54=1|55=NTES|150=0|151=10|10=199|
8=FIX.4.2|9=62|35=0|34=192|49=BANZAI|52=20160216-10:14:45.934|56=FIXIMULATOR|10=071|
8=FIX.4.2|9=62|35=0|34=201|49=FIXIMULATOR|52=20160216-10:14:48.755|56=BANZAI|10=066|
8=FIX.4.2|9=62|35=0|34=193|49=BANZAI|52=20160216-10:15:15.934|56=FIXIMULATOR|10=070|
8=FIX.4.2|9=62|35=0|34=202|49=FIXIMULATOR|52=20160216-10:15:18.755|56=BANZAI|10=065|
8=FIX.4.2|9=62|35=0|34=194|49=BANZAI|52=20160216-10:15:45.929|56=FIXIMULATOR|10=078|
8=FIX.4.2|9=62|35=0|34=203|49=FIXIMULATOR|52=20160216-10:15:49.758|56=BANZAI|10=073|
8=FIX.4.2|9=74|35=A|34=196|49=BANZAI|52=20160216-10:16:50.706|56=FIXIMULATOR|98=0|108=30|10=115|
8=FIX.4.2|9=74|35=A|34=204|49=FIXIMULATOR|52=20160216-10:16:50.719|56=BANZAI|98=0|108=30|10=109|
8=FIX.4.2|9=73|35=2|34=205|49=FIXIMULATOR|52=20160216-10:16:50.722|56=BANZAI|7=195|16=0|10=040|
8=FIX.4.2|9=196|35=D|34=195|43=Y|49=BANZAI|52=20160216-10:16:50.730|56=FIXIMULATOR|122=20160216-10:16:49.731|1=TIGR|11=1455617809699|21=1|38=10|40=1|54=1|55=NTES|60=20160216-10:16:49.725|100=ARCA|109=TIGR|167=CS|10=050|
8=FIX.4.2|9=106|35=4|34=196|43=Y|49=BANZAI|52=20160216-10:16:50.731|56=FIXIMULATOR|122=20160216-10:16:50.731|36=197|123=Y|10=230|
8=FIX.4.2|9=176|35=8|34=206|49=FIXIMULATOR|52=20160216-10:16:54.693|56=BANZAI|6=0|11=1455617809699|14=0|17=E1455617814696|20=0|31=0|32=0|37=O1455617810737|38=10|39=0|54=1|55=NTES|150=0|151=10|10=215|
8=FIX.4.2|9=62|35=0|34=197|49=BANZAI|52=20160216-10:17:21.700|56=FIXIMULATOR|10=064|
8=FIX.4.2|9=62|35=0|34=207|49=FIXIMULATOR|52=20160216-10:17:24.754|56=BANZAI|10=068|
8=FIX.4.2|9=74|35=A|34=199|49=BANZAI|52=20160216-10:17:46.649|56=FIXIMULATOR|98=0|108=30|10=130|
8=FIX.4.2|9=74|35=A|34=208|49=FIXIMULATOR|52=20160216-10:17:46.662|56=BANZAI|98=0|108=30|10=116|
8=FIX.4.2|9=73|35=2|34=209|49=FIXIMULATOR|52=20160216-10:17:46.665|56=BANZAI|7=198|16=0|10=059|
8=FIX.4.2|9=196|35=D|34=198|43=Y|49=BANZAI|52=20160216-10:17:46.673|56=FIXIMULATOR|122=20160216-10:17:45.680|1=TIGR|11=1455617865642|21=1|38=10|40=1|54=1|55=NTES|60=20160216-10:17:45.669|100=ARCA|109=TIGR|167=CS|10=059|
8=FIX.4.2|9=106|35=4|34=199|43=Y|49=BANZAI|52=20160216-10:17:46.674|56=FIXIMULATOR|122=20160216-10:17:46.674|36=200|123=Y|10=242|
8=FIX.4.2|9=176|35=8|34=210|49=FIXIMULATOR|52=20160216-10:17:52.669|56=BANZAI|6=0|11=1455617865642|14=0|17=E1455617872674|20=0|31=0|32=0|37=O1455617866682|38=10|39=0|54=1|55=NTES|150=0|151=10|10=212|
8=FIX.4.2|9=62|35=0|34=200|49=BANZAI|52=20160216-10:18:17.645|56=FIXIMULATOR|10=063|
8=FIX.4.2|9=62|35=0|34=211|49=FIXIMULATOR|52=20160216-10:18:22.756|56=BANZAI|10=064|
8=FIX.4.2|9=74|35=A|34=202|49=BANZAI|52=20160216-10:18:58.274|56=FIXIMULATOR|98=0|108=30|10=113|
8=FIX.4.2|9=74|35=A|34=212|49=FIXIMULATOR|52=20160216-10:18:58.287|56=BANZAI|98=0|108=30|10=118|
8=FIX.4.2|9=73|35=2|34=213|49=FIXIMULATOR|52=20160216-10:18:58.290|56=BANZAI|7=201|16=0|10=037|
8=FIX.4.2|9=196|35=D|34=201|43=Y|49=BANZAI|52=20160216-10:18:58.296|56=FIXIMULATOR|122=20160216-10:18:57.307|1=TIGR|11=1455617937266|21=1|38=10|40=1|54=1|55=NTES|60=20160216-10:18:57.300|100=ARCA|109=TIGR|167=CS|10=037|
8=FIX.4.2|9=106|35=4|34=202|43=Y|49=BANZAI|52=20160216-10:18:58.297|56=FIXIMULATOR|122=20160216-10:18:58.297|36=203|123=Y|10=240|
8=FIX.4.2|9=176|35=8|34=214|49=FIXIMULATOR|52=20160216-10:19:01.926|56=BANZAI|6=0|11=1455617937266|14=0|17=E1455617941932|20=0|31=0|32=0|37=O1455617938306|38=10|39=0|54=1|55=NTES|150=0|151=10|10=197|
8=FIX.4.2|9=62|35=0|34=203|49=BANZAI|52=20160216-10:19:29.268|56=FIXIMULATOR|10=071|
8=FIX.4.2|9=62|35=0|34=215|49=FIXIMULATOR|52=20160216-10:19:32.757|56=BANZAI|10=071|
8=FIX.4.2|9=62|35=0|34=204|49=BANZAI|52=20160216-10:19:59.266|56=FIXIMULATOR|10=073|
8=FIX.4.2|9=62|35=0|34=216|49=FIXIMULATOR|52=20160216-10:20:03.757|56=BANZAI|10=062|
8=FIX.4.2|9=62|35=0|34=205|49=BANZAI|52=20160216-10:20:29.266|56=FIXIMULATOR|10=063|
8=FIX.4.2|9=62|35=0|34=217|49=FIXIMULATOR|52=20160216-10:20:34.758|56=BANZAI|10=068|
8=FIX.4.2|9=62|35=0|34=206|49=BANZAI|52=20160216-10:20:59.265|56=FIXIMULATOR|10=066|
8=FIX.4.2|9=62|35=0|34=218|49=FIXIMULATOR|52=20160216-10:21:05.754|56=BANZAI|10=064|
8=FIX.4.2|9=62|35=0|34=207|49=BANZAI|52=20160216-10:21:29.264|56=FIXIMULATOR|10=064|
8=FIX.4.2|9=62|35=0|34=219|49=FIXIMULATOR|52=20160216-10:21:35.757|56=BANZAI|10=071|
8=FIX.4.2|9=62|35=0|34=208|49=BANZAI|52=20160216-10:21:59.260|56=FIXIMULATOR|10=064|
8=FIX.4.2|9=62|35=0|34=220|49=FIXIMULATOR|52=20160216-10:22:05.757|56=BANZAI|10=061|
8=FIX.4.2|9=62|35=0|34=209|49=BANZAI|52=20160216-10:22:29.262|56=FIXIMULATOR|10=065|
8=FIX.4.2|9=62|35=0|34=221|49=FIXIMULATOR|52=20160216-10:22:36.755|56=BANZAI|10=064|
8=FIX.4.2|9=62|35=0|34=210|49=BANZAI|52=20160216-10:22:59.261|56=FIXIMULATOR|10=059|
8=FIX.4.2|9=62|35=0|34=222|49=FIXIMULATOR|52=20160216-10:23:06.755|56=BANZAI|10=063|
8=FIX.4.2|9=62|35=0|34=211|49=BANZAI|52=20160216-10:23:29.260|56=FIXIMULATOR|10=057|
8=FIX.4.2|9=62|35=0|34=223|49=FIXIMULATOR|52=20160216-10:23:36.756|56=BANZAI|10=068|
8=FIX.4.2|9=62|35=0|34=212|49=BANZAI|52=20160216-10:23:59.258|56=FIXIMULATOR|10=068|
8=FIX.4.2|9=62|35=0|34=224|49=FIXIMULATOR|52=20160216-10:24:06.758|56=BANZAI|10=069|
8=FIX.4.2|9=62|35=0|34=213|49=BANZAI|52=20160216-10:24:29.259|56=FIXIMULATOR|10=068|
8=FIX.4.2|9=62|35=0|34=225|49=FIXIMULATOR|52=20160216-10:24:37.758|56=BANZAI|10=074|
8=FIX.4.2|9=62|35=0|34=214|49=BANZAI|52=20160216-10:24:59.257|56=FIXIMULATOR|10=070|
8=FIX.4.2|9=62|35=0|34=226|49=FIXIMULATOR|52=20160216-10:25:07.758|56=BANZAI|10=073|
8=FIX.4.2|9=62|35=0|34=215|49=BANZAI|52=20160216-10:25:29.257|56=FIXIMULATOR|10=069|
8=FIX.4.2|9=62|35=0|34=227|49=FIXIMULATOR|52=20160216-10:25:38.757|56=BANZAI|10=077|
8=FIX.4.2|9=62|35=0|34=216|49=BANZAI|52=20160216-10:25:59.254|56=FIXIMULATOR|10=070|
8=FIX.4.2|9=62|35=0|34=228|49=FIXIMULATOR|52=20160216-10:26:09.757|56=BANZAI|10=077|
8=FIX.4.2|9=62|35=0|34=217|49=BANZAI|52=20160216-10:26:29.255|56=FIXIMULATOR|10=070|
8=FIX.4.2|9=62|35=0|34=229|49=FIXIMULATOR|52=20160216-10:26:39.758|56=BANZAI|10=082|
8=FIX.4.2|9=62|35=0|34=218|49=BANZAI|52=20160216-10:26:59.251|56=FIXIMULATOR|10=070|
8=FIX.4.2|9=62|35=0|34=230|49=FIXIMULATOR|52=20160216-10:27:10.757|56=BANZAI|10=063|
8=FIX.4.2|9=62|35=0|34=219|49=BANZAI|52=20160216-10:27:29.254|56=FIXIMULATOR|10=072|
8=FIX.4.2|9=62|35=0|34=231|49=FIXIMULATOR|52=20160216-10:27:41.756|56=BANZAI|10=067|
8=FIX.4.2|9=62|35=0|34=220|49=BANZAI|52=20160216-10:27:59.250|56=FIXIMULATOR|10=063|
8=FIX.4.2|9=62|35=0|34=232|49=FIXIMULATOR|52=20160216-10:28:12.758|56=BANZAI|10=069|
8=FIX.4.2|9=62|35=0|34=221|49=BANZAI|52=20160216-10:28:29.250|56=FIXIMULATOR|10=062|
8=FIX.4.2|9=62|35=0|34=233|49=FIXIMULATOR|52=20160216-10:28:43.757|56=BANZAI|10=073|
8=FIX.4.2|9=62|35=0|34=222|49=BANZAI|52=20160216-10:28:59.250|56=FIXIMULATOR|10=066|
8=FIX.4.2|9=74|35=A|34=224|49=BANZAI|52=20160216-10:29:20.926|56=FIXIMULATOR|98=0|108=30|10=112|
8=FIX.4.2|9=74|35=A|34=234|49=FIXIMULATOR|52=20160216-10:29:20.938|56=BANZAI|98=0|108=30|10=116|
8=FIX.4.2|9=73|35=2|34=235|49=FIXIMULATOR|52=20160216-10:29:20.940|56=BANZAI|7=223|16=0|10=038|
8=FIX.4.2|9=196|35=D|34=223|43=Y|49=BANZAI|52=20160216-10:29:20.946|56=FIXIMULATOR|122=20160216-10:29:19.953|1=TIGR|11=1455618559921|21=1|38=10|40=1|54=1|55=NTES|60=20160216-10:29:19.947|100=ARCA|109=TIGR|167=CS|10=057|
8=FIX.4.2|9=106|35=4|34=224|43=Y|49=BANZAI|52=20160216-10:29:20.947|56=FIXIMULATOR|122=20160216-10:29:20.947|36=225|123=Y|10=234|
8=FIX.4.2|9=176|35=8|34=236|49=FIXIMULATOR|52=20160216-10:29:25.155|56=BANZAI|6=0|11=1455618559921|14=0|17=E1455618565162|20=0|31=0|32=0|37=O1455618560956|38=10|39=0|54=1|55=NTES|150=0|151=10|10=202|
8=FIX.4.2|9=62|35=0|34=225|49=BANZAI|52=20160216-10:29:51.923|56=FIXIMULATOR|10=069|
8=FIX.4.2|9=62|35=0|34=237|49=FIXIMULATOR|52=20160216-10:29:55.753|56=BANZAI|10=077|
8=FIX.4.2|9=62|35=0|34=226|49=BANZAI|52=20160216-10:30:21.921|56=FIXIMULATOR|10=057|
8=FIX.4.2|9=62|35=0|34=238|49=FIXIMULATOR|52=20160216-10:30:25.757|56=BANZAI|10=071|
8=FIX.4.2|9=62|35=0|34=227|49=BANZAI|52=20160216-10:30:51.921|56=FIXIMULATOR|10=061|
8=FIX.4.2|9=62|35=0|34=239|49=FIXIMULATOR|52=20160216-10:30:56.757|56=BANZAI|10=076|
8=FIX.4.2|9=62|35=0|34=228|49=BANZAI|52=20160216-10:31:21.918|56=FIXIMULATOR|10=066|
8=FIX.4.2|9=62|35=0|34=240|49=FIXIMULATOR|52=20160216-10:31:27.757|56=BANZAI|10=067|
8=FIX.4.2|9=62|35=0|34=229|49=BANZAI|52=20160216-10:31:51.917|56=FIXIMULATOR|10=069|
8=FIX.4.2|9=62|35=0|34=241|49=FIXIMULATOR|52=20160216-10:31:57.757|56=BANZAI|10=071|
8=FIX.4.2|9=62|35=0|34=230|49=BANZAI|52=20160216-10:32:21.915|56=FIXIMULATOR|10=057|
8=FIX.4.2|9=62|35=0|34=242|49=FIXIMULATOR|52=20160216-10:32:28.754|56=BANZAI|10=068|
8=FIX.4.2|9=62|35=0|34=231|49=BANZAI|52=20160216-10:32:51.918|56=FIXIMULATOR|10=064|
8=FIX.4.2|9=62|35=0|34=243|49=FIXIMULATOR|52=20160216-10:32:58.754|56=BANZAI|10=072|
8=FIX.4.2|9=62|35=0|34=232|49=BANZAI|52=20160216-10:33:21.916|56=FIXIMULATOR|10=061|
8=FIX.4.2|9=62|35=0|34=244|49=FIXIMULATOR|52=20160216-10:33:28.754|56=BANZAI|10=071|
8=FIX.4.2|9=62|35=0|34=233|49=BANZAI|52=20160216-10:33:51.916|56=FIXIMULATOR|10=065|
8=FIX.4.2|9=62|35=0|34=245|49=FIXIMULATOR|52=20160216-10:33:58.756|56=BANZAI|10=077|
8=FIX.4.2|9=62|35=0|34=234|49=BANZAI|52=20160216-10:34:21.910|56=FIXIMULATOR|10=058|
8=FIX.4.2|9=62|35=0|34=246|49=FIXIMULATOR|52=20160216-10:34:29.756|56=BANZAI|10=077|
8=FIX.4.2|9=62|35=0|34=235|49=BANZAI|52=20160216-10:34:51.911|56=FIXIMULATOR|10=063|
8=FIX.4.2|9=62|35=0|34=247|49=FIXIMULATOR|52=20160216-10:34:59.758|56=BANZAI|10=083|
8=FIX.4.2|9=62|35=0|34=236|49=BANZAI|52=20160216-10:35:21.912|56=FIXIMULATOR|10=063|
8=FIX.4.2|9=62|35=0|34=248|49=FIXIMULATOR|52=20160216-10:35:29.758|56=BANZAI|10=082|
8=FIX.4.2|9=62|35=0|34=237|49=BANZAI|52=20160216-10:35:51.910|56=FIXIMULATOR|10=065|
8=FIX.4.2|9=62|35=0|34=249|49=FIXIMULATOR|52=20160216-10:36:00.756|56=BANZAI|10=071|
8=FIX.4.2|9=62|35=0|34=238|49=BANZAI|52=20160216-10:36:21.911|56=FIXIMULATOR|10=065|
8=FIX.4.2|9=62|35=0|34=250|49=FIXIMULATOR|52=20160216-10:36:30.756|56=BANZAI|10=066|
8=FIX.4.2|9=62|35=0|34=239|49=BANZAI|52=20160216-10:36:51.905|56=FIXIMULATOR|10=072|
8=FIX.4.2|9=62|35=0|34=251|49=FIXIMULATOR|52=20160216-10:37:00.757|56=BANZAI|10=066|
8=FIX.4.2|9=62|35=0|34=240|49=BANZAI|52=20160216-10:37:21.907|56=FIXIMULATOR|10=064|
8=FIX.4.2|9=62|35=0|34=252|49=FIXIMULATOR|52=20160216-10:37:31.758|56=BANZAI|10=072|
8=FIX.4.2|9=62|35=0|34=241|49=BANZAI|52=20160216-10:37:51.908|56=FIXIMULATOR|10=069|
8=FIX.4.2|9=62|35=0|34=253|49=FIXIMULATOR|52=20160216-10:38:01.758|56=BANZAI|10=071|
8=FIX.4.2|9=62|35=0|34=242|49=BANZAI|52=20160216-10:38:21.906|56=FIXIMULATOR|10=066|
8=FIX.4.2|9=62|35=0|34=254|49=FIXIMULATOR|52=20160216-10:38:32.756|56=BANZAI|10=074|
8=FIX.4.2|9=62|35=0|34=243|49=BANZAI|52=20160216-10:38:51.905|56=FIXIMULATOR|10=069|
8=FIX.4.2|9=62|35=0|34=255|49=FIXIMULATOR|52=20160216-10:39:03.753|56=BANZAI|10=071|
8=FIX.4.2|9=62|35=0|34=244|49=BANZAI|52=20160216-10:39:21.902|56=FIXIMULATOR|10=065|
8=FIX.4.2|9=62|35=0|34=256|49=FIXIMULATOR|52=20160216-10:39:33.756|56=BANZAI|10=078|
8=FIX.4.2|9=62|35=0|34=245|49=BANZAI|52=20160216-10:39:51.904|56=FIXIMULATOR|10=071|
8=FIX.4.2|9=62|35=0|34=257|49=FIXIMULATOR|52=20160216-10:40:03.758|56=BANZAI|10=070|
8=FIX.4.2|9=62|35=0|34=246|49=BANZAI|52=20160216-10:40:21.904|56=FIXIMULATOR|10=061|
8=FIX.4.2|9=62|35=0|34=258|49=FIXIMULATOR|52=20160216-10:40:34.755|56=BANZAI|10=072|
8=FIX.4.2|9=62|35=0|34=247|49=BANZAI|52=20160216-10:40:51.901|56=FIXIMULATOR|10=062|
8=FIX.4.2|9=62|35=0|34=259|49=FIXIMULATOR|52=20160216-10:41:04.757|56=BANZAI|10=073|
8=FIX.4.2|9=62|35=0|34=248|49=BANZAI|52=20160216-10:41:21.900|56=FIXIMULATOR|10=060|
8=FIX.4.2|9=62|35=0|34=260|49=FIXIMULATOR|52=20160216-10:41:34.757|56=BANZAI|10=068|
8=FIX.4.2|9=62|35=0|34=249|49=BANZAI|52=20160216-10:41:51.899|56=FIXIMULATOR|10=081|
8=FIX.4.2|9=62|35=0|34=261|49=FIXIMULATOR|52=20160216-10:42:05.758|56=BANZAI|10=069|
8=FIX.4.2|9=62|35=0|34=250|49=BANZAI|52=20160216-10:42:21.897|56=FIXIMULATOR|10=069|
8=FIX.4.2|9=62|35=0|34=262|49=FIXIMULATOR|52=20160216-10:42:36.755|56=BANZAI|10=071|
8=FIX.4.2|9=62|35=0|34=251|49=BANZAI|52=20160216-10:42:51.899|56=FIXIMULATOR|10=075|
8=FIX.4.2|9=62|35=0|34=263|49=FIXIMULATOR|52=20160216-10:43:06.757|56=BANZAI|10=072|
8=FIX.4.2|9=62|35=0|34=252|49=BANZAI|52=20160216-10:43:21.902|56=FIXIMULATOR|10=059|
8=FIX.4.2|9=62|35=0|34=264|49=FIXIMULATOR|52=20160216-10:43:36.761|56=BANZAI|10=071|
8=FIX.4.2|9=74|35=A|34=253|49=BANZAI|52=20160216-13:43:45.945|56=FIXIMULATOR|98=0|108=30|10=121|
8=FIX.4.2|9=74|35=A|34=265|49=FIXIMULATOR|52=20160216-13:43:45.950|56=BANZAI|98=0|108=30|10=120|
8=FIX.4.2|9=71|35=1|34=266|49=FIXIMULATOR|52=20160216-13:44:43.309|56=BANZAI|112=TEST|10=092|
8=FIX.4.2|9=71|35=1|34=254|49=BANZAI|52=20160216-13:44:43.394|56=FIXIMULATOR|112=TEST|10=093|
8=FIX.4.2|9=71|35=0|34=267|49=FIXIMULATOR|52=20160216-13:44:44.171|56=BANZAI|112=TEST|10=090|
8=FIX.4.2|9=71|35=0|34=255|49=BANZAI|52=20160216-13:44:44.191|56=FIXIMULATOR|112=TEST|10=089|
8=FIX.4.2|9=62|35=0|34=268|49=FIXIMULATOR|52=20160216-13:45:14.758|56=BANZAI|10=082|
8=FIX.4.2|9=62|35=0|34=256|49=BANZAI|52=20160216-13:45:14.764|56=FIXIMULATOR|10=076|
8=FIX.4.2|9=62|35=0|34=269|49=FIXIMULATOR|52=20160216-13:45:44.758|56=BANZAI|10=086|
8=FIX.4.2|9=62|35=0|34=257|49=BANZAI|52=20160216-13:45:44.767|56=FIXIMULATOR|10=083|
8=FIX.4.2|9=74|35=A|34=258|49=BANZAI|52=20160217-01:44:27.714|56=FIXIMULATOR|98=0|108=30|10=119|
8=FIX.4.2|9=72|35=A|34=1|49=FIXIMULATOR|52=20160217-01:44:27.750|56=BANZAI|98=0|108=30|10=007|
8=FIX.4.2|9=69|35=2|34=2|49=FIXIMULATOR|52=20160217-01:44:27.761|56=BANZAI|7=1|16=0|10=099|
8=FIX.4.2|9=113|35=5|34=259|49=BANZAI|52=20160217-01:44:27.773|56=FIXIMULATOR|58=MsgSeqNum too low, expecting 270 but received 1|10=128|
8=FIX.4.2|9=60|35=5|34=3|49=FIXIMULATOR|52=20160217-01:44:27.778|56=BANZAI|10=235|
8=FIX.4.2|9=74|35=A|34=260|49=BANZAI|52=20160217-01:44:32.712|56=FIXIMULATOR|98=0|108=30|10=106|
8=FIX.4.2|9=72|35=A|34=4|49=FIXIMULATOR|52=20160217-01:44:32.719|56=BANZAI|98=0|108=30|10=011|
8=FIX.4.2|9=113|35=5|34=261|49=BANZAI|52=20160217-01:44:32.721|56=FIXIMULATOR|58=MsgSeqNum too low, expecting 270 but received 4|10=113|
8=FIX.4.2|9=69|35=2|34=5|49=FIXIMULATOR|52=20160217-01:44:32.723|56=BANZAI|7=2|16=0|10=097|
8=FIX.4.2|9=60|35=5|34=6|49=FIXIMULATOR|52=20160217-01:44:32.727|56=BANZAI|10=228|
8=FIX.4.2|9=74|35=A|34=262|49=BANZAI|52=20160217-01:44:37.712|56=FIXIMULATOR|98=0|108=30|10=113|
8=FIX.4.2|9=72|35=A|34=7|49=FIXIMULATOR|52=20160217-01:44:37.721|56=BANZAI|98=0|108=30|10=012|
8=FIX.4.2|9=113|35=5|34=263|49=BANZAI|52=20160217-01:44:37.723|56=FIXIMULATOR|58=MsgSeqNum too low, expecting 270 but received 7|10=125|
8=FIX.4.2|9=69|35=2|34=8|49=FIXIMULATOR|52=20160217-01:44:37.725|56=BANZAI|7=3|16=0|10=108|
8=FIX.4.2|9=74|35=A|34=264|49=BANZAI|52=20160217-01:44:42.710|56=FIXIMULATOR|98=0|108=30|10=109|
8=FIX.4.2|9=72|35=A|34=9|49=FIXIMULATOR|52=20160217-01:44:42.722|56=BANZAI|98=0|108=30|10=011|
8=FIX.4.2|9=113|35=5|34=265|49=BANZAI|52=20160217-01:44:42.724|56=FIXIMULATOR|58=MsgSeqNum too low, expecting 270 but received 9|10=126|
8=FIX.4.2|9=70|35=2|34=10|49=FIXIMULATOR|52=20160217-01:44:42.725|56=BANZAI|7=3|16=0|10=137|
8=FIX.4.2|9=61|35=5|34=11|49=FIXIMULATOR|52=20160217-01:44:42.729|56=BANZAI|10=020|
8=FIX.4.2|9=74|35=A|34=266|49=BANZAI|52=20160217-01:44:47.712|56=FIXIMULATOR|98=0|108=30|10=118|
8=FIX.4.2|9=73|35=A|34=12|49=FIXIMULATOR|52=20160217-01:44:47.719|56=BANZAI|98=0|108=30|10=065|
8=FIX.4.2|9=114|35=5|34=267|49=BANZAI|52=20160217-01:44:47.721|56=FIXIMULATOR|58=MsgSeqNum too low, expecting 270 but received 12|10=173|
8=FIX.4.2|9=70|35=2|34=13|49=FIXIMULATOR|52=20160217-01:44:47.722|56=BANZAI|7=4|16=0|10=143|
8=FIX.4.2|9=74|35=A|34=269|49=BANZAI|52=20160217-01:45:05.285|56=FIXIMULATOR|98=0|108=30|10=121|
8=FIX.4.2|9=73|35=A|34=14|49=FIXIMULATOR|52=20160217-01:45:05.298|56=BANZAI|98=0|108=30|10=064|
8=FIX.4.2|9=70|35=2|34=15|49=FIXIMULATOR|52=20160217-01:45:05.301|56=BANZAI|7=4|16=0|10=133|
8=FIX.4.2|9=114|35=5|34=270|49=BANZAI|52=20160217-01:45:05.305|56=FIXIMULATOR|58=MsgSeqNum too low, expecting 270 but received 14|10=162|
8=FIX.4.2|9=61|35=5|34=16|49=FIXIMULATOR|52=20160217-01:45:05.312|56=BANZAI|10=013|
8=FIX.4.2|9=74|35=A|34=271|49=BANZAI|52=20160217-01:45:10.280|56=FIXIMULATOR|98=0|108=30|10=105|
8=FIX.4.2|9=73|35=A|34=17|49=FIXIMULATOR|52=20160217-01:45:10.289|56=BANZAI|98=0|108=30|10=063|
8=FIX.4.2|9=114|35=5|34=272|49=BANZAI|52=20160217-01:45:10.292|56=FIXIMULATOR|58=MsgSeqNum too low, expecting 270 but received 17|10=168|
8=FIX.4.2|9=70|35=2|34=18|49=FIXIMULATOR|52=20160217-01:45:10.293|56=BANZAI|7=5|16=0|10=143|
8=FIX.4.2|9=74|35=A|34=273|49=BANZAI|52=20160217-01:45:15.282|56=FIXIMULATOR|98=0|108=30|10=114|
8=FIX.4.2|9=73|35=A|34=19|49=FIXIMULATOR|52=20160217-01:45:15.290|56=BANZAI|98=0|108=30|10=062|
8=FIX.4.2|9=114|35=5|34=274|49=BANZAI|52=20160217-01:45:15.292|56=FIXIMULATOR|58=MsgSeqNum too low, expecting 270 but received 19|10=177|
8=FIX.4.2|9=70|35=2|34=20|49=FIXIMULATOR|52=20160217-01:45:15.293|56=BANZAI|7=6|16=0|10=142|
8=FIX.4.2|9=61|35=5|34=21|49=FIXIMULATOR|52=20160217-01:45:15.297|56=BANZAI|10=022|
8=FIX.4.2|9=74|35=A|34=275|49=BANZAI|52=20160217-01:45:20.282|56=FIXIMULATOR|98=0|108=30|10=112|
8=FIX.4.2|9=73|35=A|34=22|49=FIXIMULATOR|52=20160217-01:45:20.289|56=BANZAI|98=0|108=30|10=060|
8=FIX.4.2|9=114|35=5|34=276|49=BANZAI|52=20160217-01:45:20.292|56=FIXIMULATOR|58=MsgSeqNum too low, expecting 270 but received 22|10=169|
8=FIX.4.2|9=70|35=2|34=23|49=FIXIMULATOR|52=20160217-01:45:20.292|56=BANZAI|7=7|16=0|10=141|
8=FIX.4.2|9=74|35=A|34=277|49=BANZAI|52=20160217-01:45:25.278|56=FIXIMULATOR|98=0|108=30|10=124|
8=FIX.4.2|9=73|35=A|34=24|49=FIXIMULATOR|52=20160217-01:45:25.285|56=BANZAI|98=0|108=30|10=063|
8=FIX.4.2|9=114|35=5|34=278|49=BANZAI|52=20160217-01:45:25.288|56=FIXIMULATOR|58=MsgSeqNum too low, expecting 270 but received 24|10=183|
8=FIX.4.2|9=70|35=2|34=25|49=FIXIMULATOR|52=20160217-01:45:25.289|56=BANZAI|7=7|16=0|10=154|
8=FIX.4.2|9=74|35=A|34=279|49=BANZAI|52=20160217-01:45:30.282|56=FIXIMULATOR|98=0|108=30|10=117|
8=FIX.4.2|9=73|35=A|34=26|49=FIXIMULATOR|52=20160217-01:45:30.289|56=BANZAI|98=0|108=30|10=065|
8=FIX.4.2|9=114|35=5|34=280|49=BANZAI|52=20160217-01:45:30.292|56=FIXIMULATOR|58=MsgSeqNum too low, expecting 270 but received 26|10=169|
8=FIX.4.2|9=70|35=2|34=27|49=FIXIMULATOR|52=20160217-01:45:30.293|56=BANZAI|7=7|16=0|10=147|
8=FIX.4.2|9=74|35=A|34=281|49=BANZAI|52=20160217-01:45:35.280|56=FIXIMULATOR|98=0|108=30|10=113|
8=FIX.4.2|9=73|35=A|34=28|49=FIXIMULATOR|52=20160217-01:45:35.285|56=BANZAI|98=0|108=30|10=068|
8=FIX.4.2|9=114|35=5|34=282|49=BANZAI|52=20160217-01:45:35.287|56=FIXIMULATOR|58=MsgSeqNum too low, expecting 270 but received 28|10=182|
8=FIX.4.2|9=70|35=2|34=29|49=FIXIMULATOR|52=20160217-01:45:35.288|56=BANZAI|7=7|16=0|10=158|
8=FIX.4.2|9=74|35=A|34=283|49=BANZAI|52=20160217-01:45:40.280|56=FIXIMULATOR|98=0|108=30|10=111|
8=FIX.4.2|9=73|35=A|34=30|49=FIXIMULATOR|52=20160217-01:45:40.287|56=BANZAI|98=0|108=30|10=059|
8=FIX.4.2|9=70|35=2|34=31|49=FIXIMULATOR|52=20160217-01:45:40.290|56=BANZAI|7=7|16=0|10=140|
8=FIX.4.2|9=114|35=5|34=284|49=BANZAI|52=20160217-01:45:40.289|56=FIXIMULATOR|58=MsgSeqNum too low, expecting 270 but received 30|10=175|
8=FIX.4.2|9=61|35=5|34=32|49=FIXIMULATOR|52=20160217-01:45:40.294|56=BANZAI|10=019|
8=FIX.4.2|9=78|35=A|34=1|49=BANZAI|52=20160217-01:45:54.409|56=FIXIMULATOR|98=0|108=30|141=Y|10=060|
8=FIX.4.2|9=78|35=A|34=1|49=FIXIMULATOR|52=20160217-01:45:54.425|56=BANZAI|98=0|108=30|141=Y|10=058|
8=FIX.4.2|9=78|35=A|34=1|49=BANZAI|52=20160217-01:46:00.400|56=FIXIMULATOR|98=0|108=30|141=Y|10=043|
8=FIX.4.2|9=78|35=A|34=1|49=FIXIMULATOR|52=20160217-01:46:00.411|56=BANZAI|98=0|108=30|141=Y|10=045|
8=FIX.4.2|9=60|35=0|34=2|49=BANZAI|52=20160217-01:46:30.396|56=FIXIMULATOR|10=221|
8=FIX.4.2|9=60|35=0|34=2|49=FIXIMULATOR|52=20160217-01:46:30.697|56=BANZAI|10=225|
8=FIX.4.2|9=60|35=0|34=3|49=BANZAI|52=20160217-01:47:00.394|56=FIXIMULATOR|10=218|
8=FIX.4.2|9=60|35=0|34=3|49=FIXIMULATOR|52=20160217-01:47:00.697|56=BANZAI|10=224|
8=FIX.4.2|9=78|35=A|34=1|49=BANZAI|52=20160217-06:47:49.976|56=FIXIMULATOR|98=0|108=30|141=Y|10=080|
8=FIX.4.2|9=78|35=A|34=1|49=FIXIMULATOR|52=20160217-06:47:50.016|56=BANZAI|98=0|108=30|141=Y|10=057|
8=FIX.4.2|9=60|35=0|34=2|49=FIXIMULATOR|52=20160217-06:48:20.764|56=BANZAI|10=226|
8=FIX.4.2|9=60|35=0|34=2|49=BANZAI|52=20160217-06:48:20.771|56=FIXIMULATOR|10=224|
8=FIX.4.2|9=78|35=A|34=1|49=BANZAI|52=20160217-06:48:56.130|56=FIXIMULATOR|98=0|108=30|141=Y|10=061|
8=FIX.4.2|9=78|35=A|34=1|49=FIXIMULATOR|52=20160217-06:48:56.149|56=BANZAI|98=0|108=30|141=Y|10=071|
8=FIX.4.2|9=60|35=0|34=2|49=BANZAI|52=20160217-06:49:26.122|56=FIXIMULATOR|10=221|
8=FIX.4.2|9=60|35=0|34=2|49=FIXIMULATOR|52=20160217-06:49:26.763|56=BANZAI|10=232|
8=FIX.4.2|9=60|35=0|34=3|49=BANZAI|52=20160217-06:49:56.122|56=FIXIMULATOR|10=225|
8=FIX.4.2|9=60|35=0|34=3|49=FIXIMULATOR|52=20160217-06:49:56.765|56=BANZAI|10=238|
8=FIX.4.2|9=60|35=0|34=4|49=BANZAI|52=20160217-06:50:26.120|56=FIXIMULATOR|10=213|
8=FIX.4.2|9=60|35=0|34=4|49=FIXIMULATOR|52=20160217-06:50:27.763|56=BANZAI|10=227|
8=FIX.4.2|9=60|35=0|34=5|49=BANZAI|52=20160217-06:50:56.120|56=FIXIMULATOR|10=217|
8=FIX.4.2|9=60|35=0|34=5|49=FIXIMULATOR|52=20160217-06:50:57.764|56=BANZAI|10=232|
8=FIX.4.2|9=60|35=0|34=6|49=BANZAI|52=20160217-06:51:26.120|56=FIXIMULATOR|10=216|
8=FIX.4.2|9=60|35=0|34=6|49=FIXIMULATOR|52=20160217-06:51:28.765|56=BANZAI|10=233|
8=FIX.4.2|9=78|35=A|34=1|49=BANZAI|52=20160217-06:52:34.614|56=FIXIMULATOR|98=0|108=30|141=Y|10=059|
8=FIX.4.2|9=78|35=A|34=1|49=FIXIMULATOR|52=20160217-06:52:34.630|56=BANZAI|98=0|108=30|141=Y|10=057|
8=FIX.4.2|9=60|35=0|34=2|49=BANZAI|52=20160217-06:53:04.608|56=FIXIMULATOR|10=221|
8=FIX.4.2|9=60|35=0|34=2|49=FIXIMULATOR|52=20160217-06:53:04.765|56=BANZAI|10=225|
8=FIX.4.2|9=60|35=0|34=3|49=BANZAI|52=20160217-06:53:34.605|56=FIXIMULATOR|10=222|
8=FIX.4.2|9=60|35=0|34=3|49=FIXIMULATOR|52=20160217-06:53:35.764|56=BANZAI|10=229|
8=FIX.4.2|9=60|35=0|34=4|49=BANZAI|52=20160217-06:54:04.604|56=FIXIMULATOR|10=220|
8=FIX.4.2|9=60|35=0|34=4|49=FIXIMULATOR|52=20160217-06:54:05.765|56=BANZAI|10=229|
8=FIX.4.2|9=60|35=0|34=5|49=BANZAI|52=20160217-06:54:34.601|56=FIXIMULATOR|10=221|
8=FIX.4.2|9=60|35=0|34=5|49=FIXIMULATOR|52=20160217-06:54:36.764|56=BANZAI|10=233|
8=FIX.4.2|9=60|35=0|34=6|49=BANZAI|52=20160217-06:55:04.603|56=FIXIMULATOR|10=222|
8=FIX.4.2|9=60|35=0|34=6|49=FIXIMULATOR|52=20160217-06:55:07.763|56=BANZAI|10=232|
8=FIX.4.2|9=60|35=0|34=7|49=BANZAI|52=20160217-06:55:34.601|56=FIXIMULATOR|10=224|
8=FIX.4.2|9=60|35=0|34=7|49=FIXIMULATOR|52=20160217-06:55:37.763|56=BANZAI|10=236|
8=FIX.4.2|9=60|35=0|34=8|49=BANZAI|52=20160217-06:56:04.599|56=FIXIMULATOR|10=239|
8=FIX.4.2|9=60|35=0|34=8|49=FIXIMULATOR|52=20160217-06:56:07.763|56=BANZAI|10=235|
8=FIX.4.2|9=60|35=0|34=9|49=BANZAI|52=20160217-06:56:34.599|56=FIXIMULATOR|10=243|
8=FIX.4.2|9=60|35=0|34=9|49=FIXIMULATOR|52=20160217-06:56:37.764|56=BANZAI|10=240|
8=FIX.4.2|9=61|35=0|34=10|49=BANZAI|52=20160217-06:57:04.596|56=FIXIMULATOR|10=023|
8=FIX.4.2|9=61|35=0|34=10|49=FIXIMULATOR|52=20160217-06:57:08.763|56=BANZAI|10=023|
8=FIX.4.2|9=61|35=0|34=11|49=BANZAI|52=20160217-06:57:34.596|56=FIXIMULATOR|10=027|
8=FIX.4.2|9=61|35=0|34=11|49=FIXIMULATOR|52=20160217-06:57:38.764|56=BANZAI|10=028|
8=FIX.4.2|9=61|35=0|34=12|49=BANZAI|52=20160217-06:58:04.595|56=FIXIMULATOR|10=025|
8=FIX.4.2|9=61|35=0|34=12|49=FIXIMULATOR|52=20160217-06:58:08.765|56=BANZAI|10=028|
8=FIX.4.2|9=61|35=0|34=13|49=BANZAI|52=20160217-06:58:34.595|56=FIXIMULATOR|10=029|
8=FIX.4.2|9=61|35=0|34=13|49=FIXIMULATOR|52=20160217-06:58:39.765|56=BANZAI|10=033|
8=FIX.4.2|9=61|35=0|34=14|49=BANZAI|52=20160217-06:59:04.594|56=FIXIMULATOR|10=027|
8=FIX.4.2|9=61|35=0|34=14|49=FIXIMULATOR|52=20160217-06:59:10.763|56=BANZAI|10=022|
8=FIX.4.2|9=61|35=0|34=15|49=BANZAI|52=20160217-06:59:34.593|56=FIXIMULATOR|10=030|
8=FIX.4.2|9=61|35=0|34=15|49=FIXIMULATOR|52=20160217-06:59:40.763|56=BANZAI|10=026|
8=FIX.4.2|9=61|35=0|34=16|49=BANZAI|52=20160217-07:00:04.590|56=FIXIMULATOR|10=012|
8=FIX.4.2|9=61|35=0|34=16|49=FIXIMULATOR|52=20160217-07:00:10.763|56=BANZAI|10=011|
8=FIX.4.2|9=61|35=0|34=17|49=BANZAI|52=20160217-07:00:34.591|56=FIXIMULATOR|10=017|
8=FIX.4.2|9=61|35=0|34=17|49=FIXIMULATOR|52=20160217-07:00:40.765|56=BANZAI|10=017|
8=FIX.4.2|9=61|35=0|34=18|49=BANZAI|52=20160217-07:01:04.590|56=FIXIMULATOR|10=015|
8=FIX.4.2|9=61|35=0|34=18|49=FIXIMULATOR|52=20160217-07:01:10.765|56=BANZAI|10=016|
8=FIX.4.2|9=61|35=0|34=19|49=BANZAI|52=20160217-07:01:34.588|56=FIXIMULATOR|10=026|
8=FIX.4.2|9=61|35=0|34=19|49=FIXIMULATOR|52=20160217-07:01:40.765|56=BANZAI|10=020|
8=FIX.4.2|9=61|35=0|34=20|49=BANZAI|52=20160217-07:02:04.587|56=FIXIMULATOR|10=015|
8=FIX.4.2|9=61|35=0|34=20|49=FIXIMULATOR|52=20160217-07:02:11.764|56=BANZAI|10=010|
8=FIX.4.2|9=61|35=0|34=21|49=BANZAI|52=20160217-07:02:34.587|56=FIXIMULATOR|10=019|
8=FIX.4.2|9=61|35=0|34=21|49=FIXIMULATOR|52=20160217-07:02:41.765|56=BANZAI|10=015|
8=FIX.4.2|9=61|35=0|34=22|49=BANZAI|52=20160217-07:03:04.585|56=FIXIMULATOR|10=016|
8=FIX.4.2|9=61|35=0|34=22|49=FIXIMULATOR|52=20160217-07:03:12.762|56=BANZAI|10=012|
8=FIX.4.2|9=61|35=0|34=23|49=BANZAI|52=20160217-07:03:34.584|56=FIXIMULATOR|10=019|
8=FIX.4.2|9=61|35=0|34=23|49=FIXIMULATOR|52=20160217-07:03:42.764|56=BANZAI|10=018|
8=FIX.4.2|9=61|35=0|34=24|49=BANZAI|52=20160217-07:04:04.583|56=FIXIMULATOR|10=017|
8=FIX.4.2|9=61|35=0|34=24|49=FIXIMULATOR|52=20160217-07:04:13.764|56=BANZAI|10=018|
8=FIX.4.2|9=61|35=0|34=25|49=BANZAI|52=20160217-07:04:34.583|56=FIXIMULATOR|10=021|
8=FIX.4.2|9=61|35=0|34=25|49=FIXIMULATOR|52=20160217-07:04:44.764|56=BANZAI|10=023|
8=FIX.4.2|9=61|35=0|34=26|49=BANZAI|52=20160217-07:05:04.586|56=FIXIMULATOR|10=023|
8=FIX.4.2|9=61|35=0|34=26|49=FIXIMULATOR|52=20160217-07:05:15.766|56=BANZAI|10=025|
8=FIX.4.2|9=78|35=A|34=1|49=BANZAI|52=20160217-07:16:50.184|56=FIXIMULATOR|98=0|108=30|141=Y|10=060|
8=FIX.4.2|9=78|35=A|34=1|49=FIXIMULATOR|52=20160217-07:16:50.195|56=BANZAI|98=0|108=30|141=Y|10=062|
8=FIX.4.2|9=60|35=0|34=2|49=BANZAI|52=20160217-07:17:20.179|56=FIXIMULATOR|10=223|
8=FIX.4.2|9=60|35=0|34=2|49=FIXIMULATOR|52=20160217-07:17:20.764|56=BANZAI|10=223|
8=FIX.4.2|9=60|35=0|34=3|49=BANZAI|52=20160217-07:17:50.178|56=FIXIMULATOR|10=226|
8=FIX.4.2|9=60|35=0|34=3|49=FIXIMULATOR|52=20160217-07:17:50.764|56=BANZAI|10=227|
8=FIX.4.2|9=60|35=0|34=4|49=BANZAI|52=20160217-07:18:20.174|56=FIXIMULATOR|10=221|
8=FIX.4.2|9=60|35=0|34=4|49=FIXIMULATOR|52=20160217-07:18:20.764|56=BANZAI|10=226|
8=FIX.4.2|9=60|35=0|34=5|49=BANZAI|52=20160217-07:18:50.177|56=FIXIMULATOR|10=228|
8=FIX.4.2|9=60|35=0|34=5|49=FIXIMULATOR|52=20160217-07:18:51.764|56=BANZAI|10=231|
8=FIX.4.2|9=60|35=0|34=6|49=BANZAI|52=20160217-07:19:20.174|56=FIXIMULATOR|10=224|
8=FIX.4.2|9=60|35=0|34=6|49=FIXIMULATOR|52=20160217-07:19:21.765|56=BANZAI|10=231|
8=FIX.4.2|9=60|35=0|34=7|49=BANZAI|52=20160217-07:19:50.174|56=FIXIMULATOR|10=228|
8=FIX.4.2|9=60|35=0|34=7|49=FIXIMULATOR|52=20160217-07:19:52.764|56=BANZAI|10=235|
8=FIX.4.2|9=60|35=0|34=8|49=BANZAI|52=20160217-07:20:20.172|56=FIXIMULATOR|10=216|
8=FIX.4.2|9=60|35=0|34=8|49=FIXIMULATOR|52=20160217-07:20:22.765|56=BANZAI|10=226|
8=FIX.4.2|9=60|35=0|34=9|49=BANZAI|52=20160217-07:20:50.172|56=FIXIMULATOR|10=220|
8=FIX.4.2|9=60|35=0|34=9|49=FIXIMULATOR|52=20160217-07:20:53.764|56=BANZAI|10=230|
8=FIX.4.2|9=61|35=0|34=10|49=BANZAI|52=20160217-07:21:20.171|56=FIXIMULATOR|10=002|
8=FIX.4.2|9=61|35=0|34=10|49=FIXIMULATOR|52=20160217-07:21:24.764|56=BANZAI|10=014|
8=FIX.4.2|9=78|35=A|34=1|49=BANZAI|52=20160217-07:22:11.084|56=FIXIMULATOR|98=0|108=30|141=Y|10=053|
8=FIX.4.2|9=78|35=A|34=1|49=FIXIMULATOR|52=20160217-07:22:11.100|56=BANZAI|98=0|108=30|141=Y|10=042|
8=FIX.4.2|9=60|35=0|34=2|49=FIXIMULATOR|52=20160217-07:22:41.764|56=BANZAI|10=222|
8=FIX.4.2|9=60|35=0|34=2|49=BANZAI|52=20160217-07:22:41.769|56=FIXIMULATOR|10=227|
8=FIX.4.2|9=60|35=0|34=3|49=FIXIMULATOR|52=20160217-07:23:11.764|56=BANZAI|10=221|
8=FIX.4.2|9=60|35=0|34=3|49=BANZAI|52=20160217-07:23:11.770|56=FIXIMULATOR|10=218|
8=FIX.4.2|9=60|35=0|34=4|49=BANZAI|52=20160217-07:23:42.071|56=FIXIMULATOR|10=217|
8=FIX.4.2|9=60|35=0|34=4|49=FIXIMULATOR|52=20160217-07:23:42.074|56=BANZAI|10=220|
8=FIX.4.2|9=78|35=A|34=1|49=BANZAI|52=20160217-07:23:55.130|56=FIXIMULATOR|98=0|108=30|141=Y|10=054|
8=FIX.4.2|9=78|35=A|34=1|49=FIXIMULATOR|52=20160217-07:23:55.155|56=BANZAI|98=0|108=30|141=Y|10=061|
8=FIX.4.2|9=78|35=A|34=1|49=BANZAI|52=20160217-07:24:16.607|56=FIXIMULATOR|98=0|108=30|141=Y|10=061|
8=FIX.4.2|9=78|35=A|34=1|49=FIXIMULATOR|52=20160217-07:24:16.630|56=BANZAI|98=0|108=30|141=Y|10=057|
8=FIX.4.2|9=60|35=0|34=2|49=BANZAI|52=20160217-07:24:46.599|56=FIXIMULATOR|10=235|
8=FIX.4.2|9=60|35=0|34=2|49=FIXIMULATOR|52=20160217-07:24:46.940|56=BANZAI|10=225|
8=FIX.4.2|9=60|35=0|34=3|49=BANZAI|52=20160217-07:25:16.597|56=FIXIMULATOR|10=232|
8=FIX.4.2|9=60|35=0|34=3|49=FIXIMULATOR|52=20160217-07:25:17.938|56=BANZAI|10=232|
8=FIX.4.2|9=78|35=A|34=1|49=BANZAI|52=20160217-07:26:06.526|56=FIXIMULATOR|98=0|108=30|141=Y|10=062|
8=FIX.4.2|9=78|35=A|34=1|49=FIXIMULATOR|52=20160217-07:26:06.561|56=BANZAI|98=0|108=30|141=Y|10=061|
8=FIX.4.2|9=60|35=0|34=2|49=FIXIMULATOR|52=20160217-07:26:37.312|56=BANZAI|10=220|
8=FIX.4.2|9=60|35=0|34=2|49=BANZAI|52=20160217-07:26:37.318|56=FIXIMULATOR|10=226|
8=FIX.4.2|9=78|35=A|34=1|49=BANZAI|52=20160217-07:27:48.957|56=FIXIMULATOR|98=0|108=30|141=Y|10=077|
8=FIX.4.2|9=78|35=A|34=1|49=FIXIMULATOR|52=20160217-07:27:48.974|56=BANZAI|98=0|108=30|141=Y|10=076|
8=FIX.4.2|9=60|35=0|34=2|49=FIXIMULATOR|52=20160217-07:28:19.311|56=BANZAI|10=221|
8=FIX.4.2|9=60|35=0|34=2|49=BANZAI|52=20160217-07:28:19.318|56=FIXIMULATOR|10=228|
8=FIX.4.2|9=60|35=0|34=3|49=BANZAI|52=20160217-07:28:49.942|56=FIXIMULATOR|10=235|
8=FIX.4.2|9=60|35=0|34=3|49=FIXIMULATOR|52=20160217-07:28:49.945|56=BANZAI|10=238|
8=FIX.4.2|9=60|35=0|34=4|49=BANZAI|52=20160217-07:29:19.942|56=FIXIMULATOR|10=234|
8=FIX.4.2|9=60|35=0|34=4|49=FIXIMULATOR|52=20160217-07:29:19.946|56=BANZAI|10=238|
8=FIX.4.2|9=60|35=0|34=5|49=BANZAI|52=20160217-07:29:49.941|56=FIXIMULATOR|10=237|
8=FIX.4.2|9=60|35=0|34=5|49=FIXIMULATOR|52=20160217-07:29:50.312|56=BANZAI|10=221|
8=FIX.4.2|9=78|35=A|34=1|49=BANZAI|52=20160217-07:30:26.265|56=FIXIMULATOR|98=0|108=30|141=Y|10=059|
8=FIX.4.2|9=78|35=A|34=1|49=FIXIMULATOR|52=20160217-07:30:26.285|56=BANZAI|98=0|108=30|141=Y|10=061|
8=FIX.4.2|9=163|35=D|34=2|49=BANZAI|52=20160217-07:30:30.267|56=FIXIMULATOR|1=TIGR|11=1455694230246|21=1|38=10|40=1|54=1|55=NTES|60=20160217-07:30:30.266|100=ARCA|109=TIGR|167=CS|10=169|
8=FIX.4.2|9=174|35=8|34=2|49=FIXIMULATOR|52=20160217-07:30:47.838|56=BANZAI|6=0|11=1455694230246|14=0|17=E1455694247827|20=0|31=0|32=0|37=O1455694230300|38=10|39=0|54=1|55=NTES|150=0|151=10|10=086|
8=FIX.4.2|9=60|35=0|34=3|49=BANZAI|52=20160217-07:31:01.247|56=FIXIMULATOR|10=215|
8=FIX.4.2|9=60|35=0|34=3|49=FIXIMULATOR|52=20160217-07:31:18.312|56=BANZAI|10=216|
8=FIX.4.2|9=78|35=A|34=1|49=BANZAI|52=20160217-07:32:26.436|56=FIXIMULATOR|98=0|108=30|141=Y|10=061|
8=FIX.4.2|9=78|35=A|34=1|49=FIXIMULATOR|52=20160217-07:32:26.452|56=BANZAI|98=0|108=30|141=Y|10=059|
8=FIX.4.2|9=163|35=D|34=2|49=BANZAI|52=20160217-07:32:30.444|56=FIXIMULATOR|1=TIGR|11=1455694350424|21=1|38=10|40=1|54=1|55=NTES|60=20160217-07:32:30.443|100=ARCA|109=TIGR|167=CS|10=168|
8=FIX.4.2|9=174|35=8|34=2|49=FIXIMULATOR|52=20160217-07:32:46.341|56=BANZAI|6=0|11=1455694350424|14=0|17=E1455694366342|20=0|31=0|32=0|37=O1455694350450|38=10|39=0|54=1|55=NTES|150=0|151=10|10=080|
8=FIX.4.2|9=60|35=0|34=3|49=BANZAI|52=20160217-07:33:01.423|56=FIXIMULATOR|10=213|
8=FIX.4.2|9=60|35=0|34=3|49=FIXIMULATOR|52=20160217-07:33:17.311|56=BANZAI|10=216|
8=FIX.4.2|9=60|35=0|34=4|49=BANZAI|52=20160217-07:33:31.419|56=FIXIMULATOR|10=222|
8=FIX.4.2|9=60|35=0|34=4|49=FIXIMULATOR|52=20160217-07:33:47.312|56=BANZAI|10=221|
8=FIX.4.2|9=60|35=0|34=5|49=BANZAI|52=20160217-07:34:01.421|56=FIXIMULATOR|10=214|
8=FIX.4.2|9=60|35=0|34=5|49=FIXIMULATOR|52=20160217-07:34:18.311|56=BANZAI|10=220|
8=FIX.4.2|9=60|35=0|34=6|49=BANZAI|52=20160217-07:34:31.418|56=FIXIMULATOR|10=224|
8=FIX.4.2|9=60|35=0|34=6|49=FIXIMULATOR|52=20160217-07:34:49.310|56=BANZAI|10=224|
8=FIX.4.2|9=78|35=A|34=1|49=BANZAI|52=20160217-07:35:10.319|56=FIXIMULATOR|98=0|108=30|141=Y|10=057|
8=FIX.4.2|9=78|35=A|34=1|49=FIXIMULATOR|52=20160217-07:35:10.336|56=BANZAI|98=0|108=30|141=Y|10=056|
8=FIX.4.2|9=163|35=D|34=2|49=BANZAI|52=20160217-07:35:14.324|56=FIXIMULATOR|1=TIGR|11=1455694514304|21=1|38=10|40=1|54=1|55=NTES|60=20160217-07:35:14.323|100=ARCA|109=TIGR|167=CS|10=171|
8=FIX.4.2|9=174|35=8|34=2|49=FIXIMULATOR|52=20160217-07:35:19.983|56=BANZAI|6=0|11=1455694514304|14=0|17=E1455694519986|20=0|31=0|32=0|37=O1455694514330|38=10|39=0|54=1|55=NTES|150=0|151=10|10=107|
8=FIX.4.2|9=60|35=0|34=3|49=BANZAI|52=20160217-07:35:45.305|56=FIXIMULATOR|10=222|
8=FIX.4.2|9=60|35=0|34=3|49=FIXIMULATOR|52=20160217-07:35:50.311|56=BANZAI|10=215|
8=FIX.4.2|9=60|35=0|34=4|49=BANZAI|52=20160217-07:36:15.302|56=FIXIMULATOR|10=218|
8=FIX.4.2|9=60|35=0|34=4|49=FIXIMULATOR|52=20160217-07:36:21.310|56=BANZAI|10=214|
8=FIX.4.2|9=60|35=0|34=5|49=BANZAI|52=20160217-07:36:45.302|56=FIXIMULATOR|10=222|
8=FIX.4.2|9=60|35=0|34=5|49=FIXIMULATOR|52=20160217-07:36:52.310|56=BANZAI|10=219|
8=FIX.4.2|9=60|35=0|34=6|49=BANZAI|52=20160217-07:37:15.302|56=FIXIMULATOR|10=221|
8=FIX.4.2|9=60|35=0|34=6|49=FIXIMULATOR|52=20160217-07:37:22.310|56=BANZAI|10=218|
8=FIX.4.2|9=78|35=A|34=1|49=BANZAI|52=20160217-07:37:49.355|56=FIXIMULATOR|98=0|108=30|141=Y|10=071|
8=FIX.4.2|9=78|35=A|34=1|49=FIXIMULATOR|52=20160217-07:37:49.372|56=BANZAI|98=0|108=30|141=Y|10=070|
8=FIX.4.2|9=163|35=D|34=2|49=BANZAI|52=20160217-07:37:53.366|56=FIXIMULATOR|1=TIGR|11=1455694673337|21=1|38=10|40=1|54=1|55=NTES|60=20160217-07:37:53.364|100=ARCA|109=TIGR|167=CS|10=204|
8=FIX.4.2|9=174|35=8|34=2|49=FIXIMULATOR|52=20160217-07:38:03.854|56=BANZAI|6=0|11=1455694673337|14=0|17=E1455694683857|20=0|31=0|32=0|37=O1455694673374|38=10|39=0|54=1|55=NTES|150=0|151=10|10=125|
8=FIX.4.2|9=60|35=0|34=3|49=BANZAI|52=20160217-07:38:24.336|56=FIXIMULATOR|10=226|
8=FIX.4.2|9=60|35=0|34=3|49=FIXIMULATOR|52=20160217-07:38:34.311|56=BANZAI|10=220|
8=FIX.4.2|9=78|35=A|34=1|49=BANZAI|52=20160217-07:39:07.632|56=FIXIMULATOR|98=0|108=30|141=Y|10=065|
8=FIX.4.2|9=78|35=A|34=1|49=FIXIMULATOR|52=20160217-07:39:07.650|56=BANZAI|98=0|108=30|141=Y|10=065|
