8=FIX.4.2|9=72|35=A|34=1|49=FIXIMULATOR|52=20160308-00:00:38.959|56=BANZAI|98=0|108=20|10=011|8=FIX.4.2|9=60|35=0|34=2|49=FIXIMULATOR|52=20160308-00:00:59.911|56=BANZAI|10=215|8=FIX.4.2|9=60|35=0|34=3|49=FIXIMULATOR|52=20160308-00:01:20.910|56=BANZAI|10=204|8=FIX.4.2|9=72|35=A|34=4|49=FIXIMULATOR|52=20160308-00:02:25.367|56=BANZAI|98=0|108=20|10=005|8=FIX.4.2|9=60|35=0|34=5|49=FIXIMULATOR|52=20160308-00:02:46.318|56=BANZAI|10=217|8=FIX.4.2|9=60|35=0|34=6|49=FIXIMULATOR|52=20160308-00:03:07.317|56=BANZAI|10=215|8=FIX.4.2|9=72|35=A|34=7|49=FIXIMULATOR|52=20160308-00:04:12.744|56=BANZAI|98=0|108=20|10=005|8=FIX.4.2|9=60|35=0|34=8|49=FIXIMULATOR|52=20160308-00:04:33.700|56=BANZAI|10=213|8=FIX.4.2|9=60|35=0|34=9|49=FIXIMULATOR|52=20160308-00:04:54.700|56=BANZAI|10=217|8=FIX.4.2|9=73|35=A|34=10|49=FIXIMULATOR|52=20160308-00:05:59.127|56=BANZAI|98=0|108=20|10=055|8=FIX.4.2|9=61|35=0|34=11|49=FIXIMULATOR|52=20160308-00:06:20.076|56=BANZAI|10=004|8=FIX.4.2|9=61|35=0|34=12|49=FIXIMULATOR|52=20160308-00:06:40.077|56=BANZAI|10=008|8=FIX.4.2|9=73|35=A|34=13|49=FIXIMULATOR|52=20160308-00:07:45.529|56=BANZAI|98=0|108=20|10=061|8=FIX.4.2|9=61|35=0|34=14|49=FIXIMULATOR|52=20160308-00:08:05.530|56=BANZAI|10=007|8=FIX.4.2|9=61|35=0|34=15|49=FIXIMULATOR|52=20160308-00:08:26.482|56=BANZAI|10=017|8=FIX.4.2|9=73|35=A|34=16|49=FIXIMULATOR|52=20160308-00:09:32.937|56=BANZAI|98=0|108=20|10=065|8=FIX.4.2|9=61|35=0|34=17|49=FIXIMULATOR|52=20160308-00:09:53.887|56=BANZAI|10=029|8=FIX.4.2|9=61|35=0|34=18|49=FIXIMULATOR|52=20160308-00:10:14.885|56=BANZAI|10=017|8=FIX.4.2|9=73|35=A|34=19|49=FIXIMULATOR|52=20160308-00:11:19.330|56=BANZAI|98=0|108=20|10=053|8=FIX.4.2|9=61|35=0|34=20|49=FIXIMULATOR|52=20160308-00:11:39.330|56=BANZAI|10=003|8=FIX.4.2|9=61|35=0|34=21|49=FIXIMULATOR|52=20160308-00:11:59.330|56=BANZAI|10=006|8=FIX.4.2|9=73|35=A|34=22|49=FIXIMULATOR|52=20160308-00:13:06.749|56=BANZAI|98=0|108=20|10=059|8=FIX.4.2|9=61|35=0|34=23|49=FIXIMULATOR|52=20160308-00:13:27.704|56=BANZAI|10=010|8=FIX.4.2|9=61|35=0|34=24|49=FIXIMULATOR|52=20160308-00:13:48.703|56=BANZAI|10=013|8=FIX.4.2|9=73|35=A|34=25|49=FIXIMULATOR|52=20160308-00:14:53.265|56=BANZAI|98=0|108=20|10=058|8=FIX.4.2|9=61|35=0|34=26|49=FIXIMULATOR|52=20160308-00:15:13.265|56=BANZAI|10=012|8=FIX.4.2|9=61|35=0|34=27|49=FIXIMULATOR|52=20160308-00:15:34.217|56=BANZAI|10=013|8=FIX.4.2|9=73|35=A|34=28|49=FIXIMULATOR|52=20160308-00:16:40.620|56=BANZAI|98=0|108=20|10=054|8=FIX.4.2|9=61|35=0|34=29|49=FIXIMULATOR|52=20160308-00:17:00.625|56=BANZAI|10=013|8=FIX.4.2|9=61|35=0|34=30|49=FIXIMULATOR|52=20160308-00:17:21.576|56=BANZAI|10=013|8=FIX.4.2|9=73|35=A|34=31|49=FIXIMULATOR|52=20160308-00:18:28.160|56=BANZAI|98=0|108=20|10=055|8=FIX.4.2|9=61|35=0|34=32|49=FIXIMULATOR|52=20160308-00:18:49.115|56=BANZAI|10=015|8=FIX.4.2|9=61|35=0|34=33|49=FIXIMULATOR|52=20160308-00:19:10.115|56=BANZAI|10=005|8=FIX.4.2|9=73|35=A|34=34|49=FIXIMULATOR|52=20160308-00:20:15.454|56=BANZAI|98=0|108=20|10=053|8=FIX.4.2|9=61|35=0|34=35|49=FIXIMULATOR|52=20160308-00:20:35.455|56=BANZAI|10=013|8=FIX.4.2|9=61|35=0|34=36|49=FIXIMULATOR|52=20160308-00:20:56.406|56=BANZAI|10=013|8=FIX.4.2|9=73|35=A|34=37|49=FIXIMULATOR|52=20160308-00:22:02.859|56=BANZAI|98=0|108=20|10=063|8=FIX.4.2|9=61|35=0|34=38|49=FIXIMULATOR|52=20160308-00:22:23.811|56=BANZAI|10=011|8=FIX.4.2|9=61|35=0|34=39|49=FIXIMULATOR|52=20160308-00:22:44.810|56=BANZAI|10=014|8=FIX.4.2|9=73|35=A|34=40|49=FIXIMULATOR|52=20160308-00:23:49.252|56=BANZAI|98=0|108=20|10=056|8=FIX.4.2|9=61|35=0|34=41|49=FIXIMULATOR|52=20160308-00:24:10.207|56=BANZAI|10=002|8=FIX.4.2|9=61|35=0|34=42|49=FIXIMULATOR|52=20160308-00:24:30.207|56=BANZAI|10=005|8=FIX.4.2|9=73|35=A|34=43|49=FIXIMULATOR|52=20160308-00:25:36.633|56=BANZAI|98=0|108=20|10=060|8=FIX.4.2|9=61|35=0|34=44|49=FIXIMULATOR|52=20160308-00:25:57.583|56=BANZAI|10=024|8=FIX.4.2|9=61|35=0|34=45|49=FIXIMULATOR|52=20160308-00:26:18.582|56=BANZAI|10=022|8=FIX.4.2|9=73|35=A|34=46|49=FIXIMULATOR|52=20160308-00:27:23.027|56=BANZAI|98=0|108=20|10=058|8=FIX.4.2|9=61|35=0|34=47|49=FIXIMULATOR|52=20160308-00:27:43.982|56=BANZAI|10=027|8=FIX.4.2|9=61|35=0|34=48|49=FIXIMULATOR|52=20160308-00:28:04.981|56=BANZAI|10=025|8=FIX.4.2|9=73|35=A|34=49|49=FIXIMULATOR|52=20160308-00:29:10.432|56=BANZAI|98=0|108=20|10=059|8=FIX.4.2|9=61|35=0|34=50|49=FIXIMULATOR|52=20160308-00:29:31.389|56=BANZAI|10=021|8=FIX.4.2|9=61|35=0|34=51|49=FIXIMULATOR|52=20160308-00:29:52.387|56=BANZAI|10=023|8=FIX.4.2|9=73|35=A|34=52|49=FIXIMULATOR|52=20160308-00:30:57.817|56=BANZAI|98=0|108=20|10=063|8=FIX.4.2|9=61|35=0|34=53|49=FIXIMULATOR|52=20160308-00:31:18.769|56=BANZAI|10=024|8=FIX.4.2|9=61|35=0|34=54|49=FIXIMULATOR|52=20160308-00:31:39.769|56=BANZAI|10=028|8=FIX.4.2|9=73|35=A|34=55|49=FIXIMULATOR|52=20160308-00:32:44.205|56=BANZAI|98=0|108=20|10=055|8=FIX.4.2|9=61|35=0|34=56|49=FIXIMULATOR|52=20160308-00:33:05.153|56=BANZAI|10=012|8=FIX.4.2|9=61|35=0|34=57|49=FIXIMULATOR|52=20160308-00:33:25.153|56=BANZAI|10=015|8=FIX.4.2|9=73|35=A|34=58|49=FIXIMULATOR|52=20160308-00:34:31.597|56=BANZAI|98=0|108=20|10=070|8=FIX.4.2|9=61|35=0|34=59|49=FIXIMULATOR|52=20160308-00:34:51.644|56=BANZAI|10=022|8=FIX.4.2|9=61|35=0|34=60|49=FIXIMULATOR|52=20160308-00:35:12.549|56=BANZAI|10=016|8=FIX.4.2|9=73|35=A|34=61|49=FIXIMULATOR|52=20160308-00:36:18.011|56=BANZAI|98=0|108=20|10=052|8=FIX.4.2|9=61|35=0|34=62|49=FIXIMULATOR|52=20160308-00:36:38.965|56=BANZAI|10=029|8=FIX.4.2|9=61|35=0|34=63|49=FIXIMULATOR|52=20160308-00:36:58.965|56=BANZAI|10=032|8=FIX.4.2|9=73|35=A|34=64|49=FIXIMULATOR|52=20160308-00:38:05.421|56=BANZAI|98=0|108=20|10=058|8=FIX.4.2|9=61|35=0|34=65|49=FIXIMULATOR|52=20160308-00:38:26.378|56=BANZAI|10=029|8=FIX.4.2|9=61|35=0|34=66|49=FIXIMULATOR|52=20160308-00:38:46.378|56=BANZAI|10=032|8=FIX.4.2|9=73|35=A|34=67|49=FIXIMULATOR|52=20160308-00:39:52.835|56=BANZAI|98=0|108=20|10=073|8=FIX.4.2|9=61|35=0|34=68|49=FIXIMULATOR|52=20160308-00:40:12.838|56=BANZAI|10=021|8=FIX.4.2|9=61|35=0|34=69|49=FIXIMULATOR|52=20160308-00:40:33.788|56=BANZAI|10=029|8=FIX.4.2|9=73|35=A|34=70|49=FIXIMULATOR|52=20160308-00:41:39.455|56=BANZAI|98=0|108=20|10=063|8=FIX.4.2|9=61|35=0|34=71|49=FIXIMULATOR|52=20160308-00:41:59.456|56=BANZAI|10=023|8=FIX.4.2|9=61|35=0|34=72|49=FIXIMULATOR|52=20160308-00:42:20.409|56=BANZAI|10=011|8=FIX.4.2|9=73|35=A|34=73|49=FIXIMULATOR|52=20160308-00:43:26.862|56=BANZAI|98=0|108=20|10=066|8=FIX.4.2|9=61|35=0|34=74|49=FIXIMULATOR|52=20160308-00:43:47.813|56=BANZAI|10=022|8=FIX.4.2|9=61|35=0|34=75|49=FIXIMULATOR|52=20160308-00:44:08.811|56=BANZAI|10=019|8=FIX.4.2|9=73|35=A|34=76|49=FIXIMULATOR|52=20160308-00:45:13.244|56=BANZAI|98=0|108=20|10=061|8=FIX.4.2|9=61|35=0|34=77|49=FIXIMULATOR|52=20160308-00:45:34.158|56=BANZAI|10=025|8=FIX.4.2|9=61|35=0|34=78|49=FIXIMULATOR|52=20160308-00:45:54.158|56=BANZAI|10=028|8=FIX.4.2|9=73|35=A|34=79|49=FIXIMULATOR|52=20160308-00:47:04.585|56=BANZAI|98=0|108=20|10=074|8=FIX.4.2|9=61|35=0|34=80|49=FIXIMULATOR|52=20160308-00:47:25.538|56=BANZAI|10=023|8=FIX.4.2|9=61|35=0|34=81|49=FIXIMULATOR|52=20160308-00:47:46.538|56=BANZAI|10=027|8=FIX.4.2|9=73|35=A|34=82|49=FIXIMULATOR|52=20160308-00:48:51.037|56=BANZAI|98=0|108=20|10=063|8=FIX.4.2|9=61|35=0|34=83|49=FIXIMULATOR|52=20160308-00:49:11.037|56=BANZAI|10=017|8=FIX.4.2|9=61|35=0|34=84|49=FIXIMULATOR|52=20160308-00:49:31.039|56=BANZAI|10=022|8=FIX.4.2|9=73|35=A|34=85|49=FIXIMULATOR|52=20160308-00:50:38.400|56=BANZAI|98=0|108=20|10=058|8=FIX.4.2|9=61|35=0|34=86|49=FIXIMULATOR|52=20160308-00:50:59.355|56=BANZAI|10=027|8=FIX.4.2|9=61|35=0|34=87|49=FIXIMULATOR|52=20160308-00:51:19.356|56=BANZAI|10=026|8=FIX.4.2|9=73|35=A|34=88|49=FIXIMULATOR|52=20160308-00:52:25.778|56=BANZAI|98=0|108=20|10=077|8=FIX.4.2|9=61|35=0|34=89|49=FIXIMULATOR|52=20160308-00:52:46.727|56=BANZAI|10=031|8=FIX.4.2|9=61|35=0|34=90|49=FIXIMULATOR|52=20160308-00:53:07.728|56=BANZAI|10=022|8=FIX.4.2|9=73|35=A|34=91|49=FIXIMULATOR|52=20160308-00:54:12.197|56=BANZAI|98=0|108=20|10=064|8=FIX.4.2|9=61|35=0|34=92|49=FIXIMULATOR|52=20160308-00:54:33.152|56=BANZAI|10=015|8=FIX.4.2|9=61|35=0|34=93|49=FIXIMULATOR|52=20160308-00:54:54.151|56=BANZAI|10=018|8=FIX.4.2|9=73|35=A|34=94|49=FIXIMULATOR|52=20160308-00:55:59.599|56=BANZAI|98=0|108=20|10=085|8=FIX.4.2|9=61|35=0|34=95|49=FIXIMULATOR|52=20160308-00:56:19.604|56=BANZAI|10=026|8=FIX.4.2|9=61|35=0|34=96|49=FIXIMULATOR|52=20160308-00:56:40.555|56=BANZAI|10=026|8=FIX.4.2|9=73|35=A|34=97|49=FIXIMULATOR|52=20160308-00:57:47.008|56=BANZAI|98=0|108=20|10=072|8=FIX.4.2|9=61|35=0|34=98|49=FIXIMULATOR|52=20160308-00:58:07.958|56=BANZAI|10=040|8=FIX.4.2|9=61|35=0|34=99|49=FIXIMULATOR|52=20160308-00:58:28.956|56=BANZAI|10=042|8=FIX.4.2|9=74|35=A|34=100|49=FIXIMULATOR|52=20160308-00:59:32.365|56=BANZAI|98=0|108=20|10=108|8=FIX.4.2|9=62|35=0|34=101|49=FIXIMULATOR|52=20160308-00:59:53.316|56=BANZAI|10=064|8=FIX.4.2|9=62|35=0|34=102|49=FIXIMULATOR|52=20160308-01:00:13.319|56=BANZAI|10=051|8=FIX.4.2|9=74|35=A|34=103|49=FIXIMULATOR|52=20160308-01:01:19.819|56=BANZAI|98=0|108=20|10=108|8=FIX.4.2|9=62|35=0|34=104|49=FIXIMULATOR|52=20160308-01:01:40.769|56=BANZAI|10=063|8=FIX.4.2|9=62|35=0|34=105|49=FIXIMULATOR|52=20160308-01:02:01.768|56=BANZAI|10=061|8=FIX.4.2|9=74|35=A|34=106|49=FIXIMULATOR|52=20160308-01:03:06.227|56=BANZAI|98=0|108=20|10=102|8=FIX.4.2|9=62|35=0|34=107|49=FIXIMULATOR|52=20160308-01:03:27.176|56=BANZAI|10=065|8=FIX.4.2|9=62|35=0|34=108|49=FIXIMULATOR|52=20160308-01:03:47.178|56=BANZAI|10=070|8=FIX.4.2|9=74|35=A|34=109|49=FIXIMULATOR|52=20160308-01:04:53.627|56=BANZAI|98=0|108=20|10=112|8=FIX.4.2|9=62|35=0|34=110|49=FIXIMULATOR|52=20160308-01:05:14.579|56=BANZAI|10=064|8=FIX.4.2|9=62|35=0|34=111|49=FIXIMULATOR|52=20160308-01:05:35.578|56=BANZAI|10=067|8=FIX.4.2|9=74|35=A|34=112|49=FIXIMULATOR|52=20160308-01:06:40.033|56=BANZAI|98=0|108=20|10=095|8=FIX.4.2|9=62|35=0|34=113|49=FIXIMULATOR|52=20160308-01:07:00.034|56=BANZAI|10=050|8=FIX.4.2|9=62|35=0|34=114|49=FIXIMULATOR|52=20160308-01:07:20.988|56=BANZAI|10=071|8=FIX.4.2|9=74|35=A|34=115|49=FIXIMULATOR|52=20160308-01:08:27.449|56=BANZAI|98=0|108=20|10=116|8=FIX.4.2|9=62|35=0|34=116|49=FIXIMULATOR|52=20160308-01:08:47.454|56=BANZAI|10=071|8=FIX.4.2|9=62|35=0|34=117|49=FIXIMULATOR|52=20160308-01:09:07.456|56=BANZAI|10=071|8=FIX.4.2|9=74|35=A|34=118|49=FIXIMULATOR|52=20160308-01:10:13.926|56=BANZAI|98=0|108=20|10=107|8=FIX.4.2|9=62|35=0|34=119|49=FIXIMULATOR|52=20160308-01:10:34.881|56=BANZAI|10=067|8=FIX.4.2|9=62|35=0|34=120|49=FIXIMULATOR|52=20160308-01:10:55.880|56=BANZAI|10=061|8=FIX.4.2|9=74|35=A|34=121|49=FIXIMULATOR|52=20160308-01:12:01.552|56=BANZAI|98=0|108=20|10=095|8=FIX.4.2|9=62|35=0|34=122|49=FIXIMULATOR|52=20160308-01:12:22.509|56=BANZAI|10=057|8=FIX.4.2|9=62|35=0|34=123|49=FIXIMULATOR|52=20160308-01:12:42.509|56=BANZAI|10=060|8=FIX.4.2|9=74|35=A|34=124|49=FIXIMULATOR|52=20160308-01:13:47.957|56=BANZAI|98=0|108=20|10=118|8=FIX.4.2|9=62|35=0|34=125|49=FIXIMULATOR|52=20160308-01:14:08.910|56=BANZAI|10=062|8=FIX.4.2|9=62|35=0|34=126|49=FIXIMULATOR|52=20160308-01:14:29.912|56=BANZAI|10=068|8=FIX.4.2|9=74|35=A|34=127|49=FIXIMULATOR|52=20160308-01:15:35.339|56=BANZAI|98=0|108=20|10=114|8=FIX.4.2|9=62|35=0|34=128|49=FIXIMULATOR|52=20160308-01:15:56.290|56=BANZAI|10=070|8=FIX.4.2|9=62|35=0|34=129|49=FIXIMULATOR|52=20160308-01:16:17.286|56=BANZAI|10=074|8=FIX.4.2|9=74|35=A|34=130|49=FIXIMULATOR|52=20160308-01:17:22.717|56=BANZAI|98=0|108=20|10=106|8=FIX.4.2|9=62|35=0|34=131|49=FIXIMULATOR|52=20160308-01:17:43.666|56=BANZAI|10=069|8=FIX.4.2|9=62|35=0|34=132|49=FIXIMULATOR|52=20160308-01:18:03.670|56=BANZAI|10=062|8=FIX.4.2|9=74|35=A|34=133|49=FIXIMULATOR|52=20160308-01:19:09.083|56=BANZAI|98=0|108=20|10=112|8=FIX.4.2|9=62|35=0|34=134|49=FIXIMULATOR|52=20160308-01:19:30.036|56=BANZAI|10=061|8=FIX.4.2|9=62|35=0|34=135|49=FIXIMULATOR|52=20160308-01:19:51.035|56=BANZAI|10=064|8=FIX.4.2|9=74|35=A|34=136|49=FIXIMULATOR|52=20160308-01:20:56.495|56=BANZAI|98=0|108=20|10=116|8=FIX.4.2|9=62|35=0|34=137|49=FIXIMULATOR|52=20160308-01:21:17.449|56=BANZAI|10=070|8=FIX.4.2|9=62|35=0|34=138|49=FIXIMULATOR|52=20160308-01:21:37.450|56=BANZAI|10=065|8=FIX.4.2|9=74|35=A|34=139|49=FIXIMULATOR|52=20160308-01:22:42.917|56=BANZAI|98=0|108=20|10=115|8=FIX.4.2|9=62|35=0|34=140|49=FIXIMULATOR|52=20160308-01:23:03.874|56=BANZAI|10=063|8=FIX.4.2|9=62|35=0|34=141|49=FIXIMULATOR|52=20160308-01:23:24.873|56=BANZAI|10=066|8=FIX.4.2|9=74|35=A|34=142|49=FIXIMULATOR|52=20160308-01:24:30.319|56=BANZAI|98=0|108=20|10=104|8=FIX.4.2|9=62|35=0|34=143|49=FIXIMULATOR|52=20160308-01:24:51.275|56=BANZAI|10=065|8=FIX.4.2|9=62|35=0|34=144|49=FIXIMULATOR|52=20160308-01:25:12.275|56=BANZAI|10=064|8=FIX.4.2|9=62|35=0|34=145|49=FIXIMULATOR|52=20160308-01:25:33.666|56=BANZAI|10=072|8=FIX.4.2|9=62|35=0|34=146|49=FIXIMULATOR|52=20160308-01:25:53.706|56=BANZAI|10=070|8=FIX.4.2|9=62|35=0|34=147|49=FIXIMULATOR|52=20160308-01:26:14.660|56=BANZAI|10=068|8=FIX.4.2|9=62|35=0|34=148|49=FIXIMULATOR|52=20160308-01:26:35.660|56=BANZAI|10=072|8=FIX.4.2|9=62|35=0|34=149|49=FIXIMULATOR|52=20160308-01:26:56.658|56=BANZAI|10=083|8=FIX.4.2|9=62|35=0|34=150|49=FIXIMULATOR|52=20160308-01:27:16.658|56=BANZAI|10=072|8=FIX.4.2|9=62|35=0|34=151|49=FIXIMULATOR|52=20160308-01:27:36.658|56=BANZAI|10=075|8=FIX.4.2|9=62|35=0|34=152|49=FIXIMULATOR|52=20160308-01:27:57.657|56=BANZAI|10=078|8=FIX.4.2|9=62|35=0|34=153|49=FIXIMULATOR|52=20160308-01:28:18.657|56=BANZAI|10=077|8=FIX.4.2|9=62|35=0|34=154|49=FIXIMULATOR|52=20160308-01:28:39.655|56=BANZAI|10=079|8=FIX.4.2|9=62|35=0|34=155|49=FIXIMULATOR|52=20160308-01:28:59.655|56=BANZAI|10=082|8=FIX.4.2|9=62|35=0|34=156|49=FIXIMULATOR|52=20160308-01:29:20.654|56=BANZAI|10=071|8=FIX.4.2|9=62|35=0|34=157|49=FIXIMULATOR|52=20160308-01:29:41.653|56=BANZAI|10=074|8=FIX.4.2|9=62|35=0|34=158|49=FIXIMULATOR|52=20160308-01:30:02.653|56=BANZAI|10=064|8=FIX.4.2|9=62|35=0|34=159|49=FIXIMULATOR|52=20160308-01:30:23.651|56=BANZAI|10=066|8=FIX.4.2|9=62|35=0|34=160|49=FIXIMULATOR|52=20160308-01:30:44.651|56=BANZAI|10=061|8=FIX.4.2|9=62|35=0|34=161|49=FIXIMULATOR|52=20160308-01:31:05.648|56=BANZAI|10=066|8=FIX.4.2|9=62|35=0|34=162|49=FIXIMULATOR|52=20160308-01:31:25.649|56=BANZAI|10=070|8=FIX.4.2|9=74|35=A|34=163|49=FIXIMULATOR|52=20160308-06:44:24.515|56=BANZAI|98=0|108=20|10=115|8=FIX.4.2|9=62|35=0|34=164|49=FIXIMULATOR|52=20160308-06:44:45.063|56=BANZAI|10=073|8=FIX.4.2|9=62|35=0|34=165|49=FIXIMULATOR|52=20160308-06:45:05.063|56=BANZAI|10=071|8=FIX.4.2|9=62|35=0|34=166|49=FIXIMULATOR|52=20160308-06:45:25.063|56=BANZAI|10=074|8=FIX.4.2|9=62|35=0|34=167|49=FIXIMULATOR|52=20160308-06:45:45.462|56=BANZAI|10=080|8=FIX.4.2|9=62|35=0|34=168|49=FIXIMULATOR|52=20160308-06:46:05.462|56=BANZAI|10=078|8=FIX.4.2|9=74|35=A|34=169|49=FIXIMULATOR|52=20160308-06:56:14.684|56=BANZAI|98=0|108=20|10=130|8=FIX.4.2|9=62|35=0|34=170|49=FIXIMULATOR|52=20160308-06:56:34.943|56=BANZAI|10=078|8=FIX.4.2|9=62|35=0|34=171|49=FIXIMULATOR|52=20160308-06:56:55.642|56=BANZAI|10=078|8=FIX.4.2|9=62|35=0|34=172|49=FIXIMULATOR|52=20160308-06:57:15.642|56=BANZAI|10=076|8=FIX.4.2|9=62|35=0|34=173|49=FIXIMULATOR|52=20160308-06:57:35.643|56=BANZAI|10=080|8=FIX.4.2|9=62|35=0|34=174|49=FIXIMULATOR|52=20160308-06:57:55.939|56=BANZAI|10=091|8=FIX.4.2|9=62|35=0|34=175|49=FIXIMULATOR|52=20160308-06:58:16.938|56=BANZAI|10=089|8=FIX.4.2|9=62|35=0|34=176|49=FIXIMULATOR|52=20160308-06:58:36.938|56=BANZAI|10=092|8=FIX.4.2|9=62|35=0|34=177|49=FIXIMULATOR|52=20160308-06:58:57.937|56=BANZAI|10=095|8=FIX.4.2|9=62|35=0|34=178|49=FIXIMULATOR|52=20160308-06:59:17.937|56=BANZAI|10=093|8=FIX.4.2|9=62|35=0|34=179|49=FIXIMULATOR|52=20160308-06:59:38.935|56=BANZAI|10=095|8=FIX.4.2|9=62|35=0|34=180|49=FIXIMULATOR|52=20160308-06:59:58.935|56=BANZAI|10=089|8=FIX.4.2|9=62|35=0|34=181|49=FIXIMULATOR|52=20160308-07:00:19.935|56=BANZAI|10=074|8=FIX.4.2|9=62|35=0|34=182|49=FIXIMULATOR|52=20160308-07:00:40.933|56=BANZAI|10=067|8=FIX.4.2|9=62|35=0|34=183|49=FIXIMULATOR|52=20160308-07:01:00.933|56=BANZAI|10=065|8=FIX.4.2|9=62|35=0|34=184|49=FIXIMULATOR|52=20160308-07:01:21.932|56=BANZAI|10=068|8=FIX.4.2|9=62|35=0|34=185|49=FIXIMULATOR|52=20160308-07:01:42.932|56=BANZAI|10=072|8=FIX.4.2|9=62|35=0|34=186|49=FIXIMULATOR|52=20160308-07:02:03.931|56=BANZAI|10=070|8=FIX.4.2|9=62|35=0|34=187|49=FIXIMULATOR|52=20160308-07:02:24.929|56=BANZAI|10=081|8=FIX.4.2|9=62|35=0|34=188|49=FIXIMULATOR|52=20160308-07:02:44.929|56=BANZAI|10=084|8=FIX.4.2|9=62|35=0|34=189|49=FIXIMULATOR|52=20160308-07:03:05.927|56=BANZAI|10=081|8=FIX.4.2|9=62|35=0|34=190|49=FIXIMULATOR|52=20160308-07:03:25.928|56=BANZAI|10=076|8=FIX.4.2|9=62|35=0|34=191|49=FIXIMULATOR|52=20160308-07:03:46.926|56=BANZAI|10=078|8=FIX.4.2|9=62|35=0|34=192|49=FIXIMULATOR|52=20160308-07:04:06.926|56=BANZAI|10=076|8=FIX.4.2|9=62|35=0|34=193|49=FIXIMULATOR|52=20160308-07:04:27.925|56=BANZAI|10=079|8=FIX.4.2|9=62|35=0|34=194|49=FIXIMULATOR|52=20160308-07:04:48.924|56=BANZAI|10=082|8=FIX.4.2|9=62|35=0|34=195|49=FIXIMULATOR|52=20160308-07:05:09.924|56=BANZAI|10=081|8=FIX.4.2|9=62|35=0|34=196|49=FIXIMULATOR|52=20160308-07:05:30.923|56=BANZAI|10=075|8=FIX.4.2|9=62|35=0|34=197|49=FIXIMULATOR|52=20160308-07:05:51.922|56=BANZAI|10=078|8=FIX.4.2|9=62|35=0|34=198|49=FIXIMULATOR|52=20160308-07:06:12.921|56=BANZAI|10=076|8=FIX.4.2|9=62|35=0|34=199|49=FIXIMULATOR|52=20160308-07:06:33.921|56=BANZAI|10=080|8=FIX.4.2|9=62|35=0|34=200|49=FIXIMULATOR|52=20160308-07:06:54.919|56=BANZAI|10=073|8=FIX.4.2|9=62|35=0|34=201|49=FIXIMULATOR|52=20160308-07:07:14.919|56=BANZAI|10=071|8=FIX.4.2|9=62|35=0|34=202|49=FIXIMULATOR|52=20160308-07:07:35.918|56=BANZAI|10=074|8=FIX.4.2|9=62|35=0|34=203|49=FIXIMULATOR|52=20160308-07:07:55.918|56=BANZAI|10=077|8=FIX.4.2|9=62|35=0|34=204|49=FIXIMULATOR|52=20160308-07:08:16.916|56=BANZAI|10=074|8=FIX.4.2|9=62|35=0|34=205|49=FIXIMULATOR|52=20160308-07:08:36.916|56=BANZAI|10=077|8=FIX.4.2|9=62|35=0|34=206|49=FIXIMULATOR|52=20160308-07:08:57.915|56=BANZAI|10=080|8=FIX.4.2|9=62|35=0|34=207|49=FIXIMULATOR|52=20160308-07:09:17.915|56=BANZAI|10=078|8=FIX.4.2|9=62|35=0|34=208|49=FIXIMULATOR|52=20160308-07:09:38.914|56=BANZAI|10=081|8=FIX.4.2|9=62|35=0|34=209|49=FIXIMULATOR|52=20160308-07:09:59.914|56=BANZAI|10=085|8=FIX.4.2|9=62|35=0|34=210|49=FIXIMULATOR|52=20160308-07:10:20.613|56=BANZAI|10=053|8=FIX.4.2|9=62|35=0|34=211|49=FIXIMULATOR|52=20160308-07:10:40.614|56=BANZAI|10=057|8=FIX.4.2|9=62|35=0|34=212|49=FIXIMULATOR|52=20160308-07:11:00.911|56=BANZAI|10=055|8=FIX.4.2|9=62|35=0|34=213|49=FIXIMULATOR|52=20160308-07:11:20.911|56=BANZAI|10=058|8=FIX.4.2|9=62|35=0|34=214|49=FIXIMULATOR|52=20160308-07:11:41.909|56=BANZAI|10=069|8=FIX.4.2|9=62|35=0|34=215|49=FIXIMULATOR|52=20160308-07:12:02.908|56=BANZAI|10=067|8=FIX.4.2|9=62|35=0|34=216|49=FIXIMULATOR|52=20160308-07:12:23.908|56=BANZAI|10=071|8=FIX.4.2|9=62|35=0|34=217|49=FIXIMULATOR|52=20160308-07:12:44.907|56=BANZAI|10=074|8=FIX.4.2|9=62|35=0|34=218|49=FIXIMULATOR|52=20160308-07:13:05.906|56=BANZAI|10=072|8=FIX.4.2|9=62|35=0|34=219|49=FIXIMULATOR|52=20160308-07:13:26.906|56=BANZAI|10=076|8=FIX.4.2|9=62|35=0|34=220|49=FIXIMULATOR|52=20160308-07:13:47.905|56=BANZAI|10=070|8=FIX.4.2|9=62|35=0|34=221|49=FIXIMULATOR|52=20160308-07:14:08.904|56=BANZAI|10=068|8=FIX.4.2|9=62|35=0|34=222|49=FIXIMULATOR|52=20160308-07:14:29.903|56=BANZAI|10=071|8=FIX.4.2|9=62|35=0|34=223|49=FIXIMULATOR|52=20160308-07:14:50.903|56=BANZAI|10=066|8=FIX.4.2|9=62|35=0|34=224|49=FIXIMULATOR|52=20160308-07:15:11.901|56=BANZAI|10=063|8=FIX.4.2|9=62|35=0|34=225|49=FIXIMULATOR|52=20160308-07:15:31.902|56=BANZAI|10=067|8=FIX.4.2|9=62|35=0|34=226|49=FIXIMULATOR|52=20160308-07:15:52.899|56=BANZAI|10=086|8=FIX.4.2|9=62|35=0|34=227|49=FIXIMULATOR|52=20160308-07:16:12.899|56=BANZAI|10=084|8=FIX.4.2|9=62|35=0|34=228|49=FIXIMULATOR|52=20160308-07:16:33.898|56=BANZAI|10=087|8=FIX.4.2|9=62|35=0|34=229|49=FIXIMULATOR|52=20160308-07:16:54.898|56=BANZAI|10=091|8=FIX.4.2|9=62|35=0|34=230|49=FIXIMULATOR|52=20160308-07:17:15.897|56=BANZAI|10=080|8=FIX.4.2|9=62|35=0|34=231|49=FIXIMULATOR|52=20160308-07:17:36.897|56=BANZAI|10=084|8=FIX.4.2|9=62|35=0|34=232|49=FIXIMULATOR|52=20160308-07:17:57.895|56=BANZAI|10=086|8=FIX.4.2|9=62|35=0|34=233|49=FIXIMULATOR|52=20160308-07:18:17.895|56=BANZAI|10=084|8=FIX.4.2|9=62|35=0|34=234|49=FIXIMULATOR|52=20160308-07:18:38.895|56=BANZAI|10=088|8=FIX.4.2|9=62|35=0|34=235|49=FIXIMULATOR|52=20160308-07:18:59.893|56=BANZAI|10=090|8=FIX.4.2|9=62|35=0|34=236|49=FIXIMULATOR|52=20160308-07:19:19.893|56=BANZAI|10=088|8=FIX.4.2|9=62|35=0|34=237|49=FIXIMULATOR|52=20160308-07:19:40.594|56=BANZAI|10=081|8=FIX.4.2|9=62|35=0|34=238|49=FIXIMULATOR|52=20160308-07:20:00.594|56=BANZAI|10=070|8=FIX.4.2|9=62|35=0|34=239|49=FIXIMULATOR|52=20160308-07:20:20.891|56=BANZAI|10=073|8=FIX.4.2|9=62|35=0|34=240|49=FIXIMULATOR|52=20160308-07:20:41.890|56=BANZAI|10=067|8=FIX.4.2|9=62|35=0|34=241|49=FIXIMULATOR|52=20160308-07:21:02.889|56=BANZAI|10=074|8=FIX.4.2|9=62|35=0|34=242|49=FIXIMULATOR|52=20160308-07:21:23.889|56=BANZAI|10=078|8=FIX.4.2|9=62|35=0|34=243|49=FIXIMULATOR|52=20160308-07:21:44.887|56=BANZAI|10=080|8=FIX.4.2|9=62|35=0|34=244|49=FIXIMULATOR|52=20160308-07:22:04.887|56=BANZAI|10=078|8=FIX.4.2|9=62|35=0|34=245|49=FIXIMULATOR|52=20160308-07:22:25.886|56=BANZAI|10=081|8=FIX.4.2|9=62|35=0|34=246|49=FIXIMULATOR|52=20160308-07:22:46.886|56=BANZAI|10=085|8=FIX.4.2|9=62|35=0|34=247|49=FIXIMULATOR|52=20160308-07:23:07.885|56=BANZAI|10=083|8=FIX.4.2|9=62|35=0|34=248|49=FIXIMULATOR|52=20160308-07:23:28.884|56=BANZAI|10=086|8=FIX.4.2|9=62|35=0|34=249|49=FIXIMULATOR|52=20160308-07:23:49.883|56=BANZAI|10=089|8=FIX.4.2|9=62|35=0|34=250|49=FIXIMULATOR|52=20160308-07:24:09.883|56=BANZAI|10=078|8=FIX.4.2|9=62|35=0|34=251|49=FIXIMULATOR|52=20160308-07:24:30.882|56=BANZAI|10=072|8=FIX.4.2|9=62|35=0|34=252|49=FIXIMULATOR|52=20160308-07:24:51.880|56=BANZAI|10=074|8=FIX.4.2|9=62|35=0|34=253|49=FIXIMULATOR|52=20160308-07:25:11.880|56=BANZAI|10=072|8=FIX.4.2|9=62|35=0|34=254|49=FIXIMULATOR|52=20160308-07:25:32.879|56=BANZAI|10=084|8=FIX.4.2|9=62|35=0|34=255|49=FIXIMULATOR|52=20160308-07:25:53.878|56=BANZAI|10=087|8=FIX.4.2|9=62|35=0|34=256|49=FIXIMULATOR|52=20160308-07:26:13.878|56=BANZAI|10=085|8=FIX.4.2|9=62|35=0|34=257|49=FIXIMULATOR|52=20160308-07:26:34.878|56=BANZAI|10=089|8=FIX.4.2|9=62|35=0|34=258|49=FIXIMULATOR|52=20160308-07:26:55.875|56=BANZAI|10=090|8=FIX.4.2|9=62|35=0|34=259|49=FIXIMULATOR|52=20160308-07:27:15.876|56=BANZAI|10=089|8=FIX.4.2|9=62|35=0|34=260|49=FIXIMULATOR|52=20160308-07:27:36.874|56=BANZAI|10=082|8=FIX.4.2|9=62|35=0|34=261|49=FIXIMULATOR|52=20160308-07:27:56.875|56=BANZAI|10=086|8=FIX.4.2|9=62|35=0|34=262|49=FIXIMULATOR|52=20160308-07:28:17.873|56=BANZAI|10=083|8=FIX.4.2|9=62|35=0|34=263|49=FIXIMULATOR|52=20160308-07:28:38.871|56=BANZAI|10=085|8=FIX.4.2|9=62|35=0|34=264|49=FIXIMULATOR|52=20160308-07:28:58.872|56=BANZAI|10=089|8=FIX.4.2|9=62|35=0|34=265|49=FIXIMULATOR|52=20160308-07:29:19.871|56=BANZAI|10=087|8=FIX.4.2|9=62|35=0|34=266|49=FIXIMULATOR|52=20160308-07:29:40.573|56=BANZAI|10=081|8=FIX.4.2|9=62|35=0|34=267|49=FIXIMULATOR|52=20160308-07:30:00.573|56=BANZAI|10=070|8=FIX.4.2|9=62|35=0|34=268|49=FIXIMULATOR|52=20160308-07:30:20.869|56=BANZAI|10=081|8=FIX.4.2|9=62|35=0|34=269|49=FIXIMULATOR|52=20160308-07:30:40.869|56=BANZAI|10=084|8=FIX.4.2|9=62|35=0|34=270|49=FIXIMULATOR|52=20160308-07:31:01.868|56=BANZAI|10=073|8=FIX.4.2|9=62|35=0|34=271|49=FIXIMULATOR|52=20160308-07:31:22.867|56=BANZAI|10=076|8=FIX.4.2|9=62|35=0|34=272|49=FIXIMULATOR|52=20160308-07:31:43.867|56=BANZAI|10=080|8=FIX.4.2|9=62|35=0|34=273|49=FIXIMULATOR|52=20160308-07:32:04.866|56=BANZAI|10=078|8=FIX.4.2|9=62|35=0|34=274|49=FIXIMULATOR|52=20160308-07:32:25.865|56=BANZAI|10=081|8=FIX.4.2|9=62|35=0|34=275|49=FIXIMULATOR|52=20160308-07:32:46.863|56=BANZAI|10=083|8=FIX.4.2|9=62|35=0|34=276|49=FIXIMULATOR|52=20160308-07:33:06.863|56=BANZAI|10=081|8=FIX.4.2|9=62|35=0|34=277|49=FIXIMULATOR|52=20160308-07:33:27.862|56=BANZAI|10=084|8=FIX.4.2|9=62|35=0|34=278|49=FIXIMULATOR|52=20160308-07:33:47.862|56=BANZAI|10=087|8=FIX.4.2|9=62|35=0|34=279|49=FIXIMULATOR|52=20160308-07:34:08.861|56=BANZAI|10=085|8=FIX.4.2|9=62|35=0|34=280|49=FIXIMULATOR|52=20160308-07:34:29.861|56=BANZAI|10=080|8=FIX.4.2|9=62|35=0|34=281|49=FIXIMULATOR|52=20160308-07:34:50.859|56=BANZAI|10=082|8=FIX.4.2|9=62|35=0|34=282|49=FIXIMULATOR|52=20160308-07:35:10.859|56=BANZAI|10=080|8=FIX.4.2|9=62|35=0|34=283|49=FIXIMULATOR|52=20160308-07:35:30.859|56=BANZAI|10=083|8=FIX.4.2|9=62|35=0|34=284|49=FIXIMULATOR|52=20160308-07:35:51.857|56=BANZAI|10=085|8=FIX.4.2|9=62|35=0|34=285|49=FIXIMULATOR|52=20160308-07:36:11.857|56=BANZAI|10=083|8=FIX.4.2|9=62|35=0|34=286|49=FIXIMULATOR|52=20160308-07:36:32.855|56=BANZAI|10=085|8=FIX.4.2|9=62|35=0|34=287|49=FIXIMULATOR|52=20160308-07:36:53.855|56=BANZAI|10=089|8=FIX.4.2|9=62|35=0|34=288|49=FIXIMULATOR|52=20160308-07:37:14.855|56=BANZAI|10=088|8=FIX.4.2|9=62|35=0|34=289|49=FIXIMULATOR|52=20160308-07:37:35.853|56=BANZAI|10=090|8=FIX.4.2|9=62|35=0|34=290|49=FIXIMULATOR|52=20160308-07:37:56.852|56=BANZAI|10=084|8=FIX.4.2|9=62|35=0|34=291|49=FIXIMULATOR|52=20160308-07:38:16.853|56=BANZAI|10=083|8=FIX.4.2|9=62|35=0|34=292|49=FIXIMULATOR|52=20160308-07:38:37.851|56=BANZAI|10=085|8=FIX.4.2|9=62|35=0|34=293|49=FIXIMULATOR|52=20160308-07:38:57.851|56=BANZAI|10=088|8=FIX.4.2|9=62|35=0|34=294|49=FIXIMULATOR|52=20160308-07:39:18.849|56=BANZAI|10=094|8=FIX.4.2|9=62|35=0|34=295|49=FIXIMULATOR|52=20160308-07:39:38.849|56=BANZAI|10=097|8=FIX.4.2|9=62|35=0|34=296|49=FIXIMULATOR|52=20160308-07:39:58.849|56=BANZAI|10=100|8=FIX.4.2|9=62|35=0|34=297|49=FIXIMULATOR|52=20160308-07:40:19.847|56=BANZAI|10=088|8=FIX.4.2|9=62|35=0|34=298|49=FIXIMULATOR|52=20160308-07:40:39.847|56=BANZAI|10=091|8=FIX.4.2|9=62|35=0|34=299|49=FIXIMULATOR|52=20160308-07:41:00.548|56=BANZAI|10=079|8=FIX.4.2|9=62|35=0|34=300|49=FIXIMULATOR|52=20160308-07:41:20.845|56=BANZAI|10=064|8=FIX.4.2|9=62|35=0|34=301|49=FIXIMULATOR|52=20160308-07:41:40.845|56=BANZAI|10=067|8=FIX.4.2|9=62|35=0|34=302|49=FIXIMULATOR|52=20160308-07:42:01.844|56=BANZAI|10=065|8=FIX.4.2|9=62|35=0|34=303|49=FIXIMULATOR|52=20160308-07:42:22.843|56=BANZAI|10=068|8=FIX.4.2|9=62|35=0|34=304|49=FIXIMULATOR|52=20160308-07:42:43.843|56=BANZAI|10=072|8=FIX.4.2|9=62|35=0|34=305|49=FIXIMULATOR|52=20160308-07:43:04.842|56=BANZAI|10=070|8=FIX.4.2|9=62|35=0|34=306|49=FIXIMULATOR|52=20160308-07:43:25.841|56=BANZAI|10=073|8=FIX.4.2|9=62|35=0|34=307|49=FIXIMULATOR|52=20160308-07:43:46.840|56=BANZAI|10=076|8=FIX.4.2|9=62|35=0|34=308|49=FIXIMULATOR|52=20160308-07:44:07.839|56=BANZAI|10=083|8=FIX.4.2|9=62|35=0|34=309|49=FIXIMULATOR|52=20160308-07:44:28.839|56=BANZAI|10=087|8=FIX.4.2|9=62|35=0|34=310|49=FIXIMULATOR|52=20160308-07:44:49.838|56=BANZAI|10=081|8=FIX.4.2|9=62|35=0|34=311|49=FIXIMULATOR|52=20160308-07:45:10.837|56=BANZAI|10=070|8=FIX.4.2|9=62|35=0|34=312|49=FIXIMULATOR|52=20160308-07:45:30.837|56=BANZAI|10=073|8=FIX.4.2|9=62|35=0|34=313|49=FIXIMULATOR|52=20160308-07:45:51.836|56=BANZAI|10=076|8=FIX.4.2|9=62|35=0|34=314|49=FIXIMULATOR|52=20160308-07:46:12.835|56=BANZAI|10=074|8=FIX.4.2|9=62|35=0|34=315|49=FIXIMULATOR|52=20160308-07:46:33.834|56=BANZAI|10=077|8=FIX.4.2|9=62|35=0|34=316|49=FIXIMULATOR|52=20160308-07:46:53.834|56=BANZAI|10=080|8=FIX.4.2|9=62|35=0|34=317|49=FIXIMULATOR|52=20160308-07:47:14.833|56=BANZAI|10=078|8=FIX.4.2|9=62|35=0|34=318|49=FIXIMULATOR|52=20160308-07:47:34.833|56=BANZAI|10=081|8=FIX.4.2|9=62|35=0|34=319|49=FIXIMULATOR|52=20160308-07:47:55.832|56=BANZAI|10=084|8=FIX.4.2|9=62|35=0|34=320|49=FIXIMULATOR|52=20160308-07:48:16.831|56=BANZAI|10=073|8=FIX.4.2|9=62|35=0|34=321|49=FIXIMULATOR|52=20160308-07:48:37.829|56=BANZAI|10=084|8=FIX.4.2|9=62|35=0|34=322|49=FIXIMULATOR|52=20160308-07:48:57.829|56=BANZAI|10=087|8=FIX.4.2|9=62|35=0|34=323|49=FIXIMULATOR|52=20160308-07:49:18.829|56=BANZAI|10=086|8=FIX.4.2|9=62|35=0|34=324|49=FIXIMULATOR|52=20160308-07:49:39.826|56=BANZAI|10=087|8=FIX.4.2|9=62|35=0|34=325|49=FIXIMULATOR|52=20160308-07:49:59.826|56=BANZAI|10=090|8=FIX.4.2|9=62|35=0|34=326|49=FIXIMULATOR|52=20160308-07:50:19.826|56=BANZAI|10=079|8=FIX.4.2|9=62|35=0|34=327|49=FIXIMULATOR|52=20160308-07:50:40.525|56=BANZAI|10=070|8=FIX.4.2|9=62|35=0|34=328|49=FIXIMULATOR|52=20160308-07:51:00.526|56=BANZAI|10=069|8=FIX.4.2|9=62|35=0|34=329|49=FIXIMULATOR|52=20160308-07:51:20.824|56=BANZAI|10=073|8=FIX.4.2|9=62|35=0|34=330|49=FIXIMULATOR|52=20160308-07:51:41.823|56=BANZAI|10=067|8=FIX.4.2|9=62|35=0|34=331|49=FIXIMULATOR|52=20160308-07:52:01.823|56=BANZAI|10=065|8=FIX.4.2|9=62|35=0|34=332|49=FIXIMULATOR|52=20160308-07:52:22.821|56=BANZAI|10=067|8=FIX.4.2|9=62|35=0|34=333|49=FIXIMULATOR|52=20160308-07:52:42.822|56=BANZAI|10=071|8=FIX.4.2|9=62|35=0|34=334|49=FIXIMULATOR|52=20160308-07:53:03.820|56=BANZAI|10=068|8=FIX.4.2|9=62|35=0|34=335|49=FIXIMULATOR|52=20160308-07:53:24.820|56=BANZAI|10=072|8=FIX.4.2|9=62|35=0|34=336|49=FIXIMULATOR|52=20160308-07:53:45.818|56=BANZAI|10=083|8=FIX.4.2|9=62|35=0|34=337|49=FIXIMULATOR|52=20160308-07:54:05.818|56=BANZAI|10=081|8=FIX.4.2|9=62|35=0|34=338|49=FIXIMULATOR|52=20160308-07:54:26.818|56=BANZAI|10=085|8=FIX.4.2|9=62|35=0|34=339|49=FIXIMULATOR|52=20160308-07:54:47.817|56=BANZAI|10=088|8=FIX.4.2|9=62|35=0|34=340|49=FIXIMULATOR|52=20160308-07:55:08.815|56=BANZAI|10=076|8=FIX.4.2|9=62|35=0|34=341|49=FIXIMULATOR|52=20160308-07:55:28.815|56=BANZAI|10=079|8=FIX.4.2|9=62|35=0|34=342|49=FIXIMULATOR|52=20160308-07:55:49.814|56=BANZAI|10=082|8=FIX.4.2|9=62|35=0|34=343|49=FIXIMULATOR|52=20160308-07:56:10.813|56=BANZAI|10=071|8=FIX.4.2|9=62|35=0|34=344|49=FIXIMULATOR|52=20160308-07:56:30.813|56=BANZAI|10=074|8=FIX.4.2|9=62|35=0|34=345|49=FIXIMULATOR|52=20160308-07:56:51.813|56=BANZAI|10=078|8=FIX.4.2|9=62|35=0|34=346|49=FIXIMULATOR|52=20160308-07:57:12.811|56=BANZAI|10=075|8=FIX.4.2|9=62|35=0|34=347|49=FIXIMULATOR|52=20160308-07:57:33.811|56=BANZAI|10=079|8=FIX.4.2|9=62|35=0|34=348|49=FIXIMULATOR|52=20160308-07:57:54.810|56=BANZAI|10=082|8=FIX.4.2|9=62|35=0|34=349|49=FIXIMULATOR|52=20160308-07:58:15.809|56=BANZAI|10=089|8=FIX.4.2|9=62|35=0|34=350|49=FIXIMULATOR|52=20160308-07:58:36.302|56=BANZAI|10=072|8=FIX.4.2|9=62|35=0|34=351|49=FIXIMULATOR|52=20160308-07:58:56.302|56=BANZAI|10=075|8=FIX.4.2|9=62|35=0|34=352|49=FIXIMULATOR|52=20160308-07:59:17.302|56=BANZAI|10=074|8=FIX.4.2|9=62|35=0|34=353|49=FIXIMULATOR|52=20160308-07:59:37.302|56=BANZAI|10=077|8=FIX.4.2|9=62|35=0|34=354|49=FIXIMULATOR|52=20160308-07:59:58.300|56=BANZAI|10=079|8=FIX.4.2|9=62|35=0|34=355|49=FIXIMULATOR|52=20160308-08:00:18.300|56=BANZAI|10=063|8=FIX.4.2|9=62|35=0|34=356|49=FIXIMULATOR|52=20160308-08:00:38.300|56=BANZAI|10=066|8=FIX.4.2|9=62|35=0|34=357|49=FIXIMULATOR|52=20160308-08:00:58.301|56=BANZAI|10=070|8=FIX.4.2|9=62|35=0|34=358|49=FIXIMULATOR|52=20160308-08:01:19.299|56=BANZAI|10=085|8=FIX.4.2|9=62|35=0|34=359|49=FIXIMULATOR|52=20160308-08:01:39.299|56=BANZAI|10=088|8=FIX.4.2|9=62|35=0|34=360|49=FIXIMULATOR|52=20160308-08:01:59.299|56=BANZAI|10=082|8=FIX.4.2|9=62|35=0|34=361|49=FIXIMULATOR|52=20160308-08:02:20.298|56=BANZAI|10=071|8=FIX.4.2|9=62|35=0|34=362|49=FIXIMULATOR|52=20160308-08:02:40.999|56=BANZAI|10=082|8=FIX.4.2|9=62|35=0|34=363|49=FIXIMULATOR|52=20160308-08:03:00.999|56=BANZAI|10=080|8=FIX.4.2|9=62|35=0|34=364|49=FIXIMULATOR|52=20160308-08:03:20.999|56=BANZAI|10=083|8=FIX.4.2|9=62|35=0|34=365|49=FIXIMULATOR|52=20160308-08:03:40.999|56=BANZAI|10=086|8=FIX.4.2|9=62|35=0|34=366|49=FIXIMULATOR|52=20160308-08:04:01.296|56=BANZAI|10=075|8=FIX.4.2|9=62|35=0|34=367|49=FIXIMULATOR|52=20160308-08:04:21.296|56=BANZAI|10=078|8=FIX.4.2|9=62|35=0|34=368|49=FIXIMULATOR|52=20160308-08:04:41.296|56=BANZAI|10=081|8=FIX.4.2|9=62|35=0|34=369|49=FIXIMULATOR|52=20160308-08:05:02.295|56=BANZAI|10=079|8=FIX.4.2|9=62|35=0|34=370|49=FIXIMULATOR|52=20160308-08:05:22.295|56=BANZAI|10=073|8=FIX.4.2|9=62|35=0|34=371|49=FIXIMULATOR|52=20160308-08:05:43.294|56=BANZAI|10=076|8=FIX.4.2|9=62|35=0|34=372|49=FIXIMULATOR|52=20160308-08:06:03.294|56=BANZAI|10=074|8=FIX.4.2|9=62|35=0|34=373|49=FIXIMULATOR|52=20160308-08:06:23.294|56=BANZAI|10=077|8=FIX.4.2|9=62|35=0|34=374|49=FIXIMULATOR|52=20160308-08:06:44.294|56=BANZAI|10=081|8=FIX.4.2|9=62|35=0|34=375|49=FIXIMULATOR|52=20160308-08:07:05.293|56=BANZAI|10=079|8=FIX.4.2|9=62|35=0|34=376|49=FIXIMULATOR|52=20160308-08:07:26.292|56=BANZAI|10=082|8=FIX.4.2|9=62|35=0|34=377|49=FIXIMULATOR|52=20160308-08:07:46.292|56=BANZAI|10=085|8=FIX.4.2|9=62|35=0|34=378|49=FIXIMULATOR|52=20160308-08:08:07.288|56=BANZAI|10=089|8=FIX.4.2|9=62|35=0|34=379|49=FIXIMULATOR|52=20160308-08:08:27.292|56=BANZAI|10=087|8=FIX.4.2|9=62|35=0|34=380|49=FIXIMULATOR|52=20160308-08:08:48.290|56=BANZAI|10=080|8=FIX.4.2|9=62|35=0|34=381|49=FIXIMULATOR|52=20160308-08:09:08.291|56=BANZAI|10=079|8=FIX.4.2|9=62|35=0|34=382|49=FIXIMULATOR|52=20160308-08:09:28.291|56=BANZAI|10=082|8=FIX.4.2|9=62|35=0|34=383|49=FIXIMULATOR|52=20160308-08:09:49.290|56=BANZAI|10=085|8=FIX.4.2|9=62|35=0|34=384|49=FIXIMULATOR|52=20160308-08:10:10.290|56=BANZAI|10=066|8=FIX.4.2|9=62|35=0|34=385|49=FIXIMULATOR|52=20160308-08:10:31.289|56=BANZAI|10=078|8=FIX.4.2|9=62|35=0|34=386|49=FIXIMULATOR|52=20160308-08:10:51.289|56=BANZAI|10=081|8=FIX.4.2|9=62|35=0|34=387|49=FIXIMULATOR|52=20160308-08:11:12.288|56=BANZAI|10=079|8=FIX.4.2|9=62|35=0|34=388|49=FIXIMULATOR|52=20160308-08:11:33.288|56=BANZAI|10=083|8=FIX.4.2|9=62|35=0|34=389|49=FIXIMULATOR|52=20160308-08:11:53.288|56=BANZAI|10=086|8=FIX.4.2|9=62|35=0|34=390|49=FIXIMULATOR|52=20160308-08:12:14.287|56=BANZAI|10=075|8=FIX.4.2|9=62|35=0|34=391|49=FIXIMULATOR|52=20160308-08:12:34.287|56=BANZAI|10=078|8=FIX.4.2|9=62|35=0|34=392|49=FIXIMULATOR|52=20160308-08:12:55.286|56=BANZAI|10=081|8=FIX.4.2|9=62|35=0|34=393|49=FIXIMULATOR|52=20160308-08:13:16.286|56=BANZAI|10=080|8=FIX.4.2|9=62|35=0|34=394|49=FIXIMULATOR|52=20160308-08:13:37.286|56=BANZAI|10=084|8=FIX.4.2|9=62|35=0|34=395|49=FIXIMULATOR|52=20160308-08:13:57.286|56=BANZAI|10=087|8=FIX.4.2|9=62|35=0|34=396|49=FIXIMULATOR|52=20160308-08:14:18.284|56=BANZAI|10=084|8=FIX.4.2|9=62|35=0|34=397|49=FIXIMULATOR|52=20160308-08:14:39.285|56=BANZAI|10=089|8=FIX.4.2|9=62|35=0|34=398|49=FIXIMULATOR|52=20160308-08:15:00.283|56=BANZAI|10=077|8=FIX.4.2|9=62|35=0|34=399|49=FIXIMULATOR|52=20160308-08:15:20.283|56=BANZAI|10=080|8=FIX.4.2|9=62|35=0|34=400|49=FIXIMULATOR|52=20160308-08:15:40.283|56=BANZAI|10=065|8=FIX.4.2|9=62|35=0|34=401|49=FIXIMULATOR|52=20160308-08:16:00.985|56=BANZAI|10=072|8=FIX.4.2|9=62|35=0|34=402|49=FIXIMULATOR|52=20160308-08:16:21.281|56=BANZAI|10=065|8=FIX.4.2|9=62|35=0|34=403|49=FIXIMULATOR|52=20160308-08:16:41.282|56=BANZAI|10=069|8=FIX.4.2|9=62|35=0|34=404|49=FIXIMULATOR|52=20160308-08:17:02.282|56=BANZAI|10=068|8=FIX.4.2|9=62|35=0|34=405|49=FIXIMULATOR|52=20160308-08:17:23.282|56=BANZAI|10=072|8=FIX.4.2|9=62|35=0|34=406|49=FIXIMULATOR|52=20160308-08:17:44.281|56=BANZAI|10=075|8=FIX.4.2|9=62|35=0|34=407|49=FIXIMULATOR|52=20160308-08:18:05.280|56=BANZAI|10=073|8=FIX.4.2|9=62|35=0|34=408|49=FIXIMULATOR|52=20160308-08:18:25.280|56=BANZAI|10=076|8=FIX.4.2|9=62|35=0|34=409|49=FIXIMULATOR|52=20160308-08:18:46.279|56=BANZAI|10=088|8=FIX.4.2|9=62|35=0|34=410|49=FIXIMULATOR|52=20160308-08:19:06.279|56=BANZAI|10=077|8=FIX.4.2|9=62|35=0|34=411|49=FIXIMULATOR|52=20160308-08:19:27.279|56=BANZAI|10=081|8=FIX.4.2|9=62|35=0|34=412|49=FIXIMULATOR|52=20160308-08:19:48.278|56=BANZAI|10=084|8=FIX.4.2|9=62|35=0|34=413|49=FIXIMULATOR|52=20160308-08:20:09.278|56=BANZAI|10=074|8=FIX.4.2|9=62|35=0|34=414|49=FIXIMULATOR|52=20160308-08:20:29.278|56=BANZAI|10=077|8=FIX.4.2|9=62|35=0|34=415|49=FIXIMULATOR|52=20160308-08:20:50.277|56=BANZAI|10=071|8=FIX.4.2|9=62|35=0|34=416|49=FIXIMULATOR|52=20160308-08:21:11.277|56=BANZAI|10=070|8=FIX.4.2|9=62|35=0|34=417|49=FIXIMULATOR|52=20160308-08:21:31.277|56=BANZAI|10=073|8=FIX.4.2|9=62|35=0|34=418|49=FIXIMULATOR|52=20160308-08:21:52.276|56=BANZAI|10=076|8=FIX.4.2|9=62|35=0|34=419|49=FIXIMULATOR|52=20160308-08:22:12.276|56=BANZAI|10=074|8=FIX.4.2|9=62|35=0|34=420|49=FIXIMULATOR|52=20160308-08:22:33.274|56=BANZAI|10=067|8=FIX.4.2|9=62|35=0|34=421|49=FIXIMULATOR|52=20160308-08:22:53.275|56=BANZAI|10=071|8=FIX.4.2|9=62|35=0|34=422|49=FIXIMULATOR|52=20160308-08:23:14.274|56=BANZAI|10=069|8=FIX.4.2|9=62|35=0|34=423|49=FIXIMULATOR|52=20160308-08:23:34.275|56=BANZAI|10=073|8=FIX.4.2|9=62|35=0|34=424|49=FIXIMULATOR|52=20160308-08:23:55.273|56=BANZAI|10=075|8=FIX.4.2|9=62|35=0|34=425|49=FIXIMULATOR|52=20160308-08:24:15.274|56=BANZAI|10=074|8=FIX.4.2|9=62|35=0|34=426|49=FIXIMULATOR|52=20160308-08:24:36.273|56=BANZAI|10=077|8=FIX.4.2|9=62|35=0|34=427|49=FIXIMULATOR|52=20160308-08:24:57.268|56=BANZAI|10=085|8=FIX.4.2|9=62|35=0|34=428|49=FIXIMULATOR|52=20160308-08:25:17.272|56=BANZAI|10=078|8=FIX.4.2|9=62|35=0|34=429|49=FIXIMULATOR|52=20160308-08:25:37.272|56=BANZAI|10=081|8=FIX.4.2|9=62|35=0|34=430|49=FIXIMULATOR|52=20160308-08:25:58.271|56=BANZAI|10=075|8=FIX.4.2|9=62|35=0|34=431|49=FIXIMULATOR|52=20160308-08:26:18.272|56=BANZAI|10=074|8=FIX.4.2|9=62|35=0|34=432|49=FIXIMULATOR|52=20160308-08:26:39.270|56=BANZAI|10=076|8=FIX.4.2|9=62|35=0|34=433|49=FIXIMULATOR|52=20160308-08:26:59.270|56=BANZAI|10=079|8=FIX.4.2|9=62|35=0|34=434|49=FIXIMULATOR|52=20160308-08:27:20.269|56=BANZAI|10=077|8=FIX.4.2|9=62|35=0|34=435|49=FIXIMULATOR|52=20160308-08:27:40.269|56=BANZAI|10=080|8=FIX.4.2|9=62|35=0|34=436|49=FIXIMULATOR|52=20160308-08:28:00.269|56=BANZAI|10=078|8=FIX.4.2|9=62|35=0|34=437|49=FIXIMULATOR|52=20160308-08:28:20.970|56=BANZAI|10=080|8=FIX.4.2|9=62|35=0|34=438|49=FIXIMULATOR|52=20160308-08:28:41.268|56=BANZAI|10=084|8=FIX.4.2|9=62|35=0|34=439|49=FIXIMULATOR|52=20160308-08:29:02.267|56=BANZAI|10=082|8=FIX.4.2|9=62|35=0|34=440|49=FIXIMULATOR|52=20160308-08:29:22.267|56=BANZAI|10=076|8=FIX.4.2|9=62|35=0|34=441|49=FIXIMULATOR|52=20160308-08:29:42.267|56=BANZAI|10=079|8=FIX.4.2|9=62|35=0|34=442|49=FIXIMULATOR|52=20160308-08:30:03.267|56=BANZAI|10=069|8=FIX.4.2|9=62|35=0|34=443|49=FIXIMULATOR|52=20160308-08:30:24.264|56=BANZAI|10=070|8=FIX.4.2|9=62|35=0|34=444|49=FIXIMULATOR|52=20160308-08:30:44.266|56=BANZAI|10=075|8=FIX.4.2|9=62|35=0|34=445|49=FIXIMULATOR|52=20160308-08:31:05.266|56=BANZAI|10=074|8=FIX.4.2|9=62|35=0|34=446|49=FIXIMULATOR|52=20160308-08:31:26.266|56=BANZAI|10=078|8=FIX.4.2|9=62|35=0|34=447|49=FIXIMULATOR|52=20160308-08:31:47.264|56=BANZAI|10=080|8=FIX.4.2|9=62|35=0|34=448|49=FIXIMULATOR|52=20160308-08:32:07.264|56=BANZAI|10=078|8=FIX.4.2|9=62|35=0|34=449|49=FIXIMULATOR|52=20160308-08:32:28.264|56=BANZAI|10=082|8=FIX.4.2|9=62|35=0|34=450|49=FIXIMULATOR|52=20160308-08:32:49.263|56=BANZAI|10=076|8=FIX.4.2|9=62|35=0|34=451|49=FIXIMULATOR|52=20160308-08:33:09.263|56=BANZAI|10=074|8=FIX.4.2|9=62|35=0|34=452|49=FIXIMULATOR|52=20160308-08:33:29.263|56=BANZAI|10=077|8=FIX.4.2|9=62|35=0|34=453|49=FIXIMULATOR|52=20160308-08:33:50.262|56=BANZAI|10=071|8=FIX.4.2|9=62|35=0|34=454|49=FIXIMULATOR|52=20160308-08:34:10.262|56=BANZAI|10=069|8=FIX.4.2|9=62|35=0|34=455|49=FIXIMULATOR|52=20160308-08:34:30.262|56=BANZAI|10=072|8=FIX.4.2|9=62|35=0|34=456|49=FIXIMULATOR|52=20160308-08:34:50.262|56=BANZAI|10=075|8=FIX.4.2|9=62|35=0|34=457|49=FIXIMULATOR|52=20160308-08:35:11.260|56=BANZAI|10=072|8=FIX.4.2|9=62|35=0|34=458|49=FIXIMULATOR|52=20160308-08:35:31.260|56=BANZAI|10=075|8=FIX.4.2|9=62|35=0|34=459|49=FIXIMULATOR|52=20160308-08:35:51.261|56=BANZAI|10=079|8=FIX.4.2|9=62|35=0|34=460|49=FIXIMULATOR|52=20160308-08:36:12.259|56=BANZAI|10=076|8=FIX.4.2|9=62|35=0|34=461|49=FIXIMULATOR|52=20160308-08:36:33.259|56=BANZAI|10=080|8=FIX.4.2|9=62|35=0|34=462|49=FIXIMULATOR|52=20160308-08:36:53.259|56=BANZAI|10=083|8=FIX.4.2|9=62|35=0|34=463|49=FIXIMULATOR|52=20160308-08:37:13.259|56=BANZAI|10=081|8=FIX.4.2|9=62|35=0|34=464|49=FIXIMULATOR|52=20160308-08:37:34.258|56=BANZAI|10=084|8=FIX.4.2|9=62|35=0|34=465|49=FIXIMULATOR|52=20160308-08:37:55.254|56=BANZAI|10=084|8=FIX.4.2|9=62|35=0|34=466|49=FIXIMULATOR|52=20160308-08:38:15.258|56=BANZAI|10=086|8=FIX.4.2|9=62|35=0|34=467|49=FIXIMULATOR|52=20160308-08:38:36.256|56=BANZAI|10=088|8=FIX.4.2|9=62|35=0|34=468|49=FIXIMULATOR|52=20160308-08:38:56.257|56=BANZAI|10=092|8=FIX.4.2|9=74|35=A|34=469|49=FIXIMULATOR|52=20160308-08:44:44.670|56=BANZAI|98=0|108=20|10=130|8=FIX.4.2|9=62|35=0|34=470|49=FIXIMULATOR|52=20160308-08:45:05.399|56=BANZAI|10=084|8=FIX.4.2|9=62|35=0|34=471|49=FIXIMULATOR|52=20160308-08:45:25.399|56=BANZAI|10=087|8=FIX.4.2|9=62|35=0|34=472|49=FIXIMULATOR|52=20160308-08:45:46.398|56=BANZAI|10=090|8=FIX.4.2|9=62|35=0|34=473|49=FIXIMULATOR|52=20160308-08:46:06.398|56=BANZAI|10=088|8=FIX.4.2|9=62|35=0|34=474|49=FIXIMULATOR|52=20160308-08:46:27.398|56=BANZAI|10=092|8=FIX.4.2|9=62|35=0|34=475|49=FIXIMULATOR|52=20160308-08:46:48.397|56=BANZAI|10=095|8=FIX.4.2|9=62|35=0|34=476|49=FIXIMULATOR|52=20160308-08:47:09.395|56=BANZAI|10=092|8=FIX.4.2|9=62|35=0|34=477|49=FIXIMULATOR|52=20160308-08:47:29.396|56=BANZAI|10=096|8=FIX.4.2|9=62|35=0|34=478|49=FIXIMULATOR|52=20160308-08:47:49.396|56=BANZAI|10=099|8=FIX.4.2|9=62|35=0|34=479|49=FIXIMULATOR|52=20160308-08:48:09.396|56=BANZAI|10=097|8=FIX.4.2|9=62|35=0|34=480|49=FIXIMULATOR|52=20160308-08:48:30.395|56=BANZAI|10=082|8=FIX.4.2|9=62|35=0|34=481|49=FIXIMULATOR|52=20160308-08:48:50.395|56=BANZAI|10=085|8=FIX.4.2|9=62|35=0|34=482|49=FIXIMULATOR|52=20160308-08:49:11.394|56=BANZAI|10=083|8=FIX.4.2|9=62|35=0|34=483|49=FIXIMULATOR|52=20160308-08:49:31.394|56=BANZAI|10=086|8=FIX.4.2|9=62|35=0|34=484|49=FIXIMULATOR|52=20160308-08:49:52.394|56=BANZAI|10=090|8=FIX.4.2|9=62|35=0|34=485|49=FIXIMULATOR|52=20160308-08:50:13.393|56=BANZAI|10=079|8=FIX.4.2|9=62|35=0|34=486|49=FIXIMULATOR|52=20160308-08:50:34.392|56=BANZAI|10=082|8=FIX.4.2|9=62|35=0|34=487|49=FIXIMULATOR|52=20160308-08:50:54.392|56=BANZAI|10=085|8=FIX.4.2|9=62|35=0|34=488|49=FIXIMULATOR|52=20160308-08:51:14.392|56=BANZAI|10=083|8=FIX.4.2|9=62|35=0|34=489|49=FIXIMULATOR|52=20160308-08:51:35.391|56=BANZAI|10=086|8=FIX.4.2|9=62|35=0|34=490|49=FIXIMULATOR|52=20160308-08:51:55.392|56=BANZAI|10=081|8=FIX.4.2|9=62|35=0|34=491|49=FIXIMULATOR|52=20160308-08:52:16.391|56=BANZAI|10=079|8=FIX.4.2|9=62|35=0|34=492|49=FIXIMULATOR|52=20160308-08:52:36.391|56=BANZAI|10=082|8=FIX.4.2|9=62|35=0|34=493|49=FIXIMULATOR|52=20160308-08:52:56.391|56=BANZAI|10=085|8=FIX.4.2|9=62|35=0|34=494|49=FIXIMULATOR|52=20160308-08:53:17.389|56=BANZAI|10=091|8=FIX.4.2|9=62|35=0|34=495|49=FIXIMULATOR|52=20160308-08:53:37.389|56=BANZAI|10=094|8=FIX.4.2|9=62|35=0|34=496|49=FIXIMULATOR|52=20160308-08:53:57.389|56=BANZAI|10=097|8=FIX.4.2|9=62|35=0|34=497|49=FIXIMULATOR|52=20160308-08:54:18.388|56=BANZAI|10=095|8=FIX.4.2|9=62|35=0|34=498|49=FIXIMULATOR|52=20160308-08:54:39.388|56=BANZAI|10=099|8=FIX.4.2|9=62|35=0|34=499|49=FIXIMULATOR|52=20160308-08:55:00.387|56=BANZAI|10=088|8=FIX.4.2|9=62|35=0|34=500|49=FIXIMULATOR|52=20160308-08:55:20.388|56=BANZAI|10=074|8=FIX.4.2|9=62|35=0|34=501|49=FIXIMULATOR|52=20160308-08:55:41.387|56=BANZAI|10=077|8=FIX.4.2|9=62|35=0|34=502|49=FIXIMULATOR|52=20160308-08:56:02.386|56=BANZAI|10=075|8=FIX.4.2|9=62|35=0|34=503|49=FIXIMULATOR|52=20160308-08:56:23.385|56=BANZAI|10=078|8=FIX.4.2|9=62|35=0|34=504|49=FIXIMULATOR|52=20160308-08:56:43.386|56=BANZAI|10=082|8=FIX.4.2|9=62|35=0|34=505|49=FIXIMULATOR|52=20160308-08:57:04.385|56=BANZAI|10=080|8=FIX.4.2|9=62|35=0|34=506|49=FIXIMULATOR|52=20160308-08:57:24.626|56=BANZAI|10=081|8=FIX.4.2|9=62|35=0|34=507|49=FIXIMULATOR|52=20160308-08:57:44.635|56=BANZAI|10=084|8=FIX.4.2|9=62|35=0|34=508|49=FIXIMULATOR|52=20160308-08:58:05.384|56=BANZAI|10=084|8=FIX.4.2|9=62|35=0|34=509|49=FIXIMULATOR|52=20160308-08:58:25.384|56=BANZAI|10=087|8=FIX.4.2|9=62|35=0|34=510|49=FIXIMULATOR|52=20160308-08:58:46.384|56=BANZAI|10=082|8=FIX.4.2|9=62|35=0|34=511|49=FIXIMULATOR|52=20160308-08:59:07.382|56=BANZAI|10=079|8=FIX.4.2|9=62|35=0|34=512|49=FIXIMULATOR|52=20160308-08:59:27.383|56=BANZAI|10=083|8=FIX.4.2|9=62|35=0|34=513|49=FIXIMULATOR|52=20160308-08:59:47.383|56=BANZAI|10=086|8=FIX.4.2|9=62|35=0|34=514|49=FIXIMULATOR|52=20160308-09:00:08.381|56=BANZAI|10=069|8=FIX.4.2|9=62|35=0|34=515|49=FIXIMULATOR|52=20160308-09:00:28.381|56=BANZAI|10=072|8=FIX.4.2|9=62|35=0|34=516|49=FIXIMULATOR|52=20160308-09:00:48.381|56=BANZAI|10=075|8=FIX.4.2|9=62|35=0|34=517|49=FIXIMULATOR|52=20160308-09:01:08.381|56=BANZAI|10=073|8=FIX.4.2|9=62|35=0|34=518|49=FIXIMULATOR|52=20160308-09:01:28.381|56=BANZAI|10=076|8=FIX.4.2|9=62|35=0|34=519|49=FIXIMULATOR|52=20160308-09:01:49.379|56=BANZAI|10=087|8=FIX.4.2|9=62|35=0|34=520|49=FIXIMULATOR|52=20160308-09:02:09.379|56=BANZAI|10=076|8=FIX.4.2|9=62|35=0|34=521|49=FIXIMULATOR|52=20160308-09:02:29.379|56=BANZAI|10=079|8=FIX.4.2|9=62|35=0|34=522|49=FIXIMULATOR|52=20160308-09:02:50.379|56=BANZAI|10=074|8=FIX.4.2|9=62|35=0|34=523|49=FIXIMULATOR|52=20160308-09:03:10.379|56=BANZAI|10=072|8=FIX.4.2|9=62|35=0|34=524|49=FIXIMULATOR|52=20160308-09:03:31.379|56=BANZAI|10=076|8=FIX.4.2|9=62|35=0|34=525|49=FIXIMULATOR|52=20160308-09:03:52.375|56=BANZAI|10=076|8=FIX.4.2|9=62|35=0|34=526|49=FIXIMULATOR|52=20160308-09:04:12.377|56=BANZAI|10=076|8=FIX.4.2|9=62|35=0|34=527|49=FIXIMULATOR|52=20160308-09:04:32.377|56=BANZAI|10=079|8=FIX.4.2|9=62|35=0|34=528|49=FIXIMULATOR|52=20160308-09:04:52.377|56=BANZAI|10=082|8=FIX.4.2|9=62|35=0|34=529|49=FIXIMULATOR|52=20160308-09:05:13.376|56=BANZAI|10=080|8=FIX.4.2|9=62|35=0|34=530|49=FIXIMULATOR|52=20160308-09:05:33.376|56=BANZAI|10=074|8=FIX.4.2|9=62|35=0|34=531|49=FIXIMULATOR|52=20160308-09:05:54.375|56=BANZAI|10=077|8=FIX.4.2|9=62|35=0|34=532|49=FIXIMULATOR|52=20160308-09:06:14.375|56=BANZAI|10=075|8=FIX.4.2|9=62|35=0|34=533|49=FIXIMULATOR|52=20160308-09:06:35.374|56=BANZAI|10=078|8=FIX.4.2|9=62|35=0|34=534|49=FIXIMULATOR|52=20160308-09:06:55.374|56=BANZAI|10=081|8=FIX.4.2|9=62|35=0|34=535|49=FIXIMULATOR|52=20160308-09:07:15.374|56=BANZAI|10=079|8=FIX.4.2|9=62|35=0|34=536|49=FIXIMULATOR|52=20160308-09:07:36.369|56=BANZAI|10=087|8=FIX.4.2|9=62|35=0|34=537|49=FIXIMULATOR|52=20160308-09:07:56.373|56=BANZAI|10=085|8=FIX.4.2|9=62|35=0|34=538|49=FIXIMULATOR|52=20160308-09:08:17.373|56=BANZAI|10=084|8=FIX.4.2|9=62|35=0|34=539|49=FIXIMULATOR|52=20160308-09:08:38.371|56=BANZAI|10=086|8=FIX.4.2|9=62|35=0|34=540|49=FIXIMULATOR|52=20160308-09:08:58.371|56=BANZAI|10=080|8=FIX.4.2|9=62|35=0|34=541|49=FIXIMULATOR|52=20160308-09:09:18.372|56=BANZAI|10=079|8=FIX.4.2|9=62|35=0|34=542|49=FIXIMULATOR|52=20160308-09:09:39.371|56=BANZAI|10=082|8=FIX.4.2|9=62|35=0|34=543|49=FIXIMULATOR|52=20160308-09:10:00.370|56=BANZAI|10=062|8=FIX.4.2|9=62|35=0|34=544|49=FIXIMULATOR|52=20160308-09:10:20.370|56=BANZAI|10=065|8=FIX.4.2|9=62|35=0|34=545|49=FIXIMULATOR|52=20160308-09:10:40.370|56=BANZAI|10=068|8=FIX.4.2|9=62|35=0|34=546|49=FIXIMULATOR|52=20160308-09:11:01.369|56=BANZAI|10=075|8=FIX.4.2|9=62|35=0|34=547|49=FIXIMULATOR|52=20160308-09:11:21.370|56=BANZAI|10=070|8=FIX.4.2|9=62|35=0|34=548|49=FIXIMULATOR|52=20160308-09:11:42.369|56=BANZAI|10=082|8=FIX.4.2|9=62|35=0|34=549|49=FIXIMULATOR|52=20160308-09:12:03.368|56=BANZAI|10=080|8=FIX.4.2|9=62|35=0|34=550|49=FIXIMULATOR|52=20160308-09:12:23.368|56=BANZAI|10=074|8=FIX.4.2|9=62|35=0|34=551|49=FIXIMULATOR|52=20160308-09:12:43.368|56=BANZAI|10=077|8=FIX.4.2|9=62|35=0|34=552|49=FIXIMULATOR|52=20160308-09:13:04.366|56=BANZAI|10=074|8=FIX.4.2|9=62|35=0|34=553|49=FIXIMULATOR|52=20160308-09:13:24.368|56=BANZAI|10=079|8=FIX.4.2|9=62|35=0|34=554|49=FIXIMULATOR|52=20160308-09:13:44.608|56=BANZAI|10=079|8=FIX.4.2|9=62|35=0|34=555|49=FIXIMULATOR|52=20160308-09:14:05.363|56=BANZAI|10=076|8=FIX.4.2|9=62|35=0|34=556|49=FIXIMULATOR|52=20160308-09:14:25.366|56=BANZAI|10=082|8=FIX.4.2|9=62|35=0|34=557|49=FIXIMULATOR|52=20160308-09:14:46.365|56=BANZAI|10=085|8=FIX.4.2|9=62|35=0|34=558|49=FIXIMULATOR|52=20160308-09:15:06.365|56=BANZAI|10=083|8=FIX.4.2|9=62|35=0|34=559|49=FIXIMULATOR|52=20160308-09:15:26.365|56=BANZAI|10=086|8=FIX.4.2|9=62|35=0|34=560|49=FIXIMULATOR|52=20160308-09:15:47.363|56=BANZAI|10=079|8=FIX.4.2|9=62|35=0|34=561|49=FIXIMULATOR|52=20160308-09:16:08.360|56=BANZAI|10=075|8=FIX.4.2|9=62|35=0|34=562|49=FIXIMULATOR|52=20160308-09:16:28.363|56=BANZAI|10=081|8=FIX.4.2|9=62|35=0|34=563|49=FIXIMULATOR|52=20160308-09:16:48.363|56=BANZAI|10=084|8=FIX.4.2|9=62|35=0|34=564|49=FIXIMULATOR|52=20160308-09:17:09.363|56=BANZAI|10=083|8=FIX.4.2|9=62|35=0|34=565|49=FIXIMULATOR|52=20160308-09:17:30.362|56=BANZAI|10=077|8=FIX.4.2|9=62|35=0|34=566|49=FIXIMULATOR|52=20160308-09:17:51.362|56=BANZAI|10=081|8=FIX.4.2|9=62|35=0|34=567|49=FIXIMULATOR|52=20160308-09:18:11.362|56=BANZAI|10=079|8=FIX.4.2|9=62|35=0|34=568|49=FIXIMULATOR|52=20160308-09:18:32.361|56=BANZAI|10=082|8=FIX.4.2|9=62|35=0|34=569|49=FIXIMULATOR|52=20160308-09:18:52.361|56=BANZAI|10=085|8=FIX.4.2|9=62|35=0|34=570|49=FIXIMULATOR|52=20160308-09:19:12.361|56=BANZAI|10=074|8=FIX.4.2|9=62|35=0|34=571|49=FIXIMULATOR|52=20160308-09:19:33.358|56=BANZAI|10=084|8=FIX.4.2|9=62|35=0|34=572|49=FIXIMULATOR|52=20160308-09:19:53.358|56=BANZAI|10=087|8=FIX.4.2|9=62|35=0|34=573|49=FIXIMULATOR|52=20160308-09:20:14.358|56=BANZAI|10=077|8=FIX.4.2|9=62|35=0|34=574|49=FIXIMULATOR|52=20160308-09:20:34.359|56=BANZAI|10=081|8=FIX.4.2|9=62|35=0|34=575|49=FIXIMULATOR|52=20160308-09:20:55.358|56=BANZAI|10=084|8=FIX.4.2|9=62|35=0|34=576|49=FIXIMULATOR|52=20160308-09:21:15.358|56=BANZAI|10=082|8=FIX.4.2|9=62|35=0|34=577|49=FIXIMULATOR|52=20160308-09:21:36.358|56=BANZAI|10=086|8=FIX.4.2|9=62|35=0|34=578|49=FIXIMULATOR|52=20160308-09:21:57.357|56=BANZAI|10=089|8=FIX.4.2|9=62|35=0|34=579|49=FIXIMULATOR|52=20160308-09:22:18.357|56=BANZAI|10=088|8=FIX.4.2|9=62|35=0|34=580|49=FIXIMULATOR|52=20160308-09:22:39.354|56=BANZAI|10=080|8=FIX.4.2|9=62|35=0|34=581|49=FIXIMULATOR|52=20160308-09:22:59.356|56=BANZAI|10=085|8=FIX.4.2|9=62|35=0|34=582|49=FIXIMULATOR|52=20160308-09:23:20.355|56=BANZAI|10=074|8=FIX.4.2|9=62|35=0|34=583|49=FIXIMULATOR|52=20160308-09:23:40.355|56=BANZAI|10=077|8=FIX.4.2|9=62|35=0|34=584|49=FIXIMULATOR|52=20160308-09:24:00.355|56=BANZAI|10=075|8=FIX.4.2|9=62|35=0|34=585|49=FIXIMULATOR|52=20160308-09:24:20.355|56=BANZAI|10=078|8=FIX.4.2|9=62|35=0|34=586|49=FIXIMULATOR|52=20160308-09:24:41.354|56=BANZAI|10=081|8=FIX.4.2|9=62|35=0|34=587|49=FIXIMULATOR|52=20160308-09:25:01.354|56=BANZAI|10=079|8=FIX.4.2|9=62|35=0|34=588|49=FIXIMULATOR|52=20160308-09:25:22.353|56=BANZAI|10=082|8=FIX.4.2|9=62|35=0|34=589|49=FIXIMULATOR|52=20160308-09:25:42.353|56=BANZAI|10=085|8=FIX.4.2|9=62|35=0|34=590|49=FIXIMULATOR|52=20160308-09:26:03.352|56=BANZAI|10=074|8=FIX.4.2|9=62|35=0|34=591|49=FIXIMULATOR|52=20160308-09:26:24.352|56=BANZAI|10=078|8=FIX.4.2|9=62|35=0|34=592|49=FIXIMULATOR|52=20160308-09:26:44.352|56=BANZAI|10=081|8=FIX.4.2|9=62|35=0|34=593|49=FIXIMULATOR|52=20160308-09:27:04.591|56=BANZAI|10=084|8=FIX.4.2|9=62|35=0|34=594|49=FIXIMULATOR|52=20160308-09:27:24.593|56=BANZAI|10=089|8=FIX.4.2|9=62|35=0|34=595|49=FIXIMULATOR|52=20160308-09:27:45.348|56=BANZAI|10=091|8=FIX.4.2|9=62|35=0|34=596|49=FIXIMULATOR|52=20160308-09:28:05.351|56=BANZAI|10=083|8=FIX.4.2|9=62|35=0|34=597|49=FIXIMULATOR|52=20160308-09:28:26.349|56=BANZAI|10=094|8=FIX.4.2|9=62|35=0|34=598|49=FIXIMULATOR|52=20160308-09:28:46.350|56=BANZAI|10=089|8=FIX.4.2|9=62|35=0|34=599|49=FIXIMULATOR|52=20160308-09:29:07.347|56=BANZAI|10=094|8=FIX.4.2|9=62|35=0|34=600|49=FIXIMULATOR|52=20160308-09:29:27.349|56=BANZAI|10=081|8=FIX.4.2|9=62|35=0|34=601|49=FIXIMULATOR|52=20160308-09:29:48.349|56=BANZAI|10=085|8=FIX.4.2|9=62|35=0|34=602|49=FIXIMULATOR|52=20160308-09:30:08.348|56=BANZAI|10=073|8=FIX.4.2|9=62|35=0|34=603|49=FIXIMULATOR|52=20160308-09:30:28.348|56=BANZAI|10=076|8=FIX.4.2|9=62|35=0|34=604|49=FIXIMULATOR|52=20160308-09:30:49.348|56=BANZAI|10=080|8=FIX.4.2|9=62|35=0|34=605|49=FIXIMULATOR|52=20160308-09:31:10.347|56=BANZAI|10=069|8=FIX.4.2|9=62|35=0|34=606|49=FIXIMULATOR|52=20160308-09:31:31.346|56=BANZAI|10=072|8=FIX.4.2|9=62|35=0|34=607|49=FIXIMULATOR|52=20160308-09:31:52.346|56=BANZAI|10=076|8=FIX.4.2|9=62|35=0|34=608|49=FIXIMULATOR|52=20160308-09:32:12.346|56=BANZAI|10=074|8=FIX.4.2|9=62|35=0|34=609|49=FIXIMULATOR|52=20160308-09:32:32.346|56=BANZAI|10=077|8=FIX.4.2|9=62|35=0|34=610|49=FIXIMULATOR|52=20160308-09:32:53.344|56=BANZAI|10=070|8=FIX.4.2|9=62|35=0|34=611|49=FIXIMULATOR|52=20160308-09:33:13.345|56=BANZAI|10=069|8=FIX.4.2|9=62|35=0|34=612|49=FIXIMULATOR|52=20160308-09:33:34.342|56=BANZAI|10=070|8=FIX.4.2|9=62|35=0|34=613|49=FIXIMULATOR|52=20160308-09:33:54.343|56=BANZAI|10=074|8=FIX.4.2|9=62|35=0|34=614|49=FIXIMULATOR|52=20160308-09:34:15.344|56=BANZAI|10=074|8=FIX.4.2|9=62|35=0|34=615|49=FIXIMULATOR|52=20160308-09:34:36.340|56=BANZAI|10=074|8=FIX.4.2|9=62|35=0|34=616|49=FIXIMULATOR|52=20160308-09:34:56.343|56=BANZAI|10=080|8=FIX.4.2|9=62|35=0|34=617|49=FIXIMULATOR|52=20160308-09:35:17.340|56=BANZAI|10=076|8=FIX.4.2|9=62|35=0|34=618|49=FIXIMULATOR|52=20160308-09:35:37.342|56=BANZAI|10=081|8=FIX.4.2|9=62|35=0|34=619|49=FIXIMULATOR|52=20160308-09:35:58.339|56=BANZAI|10=091|8=FIX.4.2|9=62|35=0|34=620|49=FIXIMULATOR|52=20160308-09:36:18.341|56=BANZAI|10=073|8=FIX.4.2|9=62|35=0|34=621|49=FIXIMULATOR|52=20160308-09:36:38.341|56=BANZAI|10=076|8=FIX.4.2|9=62|35=0|34=622|49=FIXIMULATOR|52=20160308-09:36:59.340|56=BANZAI|10=079|8=FIX.4.2|9=62|35=0|34=623|49=FIXIMULATOR|52=20160308-09:37:20.340|56=BANZAI|10=069|8=FIX.4.2|9=62|35=0|34=624|49=FIXIMULATOR|52=20160308-09:37:41.339|56=BANZAI|10=081|8=FIX.4.2|9=62|35=0|34=625|49=FIXIMULATOR|52=20160308-09:38:02.339|56=BANZAI|10=080|8=FIX.4.2|9=62|35=0|34=626|49=FIXIMULATOR|52=20160308-09:38:23.336|56=BANZAI|10=081|8=FIX.4.2|9=62|35=0|34=627|49=FIXIMULATOR|52=20160308-09:38:44.338|56=BANZAI|10=087|8=FIX.4.2|9=62|35=0|34=628|49=FIXIMULATOR|52=20160308-09:39:04.338|56=BANZAI|10=085|8=FIX.4.2|9=62|35=0|34=629|49=FIXIMULATOR|52=20160308-09:39:24.578|56=BANZAI|10=094|8=FIX.4.2|9=62|35=0|34=630|49=FIXIMULATOR|52=20160308-09:39:45.336|56=BANZAI|10=081|8=FIX.4.2|9=62|35=0|34=631|49=FIXIMULATOR|52=20160308-09:40:05.336|56=BANZAI|10=070|8=FIX.4.2|9=62|35=0|34=632|49=FIXIMULATOR|52=20160308-09:40:26.336|56=BANZAI|10=074|8=FIX.4.2|9=62|35=0|34=633|49=FIXIMULATOR|52=20160308-09:40:46.336|56=BANZAI|10=077|8=FIX.4.2|9=62|35=0|34=634|49=FIXIMULATOR|52=20160308-09:41:07.335|56=BANZAI|10=075|8=FIX.4.2|9=62|35=0|34=635|49=FIXIMULATOR|52=20160308-09:41:27.335|56=BANZAI|10=078|8=FIX.4.2|9=62|35=0|34=636|49=FIXIMULATOR|52=20160308-09:41:48.335|56=BANZAI|10=082|8=FIX.4.2|9=62|35=0|34=637|49=FIXIMULATOR|52=20160308-09:42:09.335|56=BANZAI|10=081|8=FIX.4.2|9=62|35=0|34=638|49=FIXIMULATOR|52=20160308-09:42:30.333|56=BANZAI|10=074|8=FIX.4.2|9=62|35=0|34=639|49=FIXIMULATOR|52=20160308-09:42:50.334|56=BANZAI|10=078|8=FIX.4.2|9=62|35=0|34=640|49=FIXIMULATOR|52=20160308-09:43:11.333|56=BANZAI|10=067|8=FIX.4.2|9=62|35=0|34=641|49=FIXIMULATOR|52=20160308-09:43:32.332|56=BANZAI|10=070|8=FIX.4.2|9=62|35=0|34=642|49=FIXIMULATOR|52=20160308-09:43:52.333|56=BANZAI|10=074|8=FIX.4.2|9=62|35=0|34=643|49=FIXIMULATOR|52=20160308-09:44:13.329|56=BANZAI|10=078|8=FIX.4.2|9=62|35=0|34=644|49=FIXIMULATOR|52=20160308-09:44:33.332|56=BANZAI|10=075|8=FIX.4.2|9=62|35=0|34=645|49=FIXIMULATOR|52=20160308-09:44:54.327|56=BANZAI|10=083|8=FIX.4.2|9=62|35=0|34=646|49=FIXIMULATOR|52=20160308-09:45:14.331|56=BANZAI|10=076|8=FIX.4.2|9=62|35=0|34=647|49=FIXIMULATOR|52=20160308-09:45:34.331|56=BANZAI|10=079|8=FIX.4.2|9=62|35=0|34=648|49=FIXIMULATOR|52=20160308-09:45:55.329|56=BANZAI|10=090|8=FIX.4.2|9=62|35=0|34=649|49=FIXIMULATOR|52=20160308-09:46:15.330|56=BANZAI|10=080|8=FIX.4.2|9=62|35=0|34=650|49=FIXIMULATOR|52=20160308-09:46:36.329|56=BANZAI|10=083|8=FIX.4.2|9=62|35=0|34=651|49=FIXIMULATOR|52=20160308-09:46:56.329|56=BANZAI|10=086|8=FIX.4.2|9=62|35=0|34=652|49=FIXIMULATOR|52=20160308-09:47:16.329|56=BANZAI|10=084|8=FIX.4.2|9=62|35=0|34=653|49=FIXIMULATOR|52=20160308-09:47:37.327|56=BANZAI|10=086|8=FIX.4.2|9=62|35=0|34=654|49=FIXIMULATOR|52=20160308-09:47:57.327|56=BANZAI|10=089|8=FIX.4.2|9=62|35=0|34=655|49=FIXIMULATOR|52=20160308-09:48:17.328|56=BANZAI|10=088|8=FIX.4.2|9=62|35=0|34=656|49=FIXIMULATOR|52=20160308-09:48:38.326|56=BANZAI|10=090|8=FIX.4.2|9=62|35=0|34=657|49=FIXIMULATOR|52=20160308-09:48:58.326|56=BANZAI|10=093|8=FIX.4.2|9=62|35=0|34=658|49=FIXIMULATOR|52=20160308-09:49:18.326|56=BANZAI|10=091|8=FIX.4.2|9=62|35=0|34=659|49=FIXIMULATOR|52=20160308-09:49:39.326|56=BANZAI|10=095|8=FIX.4.2|9=62|35=0|34=660|49=FIXIMULATOR|52=20160308-09:50:00.325|56=BANZAI|10=066|8=FIX.4.2|9=62|35=0|34=661|49=FIXIMULATOR|52=20160308-09:50:20.325|56=BANZAI|10=069|8=FIX.4.2|9=62|35=0|34=662|49=FIXIMULATOR|52=20160308-09:50:41.324|56=BANZAI|10=072|8=FIX.4.2|9=62|35=0|34=663|49=FIXIMULATOR|52=20160308-09:51:01.325|56=BANZAI|10=071|8=FIX.4.2|9=62|35=0|34=664|49=FIXIMULATOR|52=20160308-09:51:22.324|56=BANZAI|10=074|8=FIX.4.2|9=62|35=0|34=665|49=FIXIMULATOR|52=20160308-09:51:43.324|56=BANZAI|10=078|8=FIX.4.2|9=62|35=0|34=666|49=FIXIMULATOR|52=20160308-09:52:04.322|56=BANZAI|10=075|8=FIX.4.2|9=62|35=0|34=667|49=FIXIMULATOR|52=20160308-09:52:24.322|56=BANZAI|10=078|8=FIX.4.2|9=62|35=0|34=668|49=FIXIMULATOR|52=20160308-09:52:44.322|56=BANZAI|10=081|8=FIX.4.2|9=62|35=0|34=669|49=FIXIMULATOR|52=20160308-09:53:04.563|56=BANZAI|10=086|8=FIX.4.2|9=62|35=0|34=670|49=FIXIMULATOR|52=20160308-09:53:25.321|56=BANZAI|10=073|8=FIX.4.2|9=62|35=0|34=671|49=FIXIMULATOR|52=20160308-09:53:46.320|56=BANZAI|10=076|8=FIX.4.2|9=62|35=0|34=672|49=FIXIMULATOR|52=20160308-09:54:06.321|56=BANZAI|10=075|8=FIX.4.2|9=62|35=0|34=673|49=FIXIMULATOR|52=20160308-09:54:27.320|56=BANZAI|10=078|8=FIX.4.2|9=62|35=0|34=674|49=FIXIMULATOR|52=20160308-09:54:48.320|56=BANZAI|10=082|8=FIX.4.2|9=62|35=0|34=675|49=FIXIMULATOR|52=20160308-09:55:08.320|56=BANZAI|10=080|